{
  "abi": [
    {
      "inputs": [
        {
          "internalType": "string",
          "name": "_name",
          "type": "string"
        },
        {
          "internalType": "string",
          "name": "_details",
          "type": "string"
        }
      ],
      "stateMutability": "nonpayable",
      "type": "constructor"
    },
    {
      "inputs": [],
      "name": "AccessControlBadConfirmation",
      "type": "error"
    },
    {
      "inputs": [
        {
          "internalType": "address",
          "name": "account",
          "type": "address"
        },
        {
          "internalType": "bytes32",
          "name": "neededRole",
          "type": "bytes32"
        }
      ],
      "name": "AccessControlUnauthorizedAccount",
      "type": "error"
    },
    {
      "inputs": [
        {
          "internalType": "address",
          "name": "sender",
          "type": "address"
        },
        {
          "internalType": "uint256",
          "name": "tokenId",
          "type": "uint256"
        },
        {
          "internalType": "address",
          "name": "owner",
          "type": "address"
        }
      ],
      "name": "ERC721IncorrectOwner",
      "type": "error"
    },
    {
      "inputs": [
        {
          "internalType": "address",
          "name": "operator",
          "type": "address"
        },
        {
          "internalType": "uint256",
          "name": "tokenId",
          "type": "uint256"
        }
      ],
      "name": "ERC721InsufficientApproval",
      "type": "error"
    },
    {
      "inputs": [
        {
          "internalType": "address",
          "name": "approver",
          "type": "address"
        }
      ],
      "name": "ERC721InvalidApprover",
      "type": "error"
    },
    {
      "inputs": [
        {
          "internalType": "address",
          "name": "operator",
          "type": "address"
        }
      ],
      "name": "ERC721InvalidOperator",
      "type": "error"
    },
    {
      "inputs": [
        {
          "internalType": "address",
          "name": "owner",
          "type": "address"
        }
      ],
      "name": "ERC721InvalidOwner",
      "type": "error"
    },
    {
      "inputs": [
        {
          "internalType": "address",
          "name": "receiver",
          "type": "address"
        }
      ],
      "name": "ERC721InvalidReceiver",
      "type": "error"
    },
    {
      "inputs": [
        {
          "internalType": "address",
          "name": "sender",
          "type": "address"
        }
      ],
      "name": "ERC721InvalidSender",
      "type": "error"
    },
    {
      "inputs": [
        {
          "internalType": "uint256",
          "name": "tokenId",
          "type": "uint256"
        }
      ],
      "name": "ERC721NonexistentToken",
      "type": "error"
    },
    {
      "inputs": [
        {
          "internalType": "uint256",
          "name": "value",
          "type": "uint256"
        },
        {
          "internalType": "uint256",
          "name": "length",
          "type": "uint256"
        }
      ],
      "name": "StringsInsufficientHexLength",
      "type": "error"
    },
    {
      "anonymous": false,
      "inputs": [
        {
          "indexed": true,
          "internalType": "address",
          "name": "owner",
          "type": "address"
        },
        {
          "indexed": true,
          "internalType": "address",
          "name": "approved",
          "type": "address"
        },
        {
          "indexed": true,
          "internalType": "uint256",
          "name": "tokenId",
          "type": "uint256"
        }
      ],
      "name": "Approval",
      "type": "event"
    },
    {
      "anonymous": false,
      "inputs": [
        {
          "indexed": true,
          "internalType": "address",
          "name": "owner",
          "type": "address"
        },
        {
          "indexed": true,
          "internalType": "address",
          "name": "operator",
          "type": "address"
        },
        {
          "indexed": false,
          "internalType": "bool",
          "name": "approved",
          "type": "bool"
        }
      ],
      "name": "ApprovalForAll",
      "type": "event"
    },
    {
      "anonymous": false,
      "inputs": [
        {
          "indexed": false,
          "internalType": "address",
          "name": "member",
          "type": "address"
        },
        {
          "indexed": false,
          "internalType": "uint256",
          "name": "tokenId",
          "type": "uint256"
        }
      ],
      "name": "MemberAdded",
      "type": "event"
    },
    {
      "anonymous": false,
      "inputs": [
        {
          "indexed": false,
          "internalType": "address",
          "name": "member",
          "type": "address"
        }
      ],
      "name": "MemberRemoved",
      "type": "event"
    },
    {
      "anonymous": false,
      "inputs": [
        {
          "indexed": false,
          "internalType": "bool",
          "name": "onWorks",
          "type": "bool"
        },
        {
          "indexed": false,
          "internalType": "bool",
          "name": "onRewards",
          "type": "bool"
        },
        {
          "indexed": false,
          "internalType": "bool",
          "name": "onMember",
          "type": "bool"
        }
      ],
      "name": "NotificationUpdate",
      "type": "event"
    },
    {
      "anonymous": false,
      "inputs": [
        {
          "indexed": false,
          "internalType": "string",
          "name": "name",
          "type": "string"
        },
        {
          "indexed": false,
          "internalType": "string",
          "name": "description",
          "type": "string"
        },
        {
          "indexed": false,
          "internalType": "uint256",
          "name": "deadline",
          "type": "uint256"
        },
        {
          "indexed": false,
          "internalType": "string",
          "name": "url",
          "type": "string"
        }
      ],
      "name": "ProjectUpdated",
      "type": "event"
    },
    {
      "anonymous": false,
      "inputs": [
        {
          "indexed": true,
          "internalType": "bytes32",
          "name": "role",
          "type": "bytes32"
        },
        {
          "indexed": true,
          "internalType": "bytes32",
          "name": "previousAdminRole",
          "type": "bytes32"
        },
        {
          "indexed": true,
          "internalType": "bytes32",
          "name": "newAdminRole",
          "type": "bytes32"
        }
      ],
      "name": "RoleAdminChanged",
      "type": "event"
    },
    {
      "anonymous": false,
      "inputs": [
        {
          "indexed": true,
          "internalType": "bytes32",
          "name": "role",
          "type": "bytes32"
        },
        {
          "indexed": true,
          "internalType": "address",
          "name": "account",
          "type": "address"
        },
        {
          "indexed": true,
          "internalType": "address",
          "name": "sender",
          "type": "address"
        }
      ],
      "name": "RoleGranted",
      "type": "event"
    },
    {
      "anonymous": false,
      "inputs": [
        {
          "indexed": true,
          "internalType": "bytes32",
          "name": "role",
          "type": "bytes32"
        },
        {
          "indexed": true,
          "internalType": "address",
          "name": "account",
          "type": "address"
        },
        {
          "indexed": true,
          "internalType": "address",
          "name": "sender",
          "type": "address"
        }
      ],
      "name": "RoleRevoked",
      "type": "event"
    },
    {
      "anonymous": false,
      "inputs": [
        {
          "indexed": true,
          "internalType": "address",
          "name": "from",
          "type": "address"
        },
        {
          "indexed": true,
          "internalType": "address",
          "name": "to",
          "type": "address"
        },
        {
          "indexed": true,
          "internalType": "uint256",
          "name": "tokenId",
          "type": "uint256"
        }
      ],
      "name": "Transfer",
      "type": "event"
    },
    {
      "anonymous": false,
      "inputs": [
        {
          "indexed": false,
          "internalType": "string",
          "name": "name",
          "type": "string"
        },
        {
          "indexed": false,
          "internalType": "string",
          "name": "url",
          "type": "string"
        }
      ],
      "name": "WorkAdded",
      "type": "event"
    },
    {
      "anonymous": false,
      "inputs": [
        {
          "indexed": false,
          "internalType": "string",
          "name": "name",
          "type": "string"
        },
        {
          "indexed": false,
          "internalType": "string",
          "name": "url",
          "type": "string"
        }
      ],
      "name": "WorkRemoved",
      "type": "event"
    },
    {
      "inputs": [],
      "name": "ADMIN_ROLE",
      "outputs": [
        {
          "internalType": "bytes32",
          "name": "",
          "type": "bytes32"
        }
      ],
      "stateMutability": "view",
      "type": "function"
    },
    {
      "inputs": [],
      "name": "DEFAULT_ADMIN_ROLE",
      "outputs": [
        {
          "internalType": "bytes32",
          "name": "",
          "type": "bytes32"
        }
      ],
      "stateMutability": "view",
      "type": "function"
    },
    {
      "inputs": [],
      "name": "MEMBER_ROLE",
      "outputs": [
        {
          "internalType": "bytes32",
          "name": "",
          "type": "bytes32"
        }
      ],
      "stateMutability": "view",
      "type": "function"
    },
    {
      "inputs": [
        {
          "internalType": "address",
          "name": "_member",
          "type": "address"
        }
      ],
      "name": "addMember",
      "outputs": [],
      "stateMutability": "nonpayable",
      "type": "function"
    },
    {
      "inputs": [
        {
          "internalType": "string",
          "name": "_name",
          "type": "string"
        },
        {
          "internalType": "string",
          "name": "_url",
          "type": "string"
        }
      ],
      "name": "addWork",
      "outputs": [],
      "stateMutability": "nonpayable",
      "type": "function"
    },
    {
      "inputs": [
        {
          "internalType": "address",
          "name": "to",
          "type": "address"
        },
        {
          "internalType": "uint256",
          "name": "tokenId",
          "type": "uint256"
        }
      ],
      "name": "approve",
      "outputs": [],
      "stateMutability": "nonpayable",
      "type": "function"
    },
    {
      "inputs": [
        {
          "internalType": "address",
          "name": "owner",
          "type": "address"
        }
      ],
      "name": "balanceOf",
      "outputs": [
        {
          "internalType": "uint256",
          "name": "",
          "type": "uint256"
        }
      ],
      "stateMutability": "view",
      "type": "function"
    },
    {
      "inputs": [
        {
          "internalType": "uint256",
          "name": "tokenId",
          "type": "uint256"
        }
      ],
      "name": "getApproved",
      "outputs": [
        {
          "internalType": "address",
          "name": "",
          "type": "address"
        }
      ],
      "stateMutability": "view",
      "type": "function"
    },
    {
      "inputs": [
        {
          "internalType": "bytes32",
          "name": "role",
          "type": "bytes32"
        }
      ],
      "name": "getRoleAdmin",
      "outputs": [
        {
          "internalType": "bytes32",
          "name": "",
          "type": "bytes32"
        }
      ],
      "stateMutability": "view",
      "type": "function"
    },
    {
      "inputs": [
        {
          "internalType": "bytes32",
          "name": "role",
          "type": "bytes32"
        },
        {
          "internalType": "address",
          "name": "account",
          "type": "address"
        }
      ],
      "name": "grantRole",
      "outputs": [],
      "stateMutability": "nonpayable",
      "type": "function"
    },
    {
      "inputs": [
        {
          "internalType": "bytes32",
          "name": "role",
          "type": "bytes32"
        },
        {
          "internalType": "address",
          "name": "account",
          "type": "address"
        }
      ],
      "name": "hasRole",
      "outputs": [
        {
          "internalType": "bool",
          "name": "",
          "type": "bool"
        }
      ],
      "stateMutability": "view",
      "type": "function"
    },
    {
      "inputs": [
        {
          "internalType": "address",
          "name": "owner",
          "type": "address"
        },
        {
          "internalType": "address",
          "name": "operator",
          "type": "address"
        }
      ],
      "name": "isApprovedForAll",
      "outputs": [
        {
          "internalType": "bool",
          "name": "",
          "type": "bool"
        }
      ],
      "stateMutability": "view",
      "type": "function"
    },
    {
      "inputs": [
        {
          "internalType": "address",
          "name": "_member",
          "type": "address"
        }
      ],
      "name": "makeAdmin",
      "outputs": [],
      "stateMutability": "nonpayable",
      "type": "function"
    },
    {
      "inputs": [],
      "name": "name",
      "outputs": [
        {
          "internalType": "string",
          "name": "",
          "type": "string"
        }
      ],
      "stateMutability": "view",
      "type": "function"
    },
    {
      "inputs": [],
      "name": "notificationSettings",
      "outputs": [
        {
          "internalType": "bool",
          "name": "onWorks",
          "type": "bool"
        },
        {
          "internalType": "bool",
          "name": "onRewards",
          "type": "bool"
        },
        {
          "internalType": "bool",
          "name": "onMember",
          "type": "bool"
        }
      ],
      "stateMutability": "view",
      "type": "function"
    },
    {
      "inputs": [
        {
          "internalType": "address",
          "name": "operator",
          "type": "address"
        },
        {
          "internalType": "address",
          "name": "from",
          "type": "address"
        },
        {
          "internalType": "uint256",
          "name": "tokenId",
          "type": "uint256"
        },
        {
          "internalType": "bytes",
          "name": "data",
          "type": "bytes"
        }
      ],
      "name": "onERC721Received",
      "outputs": [
        {
          "internalType": "bytes4",
          "name": "",
          "type": "bytes4"
        }
      ],
      "stateMutability": "nonpayable",
      "type": "function"
    },
    {
      "inputs": [
        {
          "internalType": "uint256",
          "name": "tokenId",
          "type": "uint256"
        }
      ],
      "name": "ownerOf",
      "outputs": [
        {
          "internalType": "address",
          "name": "",
          "type": "address"
        }
      ],
      "stateMutability": "view",
      "type": "function"
    },
    {
      "inputs": [],
      "name": "project",
      "outputs": [
        {
          "internalType": "string",
          "name": "name",
          "type": "string"
        },
        {
          "internalType": "string",
          "name": "description",
          "type": "string"
        },
        {
          "internalType": "uint256",
          "name": "deadline",
          "type": "uint256"
        },
        {
          "internalType": "string",
          "name": "url",
          "type": "string"
        },
        {
          "internalType": "address",
          "name": "pushChannel",
          "type": "address"
        }
      ],
      "stateMutability": "view",
      "type": "function"
    },
    {
      "inputs": [
        {
          "internalType": "address",
          "name": "_member",
          "type": "address"
        },
        {
          "internalType": "uint256",
          "name": "tokenId",
          "type": "uint256"
        }
      ],
      "name": "removeMember",
      "outputs": [],
      "stateMutability": "nonpayable",
      "type": "function"
    },
    {
      "inputs": [
        {
          "internalType": "uint256",
          "name": "_index",
          "type": "uint256"
        }
      ],
      "name": "removeWork",
      "outputs": [],
      "stateMutability": "nonpayable",
      "type": "function"
    },
    {
      "inputs": [
        {
          "internalType": "bytes32",
          "name": "role",
          "type": "bytes32"
        },
        {
          "internalType": "address",
          "name": "callerConfirmation",
          "type": "address"
        }
      ],
      "name": "renounceRole",
      "outputs": [],
      "stateMutability": "nonpayable",
      "type": "function"
    },
    {
      "inputs": [
        {
          "internalType": "bytes32",
          "name": "role",
          "type": "bytes32"
        },
        {
          "internalType": "address",
          "name": "account",
          "type": "address"
        }
      ],
      "name": "revokeRole",
      "outputs": [],
      "stateMutability": "nonpayable",
      "type": "function"
    },
    {
      "inputs": [
        {
          "internalType": "address",
          "name": "from",
          "type": "address"
        },
        {
          "internalType": "address",
          "name": "to",
          "type": "address"
        },
        {
          "internalType": "uint256",
          "name": "tokenId",
          "type": "uint256"
        }
      ],
      "name": "safeTransferFrom",
      "outputs": [],
      "stateMutability": "nonpayable",
      "type": "function"
    },
    {
      "inputs": [
        {
          "internalType": "address",
          "name": "from",
          "type": "address"
        },
        {
          "internalType": "address",
          "name": "to",
          "type": "address"
        },
        {
          "internalType": "uint256",
          "name": "tokenId",
          "type": "uint256"
        },
        {
          "internalType": "bytes",
          "name": "data",
          "type": "bytes"
        }
      ],
      "name": "safeTransferFrom",
      "outputs": [],
      "stateMutability": "nonpayable",
      "type": "function"
    },
    {
      "inputs": [
        {
          "internalType": "address",
          "name": "operator",
          "type": "address"
        },
        {
          "internalType": "bool",
          "name": "approved",
          "type": "bool"
        }
      ],
      "name": "setApprovalForAll",
      "outputs": [],
      "stateMutability": "nonpayable",
      "type": "function"
    },
    {
      "inputs": [
        {
          "internalType": "bytes4",
          "name": "interfaceId",
          "type": "bytes4"
        }
      ],
      "name": "supportsInterface",
      "outputs": [
        {
          "internalType": "bool",
          "name": "",
          "type": "bool"
        }
      ],
      "stateMutability": "view",
      "type": "function"
    },
    {
      "inputs": [],
      "name": "symbol",
      "outputs": [
        {
          "internalType": "string",
          "name": "",
          "type": "string"
        }
      ],
      "stateMutability": "view",
      "type": "function"
    },
    {
      "inputs": [
        {
          "internalType": "uint256",
          "name": "tokenId",
          "type": "uint256"
        }
      ],
      "name": "tokenURI",
      "outputs": [
        {
          "internalType": "string",
          "name": "",
          "type": "string"
        }
      ],
      "stateMutability": "view",
      "type": "function"
    },
    {
      "inputs": [
        {
          "internalType": "address",
          "name": "from",
          "type": "address"
        },
        {
          "internalType": "address",
          "name": "to",
          "type": "address"
        },
        {
          "internalType": "uint256",
          "name": "tokenId",
          "type": "uint256"
        }
      ],
      "name": "transferFrom",
      "outputs": [],
      "stateMutability": "nonpayable",
      "type": "function"
    },
    {
      "inputs": [
        {
          "internalType": "string",
          "name": "_name",
          "type": "string"
        },
        {
          "internalType": "string",
          "name": "_description",
          "type": "string"
        },
        {
          "internalType": "string",
          "name": "_url",
          "type": "string"
        },
        {
          "internalType": "uint256",
          "name": "_deadline",
          "type": "uint256"
        }
      ],
      "name": "updateProject",
      "outputs": [],
      "stateMutability": "nonpayable",
      "type": "function"
    },
    {
      "inputs": [
        {
          "internalType": "address",
          "name": "_pushChannel",
          "type": "address"
        },
        {
          "internalType": "bool",
          "name": "_onWorks",
          "type": "bool"
        },
        {
          "internalType": "bool",
          "name": "_onRewards",
          "type": "bool"
        },
        {
          "internalType": "bool",
          "name": "_onMember",
          "type": "bool"
        }
      ],
      "name": "updatePushChannel",
      "outputs": [],
      "stateMutability": "nonpayable",
      "type": "function"
    },
    {
      "inputs": [
        {
          "internalType": "bool",
          "name": "_onWorks",
          "type": "bool"
        },
        {
          "internalType": "bool",
          "name": "_onRewards",
          "type": "bool"
        },
        {
          "internalType": "bool",
          "name": "_onMember",
          "type": "bool"
        }
      ],
      "name": "updateSetting",
      "outputs": [],
      "stateMutability": "nonpayable",
      "type": "function"
    },
    {
      "inputs": [
        {
          "internalType": "uint256",
          "name": "tokenId",
          "type": "uint256"
        }
      ],
      "name": "uri",
      "outputs": [
        {
          "internalType": "string",
          "name": "",
          "type": "string"
        }
      ],
      "stateMutability": "view",
      "type": "function"
    },
    {
      "inputs": [
        {
          "internalType": "uint256",
          "name": "",
          "type": "uint256"
        }
      ],
      "name": "works",
      "outputs": [
        {
          "internalType": "string",
          "name": "name",
          "type": "string"
        },
        {
          "internalType": "string",
          "name": "url",
          "type": "string"
        },
        {
          "internalType": "bool",
          "name": "active",
          "type": "bool"
        }
      ],
      "stateMutability": "view",
      "type": "function"
    }
  ],
  "bytecode": {
    "object": "0x6080604052600780546001600160a01b03191673b3971bcef2d791bc4027bbfedfb47319a4aaaaaa17905560006008553480156200003c57600080fd5b506040516200376a3803806200376a8339810160408190526200005f91620007c4565b60408051808201909152600381526221ad2760e91b602082015282906001620000898382620008bc565b506002620000988282620008bc565b50600a9150620000ab90508282620008bc565b506009620000ba8382620008bc565b50620000e77fa49807205ce4d355092ef5a8a18f56e8913cf4a201fbe287825b095693c217753262000102565b50620000f5326001620001b1565b5050600160085562000a11565b6000828152602081815260408083206001600160a01b038516845290915281205460ff16620001a7576000838152602081815260408083206001600160a01b03861684529091529020805460ff191660011790556200015e3390565b6001600160a01b0316826001600160a01b0316847f2f8788117e7eff1d82e926ec794901d17c78024a50270940304540a733656f0d60405160405180910390a4506001620001ab565b5060005b92915050565b620001d3828260405180602001604052806000815250620001d760201b60201c565b5050565b620001e38383620001f7565b620001f2600084848462000265565b505050565b6001600160a01b0382166200022757604051633250574960e11b8152600060048201526024015b60405180910390fd5b6000620002368383836200039c565b90506001600160a01b03811615620001f2576040516339e3563760e11b8152600060048201526024016200021e565b6001600160a01b0383163b156200039657604051630a85bd0160e11b81526001600160a01b0384169063150b7a0290620002aa90339088908790879060040162000988565b6020604051808303816000875af1925050508015620002e8575060408051601f3d908101601f19168201909252620002e591810190620009de565b60015b62000356573d80801562000319576040519150601f19603f3d011682016040523d82523d6000602084013e6200031e565b606091505b5080516000036200034e57604051633250574960e11b81526001600160a01b03851660048201526024016200021e565b805181602001fd5b6001600160e01b03198116630a85bd0160e11b146200039457604051633250574960e11b81526001600160a01b03851660048201526024016200021e565b505b50505050565b6000828152600360205260408120546001600160a01b0390811690831615620003cc57620003cc8184866200049b565b6001600160a01b038116156200040c57620003eb600085818062000505565b6001600160a01b038116600090815260046020526040902080546000190190555b6001600160a01b038516156200043c576001600160a01b0385166000908152600460205260409020805460010190555b60008481526003602052604080822080546001600160a01b0319166001600160a01b0389811691821790925591518793918516917fddf252ad1be2c89b69c2b068fc378daa952ba7f163c4a11628f55a4df523b3ef91a4949350505050565b620004a883838362000633565b620001f2576001600160a01b038316620004d957604051637e27328960e01b8152600481018290526024016200021e565b60405163177e802f60e01b81526001600160a01b0383166004820152602481018290526044016200021e565b80806200051a57506001600160a01b03821615155b15620006035760006200052d84620006bc565b90506001600160a01b038316158015906200055a5750826001600160a01b0316816001600160a01b031614155b80156200058d57506001600160a01b0380821660009081526006602090815260408083209387168352929052205460ff16155b15620005b85760405163a9fbf51f60e01b81526001600160a01b03841660048201526024016200021e565b8115620006015783856001600160a01b0316826001600160a01b03167f8c5be1e5ebec7d5bd14f71427d1e84f3dd0314c0f7b2291e5b200ac8c7c3b92560405160405180910390a45b505b5050600090815260056020526040902080546001600160a01b0319166001600160a01b0392909216919091179055565b60006001600160a01b03831615801590620006b45750826001600160a01b0316846001600160a01b031614806200068f57506001600160a01b0380851660009081526006602090815260408083209387168352929052205460ff165b80620006b457506000828152600560205260409020546001600160a01b038481169116145b949350505050565b6000818152600360205260408120546001600160a01b031680620001ab57604051637e27328960e01b8152600481018490526024016200021e565b634e487b7160e01b600052604160045260246000fd5b60005b838110156200072a57818101518382015260200162000710565b50506000910152565b600082601f8301126200074557600080fd5b81516001600160401b0380821115620007625762000762620006f7565b604051601f8301601f19908116603f011681019082821181831017156200078d576200078d620006f7565b81604052838152866020858801011115620007a757600080fd5b620007ba8460208301602089016200070d565b9695505050505050565b60008060408385031215620007d857600080fd5b82516001600160401b0380821115620007f057600080fd5b620007fe8683870162000733565b935060208501519150808211156200081557600080fd5b50620008248582860162000733565b9150509250929050565b600181811c908216806200084357607f821691505b6020821081036200086457634e487b7160e01b600052602260045260246000fd5b50919050565b601f821115620001f257600081815260208120601f850160051c81016020861015620008935750805b601f850160051c820191505b81811015620008b4578281556001016200089f565b505050505050565b81516001600160401b03811115620008d857620008d8620006f7565b620008f081620008e984546200082e565b846200086a565b602080601f8311600181146200092857600084156200090f5750858301515b600019600386901b1c1916600185901b178555620008b4565b600085815260208120601f198616915b82811015620009595788860151825594840194600190910190840162000938565b5085821015620009785787850151600019600388901b60f8161c191681555b5050505050600190811b01905550565b600060018060a01b038087168352808616602084015250836040830152608060608301528251806080840152620009c78160a08501602087016200070d565b601f01601f19169190910160a00195945050505050565b600060208284031215620009f157600080fd5b81516001600160e01b03198116811462000a0a57600080fd5b9392505050565b612d498062000a216000396000f3fe608060405234801561001057600080fd5b50600436106102065760003560e01c806375b238fc1161011a578063b79e34db116100ad578063ca6d56dc1161007c578063ca6d56dc146104c3578063d547741f146104d6578063e985e9c5146104e9578063f0149a47146104fc578063f60ca60d1461050f57600080fd5b8063b79e34db14610468578063b88d4fde1461047b578063c66e1dd51461048e578063c87b56dd146104b057600080fd5b8063a10f469e116100e9578063a10f469e14610425578063a217fddf1461043a578063a22cb46514610442578063a9eb68251461045557600080fd5b806375b238fc146103e257806391d14854146103f757806392457c3c1461040a57806395d89b411461041d57600080fd5b8063248a9ca31161019d57806342842e0e1161016c57806342842e0e14610357578063472905ca1461036a5780636352211e1461037d57806370a082311461039057806371016a4c146103a357600080fd5b8063248a9ca3146102ed5780632f2ff15d1461031e57806336568abe146103315780633937f3fc1461034457600080fd5b80630e89341c116101d95780630e89341c14610288578063150b7a021461029b57806316f6f03e146102c757806323b872dd146102da57600080fd5b806301ffc9a71461020b57806306fdde0314610233578063081812fc14610248578063095ea7b314610273575b600080fd5b61021e610219366004611ffc565b610528565b60405190151581526020015b60405180910390f35b61023b610539565b60405161022a9190612069565b61025b61025636600461207c565b6105cb565b6040516001600160a01b03909116815260200161022a565b6102866102813660046120b1565b6105f4565b005b61023b61029636600461207c565b610603565b6102ae6102a93660046120db565b61065f565b6040516001600160e01b0319909116815260200161022a565b6102866102d53660046120b1565b610711565b6102866102e8366004612176565b610815565b6103106102fb36600461207c565b60009081526020819052604090206001015490565b60405190815260200161022a565b61028661032c3660046121b2565b61089f565b61028661033f3660046121b2565b6108c4565b61028661035236600461228a565b6108f7565b610286610365366004612176565b610a46565b6102866103783660046122ee565b610a61565b61025b61038b36600461207c565b610a91565b61031061039e3660046122ee565b610a9c565b600e546103c39060ff808216916101008104821691620100009091041683565b604080519315158452911515602084015215159082015260600161022a565b610310600080516020612cd483398151915281565b61021e6104053660046121b2565b610ae4565b610286610418366004612309565b610b0d565b61023b610b96565b610310600080516020612cf483398151915281565b610310600081565b6102866104503660046123a9565b610ba5565b6102866104633660046123d3565b610bb0565b610286610476366004612427565b610c7a565b61028661048936600461246a565b610d12565b6104a161049c36600461207c565b610d29565b60405161022a939291906124e6565b61023b6104be36600461207c565b610e76565b6102866104d13660046122ee565b610edb565b6102866104e43660046121b2565b611003565b61021e6104f736600461251e565b611028565b61028661050a36600461207c565b611056565b6105176111de565b60405161022a959493929190612548565b6000610533826113a1565b92915050565b606060018054610548906125a2565b80601f0160208091040260200160405190810160405280929190818152602001828054610574906125a2565b80156105c15780601f10610596576101008083540402835291602001916105c1565b820191906000526020600020905b8154815290600101906020018083116105a457829003601f168201915b5050505050905090565b60006105d6826113e1565b506000828152600560205260409020546001600160a01b0316610533565b6105ff82823361141a565b5050565b606060006040518060400160405280601581526020017468747470733a2f2f697066732e696f2f697066732f60581b81525090508060405160200161064891906125dc565b604051602081830303815290604052915050919050565b600d546000906001600160a01b0316158015906106835750600e54610100900460ff165b156106ff57600061069385611427565b61069c876114ba565b6106a5896114ba565b6106ae88610e76565b6040516020016106c194939291906125f8565b60408051601f19818403018152828201909152601082526f13995dc813919508149958d95a5d995960821b602083015291506106fd90826114d0565b505b50630a85bd0160e11b95945050505050565b600080516020612cd48339815191526107298161155a565b610741600080516020612cf483398151915284611003565b61074c601084611567565b506107568261157c565b6040516001600160a01b03841681527f6e76fb4c77256006d9c38ec7d82b45a8c8f3c27b1d6766fffc42dfb8de6844929060200160405180910390a1600d546001600160a01b0316158015906107b45750600e5462010000900460ff165b156108105760006107c4846114ba565b6040516020016107d491906126ce565b60408051601f19818403018152828201909152600e82526d13595b58995c8814995b5bdd995960921b6020830152915061080e90826114d0565b505b505050565b6001600160a01b03821661084457604051633250574960e11b8152600060048201526024015b60405180910390fd5b60006108518383336115b7565b9050836001600160a01b0316816001600160a01b03161461080e576040516364283d7b60e01b81526001600160a01b038086166004830152602482018490528216604482015260640161083b565b6000828152602081905260409020600101546108ba8161155a565b61080e83836116b0565b6001600160a01b03811633146108ed5760405163334bd91960e11b815260040160405180910390fd5b6108108282611742565b600080516020612cf483398151915261090f8161155a565b60408051606081018252848152602081018490526001918101829052600f80549283018155600052805190916003027f8d1108e10bcb7c27dddfc02ed9d693a074039d026cf4ea4240b40f7d581ac8020190819061096d908261275f565b5060208201516001820190610982908261275f565b50604091820151600291909101805460ff1916911515919091179055517f2589319c1d7efb5feedada90ed1831c6ded4f45482c2cfd7d0ce748b2c353c05906109ce908590859061281f565b60405180910390a1600d546001600160a01b0316158015906109f25750600e5460ff165b156108105760008383604051602001610a0c92919061284d565b60408051601f19818403018152828201909152600e82526d13995dc815dbdc9ac8105919195960921b6020830152915061080e90826114d0565b61081083838360405180602001604052806000815250610d12565b600080516020612cd4833981519152610a798161155a565b610810600080516020612cd4833981519152836116b0565b6000610533826113e1565b60006001600160a01b038216610ac8576040516322718ad960e21b81526000600482015260240161083b565b506001600160a01b031660009081526004602052604090205490565b6000918252602082815260408084206001600160a01b0393909316845291905290205460ff1690565b600080516020612cd4833981519152610b258161155a565b6009610b31868261275f565b50600a610b3e858261275f565b50600c610b4b848261275f565b50600b8290556040517f245c596a4d13f2b8b6ec1d79083f99c322a820bea554a7f2b1c0b8ce920179c290610b879087908790869088906128b9565b60405180910390a15050505050565b606060028054610548906125a2565b6105ff3383836117ad565b600080516020612cd4833981519152610bc88161155a565b600d80546001600160a01b0319166001600160a01b038716908117909155600e805461ffff191686151561ff00191617610100861515021762ff00001916620100008515150217905515610c73576000610c21866114ba565b604051602001610c319190612903565b60408051601f19818403018152828201909152601482527313995dc8141d5cda0810da185b9b995b0814d95d60621b60208301529150610c7190826114d0565b505b5050505050565b600080516020612cd4833981519152610c928161155a565b600e805483151562010000810262ff000019871515610100810261ff00198b151590811661ffff19909716969096171791909116919091179093556040805192835260208301939093528183015290517f0b7cff6357f0aac7b49a493d2e9107d53cfa6a69cbd9171c082c771d553d765a9181900360600190a150505050565b610d1d848484610815565b61080e8484848461184c565b600f8181548110610d3957600080fd5b9060005260206000209060030201600091509050806000018054610d5c906125a2565b80601f0160208091040260200160405190810160405280929190818152602001828054610d88906125a2565b8015610dd55780601f10610daa57610100808354040283529160200191610dd5565b820191906000526020600020905b815481529060010190602001808311610db857829003601f168201915b505050505090806001018054610dea906125a2565b80601f0160208091040260200160405190810160405280929190818152602001828054610e16906125a2565b8015610e635780601f10610e3857610100808354040283529160200191610e63565b820191906000526020600020905b815481529060010190602001808311610e4657829003601f168201915b5050506002909301549192505060ff1683565b6060610e81826113e1565b506000610e9960408051602081019091526000815290565b90506000815111610eb95760405180602001604052806000815250610ed4565b80610ec384611427565b604051602001610648929190612960565b9392505050565b600080516020612cd4833981519152610ef38161155a565b60088054906000610f03836129a5565b9190505550610f148260085461196e565b610f2c600080516020612cf4833981519152836116b0565b50610f38601083611988565b50600d546001600160a01b031615801590610f5b5750600e5462010000900460ff165b15610fb9576000610f6b836114ba565b604051602001610f7b91906129be565b60408051601f19818403018152828201909152601082526f13995dc813595b58995c88105919195960821b60208301529150610fb790826114d0565b505b600854604080516001600160a01b038516815260208101929092527fede8eed4383e9241982619b94dd83e488b274cced0fd07b8c0092a393defd52f910160405180910390a15050565b60008281526020819052604090206001015461101e8161155a565b61080e8383611742565b6001600160a01b03918216600090815260066020908152604080832093909416825291909152205460ff1690565b600080516020612cf483398151915261106e8161155a565b6000600f838154811061108357611083612a0b565b906000526020600020906003020160020160006101000a81548160ff0219169083151502179055507f69de874c8fdceb02f381721ed8ea324c131eb3849f6e3d5eff2e53ea16dd43be600f83815481106110df576110df612a0b565b9060005260206000209060030201600001600f848154811061110357611103612a0b565b9060005260206000209060030201600101604051611122929190612a9e565b60405180910390a1600d546001600160a01b0316158015906111465750600e5460ff165b156105ff576000600f838154811061116057611160612a0b565b9060005260206000209060030201600001600f848154811061118457611184612a0b565b90600052602060002090600302016001016040516020016111a6929190612b36565b60408051601f19818403018152828201909152600c82526b15dbdc9ac814995b5bdd995960a21b6020830152915061081090826114d0565b6009805481906111ed906125a2565b80601f0160208091040260200160405190810160405280929190818152602001828054611219906125a2565b80156112665780601f1061123b57610100808354040283529160200191611266565b820191906000526020600020905b81548152906001019060200180831161124957829003601f168201915b50505050509080600101805461127b906125a2565b80601f01602080910402602001604051908101604052809291908181526020018280546112a7906125a2565b80156112f45780601f106112c9576101008083540402835291602001916112f4565b820191906000526020600020905b8154815290600101906020018083116112d757829003601f168201915b50505050509080600201549080600301805461130f906125a2565b80601f016020809104026020016040519081016040528092919081815260200182805461133b906125a2565b80156113885780601f1061135d57610100808354040283529160200191611388565b820191906000526020600020905b81548152906001019060200180831161136b57829003601f168201915b505050600490930154919250506001600160a01b031685565b60006001600160e01b031982166380ac58cd60e01b14806113d257506001600160e01b03198216635b5e139f60e01b145b8061053357506105338261199d565b6000818152600360205260408120546001600160a01b03168061053357604051637e27328960e01b81526004810184905260240161083b565b61081083838360016119d2565b6060600061143483611ad8565b600101905060008167ffffffffffffffff811115611454576114546121de565b6040519080825280601f01601f19166020018201604052801561147e576020820181803683370190505b5090508181016020015b600019016f181899199a1a9b1b9c1cb0b131b232b360811b600a86061a8153600a850494508461148857509392505050565b60606105336001600160a01b0383166014611bb0565b600754600d546040516001600160a01b039283169263ba3d69d792169030906114ff9087908790602001612b80565b6040516020818303038152906040526040518463ffffffff1660e01b815260040161152c93929190612be3565b600060405180830381600087803b15801561154657600080fd5b505af1158015610c71573d6000803e3d6000fd5b6115648133611d30565b50565b6000610ed4836001600160a01b038416611d69565b600061158b60008360006115b7565b90506001600160a01b0381166105ff57604051637e27328960e01b81526004810183905260240161083b565b6000828152600360205260408120546001600160a01b03908116908316156115e4576115e4818486611e5c565b6001600160a01b03811615611622576116016000856000806119d2565b6001600160a01b038116600090815260046020526040902080546000190190555b6001600160a01b03851615611651576001600160a01b0385166000908152600460205260409020805460010190555b60008481526003602052604080822080546001600160a01b0319166001600160a01b0389811691821790925591518793918516917fddf252ad1be2c89b69c2b068fc378daa952ba7f163c4a11628f55a4df523b3ef91a4949350505050565b60006116bc8383610ae4565b61173a576000838152602081815260408083206001600160a01b03861684529091529020805460ff191660011790556116f23390565b6001600160a01b0316826001600160a01b0316847f2f8788117e7eff1d82e926ec794901d17c78024a50270940304540a733656f0d60405160405180910390a4506001610533565b506000610533565b600061174e8383610ae4565b1561173a576000838152602081815260408083206001600160a01b0386168085529252808320805460ff1916905551339286917ff6391f5c32d9c69d2a47ea670b442974b53935d1edc7fd64eb21e047a839171b9190a4506001610533565b6001600160a01b0382166117df57604051630b61174360e31b81526001600160a01b038316600482015260240161083b565b6001600160a01b03838116600081815260066020908152604080832094871680845294825291829020805460ff191686151590811790915591519182527f17307eab39ab6107e8899845ad3d59bd9653f200f220920489ca2b5937696c31910160405180910390a3505050565b6001600160a01b0383163b1561080e57604051630a85bd0160e11b81526001600160a01b0384169063150b7a029061188e903390889087908790600401612c0f565b6020604051808303816000875af19250505080156118c9575060408051601f3d908101601f191682019092526118c691810190612c4c565b60015b611932573d8080156118f7576040519150601f19603f3d011682016040523d82523d6000602084013e6118fc565b606091505b50805160000361192a57604051633250574960e11b81526001600160a01b038516600482015260240161083b565b805181602001fd5b6001600160e01b03198116630a85bd0160e11b14610c7357604051633250574960e11b81526001600160a01b038516600482015260240161083b565b6105ff828260405180602001604052806000815250611ec0565b6000610ed4836001600160a01b038416611ed7565b60006001600160e01b03198216637965db0b60e01b148061053357506301ffc9a760e01b6001600160e01b0319831614610533565b80806119e657506001600160a01b03821615155b15611aa85760006119f6846113e1565b90506001600160a01b03831615801590611a225750826001600160a01b0316816001600160a01b031614155b8015611a355750611a338184611028565b155b15611a5e5760405163a9fbf51f60e01b81526001600160a01b038416600482015260240161083b565b8115611aa65783856001600160a01b0316826001600160a01b03167f8c5be1e5ebec7d5bd14f71427d1e84f3dd0314c0f7b2291e5b200ac8c7c3b92560405160405180910390a45b505b5050600090815260056020526040902080546001600160a01b0319166001600160a01b0392909216919091179055565b60008072184f03e93ff9f4daa797ed6e38ed64bf6a1f0160401b8310611b175772184f03e93ff9f4daa797ed6e38ed64bf6a1f0160401b830492506040015b6d04ee2d6d415b85acef81000000008310611b43576d04ee2d6d415b85acef8100000000830492506020015b662386f26fc100008310611b6157662386f26fc10000830492506010015b6305f5e1008310611b79576305f5e100830492506008015b6127108310611b8d57612710830492506004015b60648310611b9f576064830492506002015b600a83106105335760010192915050565b6060826000611bc0846002612c69565b611bcb906002612c80565b67ffffffffffffffff811115611be357611be36121de565b6040519080825280601f01601f191660200182016040528015611c0d576020820181803683370190505b509050600360fc1b81600081518110611c2857611c28612a0b565b60200101906001600160f81b031916908160001a905350600f60fb1b81600181518110611c5757611c57612a0b565b60200101906001600160f81b031916908160001a9053506000611c7b856002612c69565b611c86906001612c80565b90505b6001811115611cfe576f181899199a1a9b1b9c1cb0b131b232b360811b83600f1660108110611cba57611cba612a0b565b1a60f81b828281518110611cd057611cd0612a0b565b60200101906001600160f81b031916908160001a90535060049290921c91611cf781612c93565b9050611c89565b508115611d285760405163e22e27eb60e01b8152600481018690526024810185905260440161083b565b949350505050565b611d3a8282610ae4565b6105ff5760405163e2517d3f60e01b81526001600160a01b03821660048201526024810183905260440161083b565b60008181526001830160205260408120548015611e52576000611d8d600183612caa565b8554909150600090611da190600190612caa565b9050808214611e06576000866000018281548110611dc157611dc1612a0b565b9060005260206000200154905080876000018481548110611de457611de4612a0b565b6000918252602080832090910192909255918252600188019052604090208390555b8554869080611e1757611e17612cbd565b600190038181906000526020600020016000905590558560010160008681526020019081526020016000206000905560019350505050610533565b6000915050610533565b611e67838383611f1e565b610810576001600160a01b038316611e9557604051637e27328960e01b81526004810182905260240161083b565b60405163177e802f60e01b81526001600160a01b03831660048201526024810182905260440161083b565b611eca8383611f81565b610810600084848461184c565b600081815260018301602052604081205461173a57508154600181810184556000848152602080822090930184905584548482528286019093526040902091909155610533565b60006001600160a01b03831615801590611d285750826001600160a01b0316846001600160a01b03161480611f585750611f588484611028565b80611d285750506000908152600560205260409020546001600160a01b03908116911614919050565b6001600160a01b038216611fab57604051633250574960e11b81526000600482015260240161083b565b6000611fb9838360006115b7565b90506001600160a01b03811615610810576040516339e3563760e11b81526000600482015260240161083b565b6001600160e01b03198116811461156457600080fd5b60006020828403121561200e57600080fd5b8135610ed481611fe6565b60005b8381101561203457818101518382015260200161201c565b50506000910152565b60008151808452612055816020860160208601612019565b601f01601f19169290920160200192915050565b602081526000610ed4602083018461203d565b60006020828403121561208e57600080fd5b5035919050565b80356001600160a01b03811681146120ac57600080fd5b919050565b600080604083850312156120c457600080fd5b6120cd83612095565b946020939093013593505050565b6000806000806000608086880312156120f357600080fd5b6120fc86612095565b945061210a60208701612095565b935060408601359250606086013567ffffffffffffffff8082111561212e57600080fd5b818801915088601f83011261214257600080fd5b81358181111561215157600080fd5b89602082850101111561216357600080fd5b9699959850939650602001949392505050565b60008060006060848603121561218b57600080fd5b61219484612095565b92506121a260208501612095565b9150604084013590509250925092565b600080604083850312156121c557600080fd5b823591506121d560208401612095565b90509250929050565b634e487b7160e01b600052604160045260246000fd5b600067ffffffffffffffff8084111561220f5761220f6121de565b604051601f8501601f19908116603f01168101908282118183101715612237576122376121de565b8160405280935085815286868601111561225057600080fd5b858560208301376000602087830101525050509392505050565b600082601f83011261227b57600080fd5b610ed4838335602085016121f4565b6000806040838503121561229d57600080fd5b823567ffffffffffffffff808211156122b557600080fd5b6122c18683870161226a565b935060208501359150808211156122d757600080fd5b506122e48582860161226a565b9150509250929050565b60006020828403121561230057600080fd5b610ed482612095565b6000806000806080858703121561231f57600080fd5b843567ffffffffffffffff8082111561233757600080fd5b6123438883890161226a565b9550602087013591508082111561235957600080fd5b6123658883890161226a565b9450604087013591508082111561237b57600080fd5b506123888782880161226a565b949793965093946060013593505050565b803580151581146120ac57600080fd5b600080604083850312156123bc57600080fd5b6123c583612095565b91506121d560208401612399565b600080600080608085870312156123e957600080fd5b6123f285612095565b935061240060208601612399565b925061240e60408601612399565b915061241c60608601612399565b905092959194509250565b60008060006060848603121561243c57600080fd5b61244584612399565b925061245360208501612399565b915061246160408501612399565b90509250925092565b6000806000806080858703121561248057600080fd5b61248985612095565b935061249760208601612095565b925060408501359150606085013567ffffffffffffffff8111156124ba57600080fd5b8501601f810187136124cb57600080fd5b6124da878235602084016121f4565b91505092959194509250565b6060815260006124f9606083018661203d565b828103602084015261250b818661203d565b9150508215156040830152949350505050565b6000806040838503121561253157600080fd5b61253a83612095565b91506121d560208401612095565b60a08152600061255b60a083018861203d565b828103602084015261256d818861203d565b90508560408401528281036060840152612587818661203d565b91505060018060a01b03831660808301529695505050505050565b600181811c908216806125b657607f821691505b6020821081036125d657634e487b7160e01b600052602260045260246000fd5b50919050565b600082516125ee818460208701612019565b9190910192915050565b7f596f752072656365697665642074686520666f6c6c6f77696e67204e46543a0a81526902a37b5b2b71024a21d160b51b60208201526000855161264381602a850160208a01612019565b655233937b69d160cd1b602a918401918201528551612669816031840160208a01612019565b69527b832b930ba37b91d160ad1b60319290910191820152845161269481603c840160208901612019565b6a52a37b5b2b7102aa9249d160a51b603c929091019182015283516126c0816048840160208801612019565b016048019695505050505050565b6f26b2b6b132b9103932b6b7bb32b21d0560811b815268020b2323932b9b99d160bd1b6010820152815160009061270c816019850160208701612019565b9190910160190192915050565b601f82111561081057600081815260208120601f850160051c810160208610156127405750805b601f850160051c820191505b81811015610c715782815560010161274c565b815167ffffffffffffffff811115612779576127796121de565b61278d8161278784546125a2565b84612719565b602080601f8311600181146127c257600084156127aa5750858301515b600019600386901b1c1916600185901b178555610c71565b600085815260208120601f198616915b828110156127f1578886015182559484019460019091019084016127d2565b508582101561280f5787850151600019600388901b60f8161c191681555b5050505050600190811b01905550565b604081526000612832604083018561203d565b8281036020840152612844818561203d565b95945050505050565b6f2732bb903bb7b9359030b23232b21d0560811b81526502730b6b29d160d51b60108201528251600090612888816016850160208801612019565b6452aa9261d160d51b60169184019182015283516128ad81601c840160208801612019565b01601c01949350505050565b6080815260006128cc608083018761203d565b82810360208401526128de818761203d565b905084604084015282810360608401526128f8818561203d565b979650505050505050565b7f53657475702073756363657366756c6c6c7920637265617465642066726f6d2081526e3a34329031b7b73a3930b1ba10900560891b60208201526000825161295381602f850160208701612019565b91909101602f0192915050565b60008351612972818460208801612019565b835190830190612986818360208801612019565b01949350505050565b634e487b7160e01b600052601160045260246000fd5b6000600182016129b7576129b761298f565b5060010190565b712732bb9036b2b6b132b91030b23232b21d0560711b815268020b2323932b9b99d160bd1b601282015281516000906129fe81601b850160208701612019565b91909101601b0192915050565b634e487b7160e01b600052603260045260246000fd5b60008154612a2e816125a2565b808552602060018381168015612a4b5760018114612a6557612a93565b60ff1985168884015283151560051b880183019550612a93565b866000528260002060005b85811015612a8b5781548a8201860152908301908401612a70565b890184019650505b505050505092915050565b604081526000612ab16040830185612a21565b82810360208401526128448185612a21565b60008154612ad0816125a2565b60018281168015612ae85760018114612afd57612b2c565b60ff1984168752821515830287019450612b2c565b8560005260208060002060005b85811015612b235781548a820152908401908201612b0a565b50505082870194505b5050505092915050565b6d2bb7b935903932b6b7bb32b21d0560911b81526502730b6b29d160d51b600e8201526000612b686014830185612ac3565b6452aa9261d160d51b81526128446006820185612ac3565b600360fc1b81526000602b60f81b806001840152603160f81b60028401528060038401528451612bb7816004860160208901612019565b808401905081600482015284519150612bd7826005830160208801612019565b01600501949350505050565b6001600160a01b038481168252831660208201526060604082018190526000906128449083018461203d565b6001600160a01b0385811682528416602082015260408101839052608060608201819052600090612c429083018461203d565b9695505050505050565b600060208284031215612c5e57600080fd5b8151610ed481611fe6565b80820281158282048414176105335761053361298f565b808201808211156105335761053361298f565b600081612ca257612ca261298f565b506000190190565b818103818111156105335761053361298f565b634e487b7160e01b600052603160045260246000fdfea49807205ce4d355092ef5a8a18f56e8913cf4a201fbe287825b095693c21775829b824e2329e205435d941c9f13baf578548505283d29261236d8e6596d4636a2646970667358221220a43d2b59d349ee137a1a58f19ccb5d57a999abb3a309bdc52c74361713a3bb6364736f6c63430008150033",
    "linkReferences": {}
  },
  "methodIdentifiers": {
    "ADMIN_ROLE()": "75b238fc",
    "DEFAULT_ADMIN_ROLE()": "a217fddf",
    "MEMBER_ROLE()": "a10f469e",
    "addMember(address)": "ca6d56dc",
    "addWork(string,string)": "3937f3fc",
    "approve(address,uint256)": "095ea7b3",
    "balanceOf(address)": "70a08231",
    "getApproved(uint256)": "081812fc",
    "getRoleAdmin(bytes32)": "248a9ca3",
    "grantRole(bytes32,address)": "2f2ff15d",
    "hasRole(bytes32,address)": "91d14854",
    "isApprovedForAll(address,address)": "e985e9c5",
    "makeAdmin(address)": "472905ca",
    "name()": "06fdde03",
    "notificationSettings()": "71016a4c",
    "onERC721Received(address,address,uint256,bytes)": "150b7a02",
    "ownerOf(uint256)": "6352211e",
    "project()": "f60ca60d",
    "removeMember(address,uint256)": "16f6f03e",
    "removeWork(uint256)": "f0149a47",
    "renounceRole(bytes32,address)": "36568abe",
    "revokeRole(bytes32,address)": "d547741f",
    "safeTransferFrom(address,address,uint256)": "42842e0e",
    "safeTransferFrom(address,address,uint256,bytes)": "b88d4fde",
    "setApprovalForAll(address,bool)": "a22cb465",
    "supportsInterface(bytes4)": "01ffc9a7",
    "symbol()": "95d89b41",
    "tokenURI(uint256)": "c87b56dd",
    "transferFrom(address,address,uint256)": "23b872dd",
    "updateProject(string,string,string,uint256)": "92457c3c",
    "updatePushChannel(address,bool,bool,bool)": "a9eb6825",
    "updateSetting(bool,bool,bool)": "b79e34db",
    "uri(uint256)": "0e89341c",
    "works(uint256)": "c66e1dd5"
  },
  "id": 31
}