{
  "abi": [
    {
      "inputs": [],
      "stateMutability": "nonpayable",
      "type": "constructor"
    },
    {
      "inputs": [],
      "name": "AccessControlBadConfirmation",
      "type": "error"
    },
    {
      "inputs": [
        {
          "internalType": "address",
          "name": "account",
          "type": "address"
        },
        {
          "internalType": "bytes32",
          "name": "neededRole",
          "type": "bytes32"
        }
      ],
      "name": "AccessControlUnauthorizedAccount",
      "type": "error"
    },
    {
      "anonymous": false,
      "inputs": [
        {
          "indexed": false,
          "internalType": "address",
          "name": "member",
          "type": "address"
        }
      ],
      "name": "MemberAdded",
      "type": "event"
    },
    {
      "anonymous": false,
      "inputs": [
        {
          "indexed": false,
          "internalType": "address",
          "name": "member",
          "type": "address"
        }
      ],
      "name": "MemberRemoved",
      "type": "event"
    },
    {
      "anonymous": false,
      "inputs": [
        {
          "indexed": false,
          "internalType": "string",
          "name": "description",
          "type": "string"
        },
        {
          "indexed": false,
          "internalType": "uint256",
          "name": "deadline",
          "type": "uint256"
        },
        {
          "indexed": false,
          "internalType": "uint256",
          "name": "paymentAmount",
          "type": "uint256"
        }
      ],
      "name": "MilestoneAdded",
      "type": "event"
    },
    {
      "anonymous": false,
      "inputs": [
        {
          "indexed": false,
          "internalType": "uint256",
          "name": "milestoneIndex",
          "type": "uint256"
        }
      ],
      "name": "MilestoneCompleted",
      "type": "event"
    },
    {
      "anonymous": false,
      "inputs": [
        {
          "indexed": false,
          "internalType": "string",
          "name": "name",
          "type": "string"
        },
        {
          "indexed": false,
          "internalType": "string",
          "name": "description",
          "type": "string"
        },
        {
          "indexed": false,
          "internalType": "uint256",
          "name": "deadline",
          "type": "uint256"
        },
        {
          "indexed": false,
          "internalType": "string",
          "name": "url",
          "type": "string"
        }
      ],
      "name": "ProjectUpdated",
      "type": "event"
    },
    {
      "anonymous": false,
      "inputs": [
        {
          "indexed": true,
          "internalType": "bytes32",
          "name": "role",
          "type": "bytes32"
        },
        {
          "indexed": true,
          "internalType": "bytes32",
          "name": "previousAdminRole",
          "type": "bytes32"
        },
        {
          "indexed": true,
          "internalType": "bytes32",
          "name": "newAdminRole",
          "type": "bytes32"
        }
      ],
      "name": "RoleAdminChanged",
      "type": "event"
    },
    {
      "anonymous": false,
      "inputs": [
        {
          "indexed": true,
          "internalType": "bytes32",
          "name": "role",
          "type": "bytes32"
        },
        {
          "indexed": true,
          "internalType": "address",
          "name": "account",
          "type": "address"
        },
        {
          "indexed": true,
          "internalType": "address",
          "name": "sender",
          "type": "address"
        }
      ],
      "name": "RoleGranted",
      "type": "event"
    },
    {
      "anonymous": false,
      "inputs": [
        {
          "indexed": true,
          "internalType": "bytes32",
          "name": "role",
          "type": "bytes32"
        },
        {
          "indexed": true,
          "internalType": "address",
          "name": "account",
          "type": "address"
        },
        {
          "indexed": true,
          "internalType": "address",
          "name": "sender",
          "type": "address"
        }
      ],
      "name": "RoleRevoked",
      "type": "event"
    },
    {
      "anonymous": false,
      "inputs": [
        {
          "indexed": false,
          "internalType": "uint256",
          "name": "milestoneIndex",
          "type": "uint256"
        },
        {
          "indexed": false,
          "internalType": "string",
          "name": "description",
          "type": "string"
        }
      ],
      "name": "WorkAdded",
      "type": "event"
    },
    {
      "inputs": [],
      "name": "ADMIN_ROLE",
      "outputs": [
        {
          "internalType": "bytes32",
          "name": "",
          "type": "bytes32"
        }
      ],
      "stateMutability": "view",
      "type": "function"
    },
    {
      "inputs": [],
      "name": "DEFAULT_ADMIN_ROLE",
      "outputs": [
        {
          "internalType": "bytes32",
          "name": "",
          "type": "bytes32"
        }
      ],
      "stateMutability": "view",
      "type": "function"
    },
    {
      "inputs": [],
      "name": "MEMBER_ROLE",
      "outputs": [
        {
          "internalType": "bytes32",
          "name": "",
          "type": "bytes32"
        }
      ],
      "stateMutability": "view",
      "type": "function"
    },
    {
      "inputs": [
        {
          "internalType": "address",
          "name": "_member",
          "type": "address"
        }
      ],
      "name": "addMember",
      "outputs": [],
      "stateMutability": "nonpayable",
      "type": "function"
    },
    {
      "inputs": [
        {
          "internalType": "string",
          "name": "_description",
          "type": "string"
        },
        {
          "internalType": "uint256",
          "name": "_deadline",
          "type": "uint256"
        }
      ],
      "name": "addMilestone",
      "outputs": [],
      "stateMutability": "nonpayable",
      "type": "function"
    },
    {
      "inputs": [
        {
          "internalType": "uint256",
          "name": "_milestoneIndex",
          "type": "uint256"
        },
        {
          "internalType": "string",
          "name": "_description",
          "type": "string"
        }
      ],
      "name": "addWork",
      "outputs": [],
      "stateMutability": "nonpayable",
      "type": "function"
    },
    {
      "inputs": [
        {
          "internalType": "uint256",
          "name": "_milestoneIndex",
          "type": "uint256"
        }
      ],
      "name": "completeMilestone",
      "outputs": [],
      "stateMutability": "nonpayable",
      "type": "function"
    },
    {
      "inputs": [
        {
          "internalType": "bytes32",
          "name": "role",
          "type": "bytes32"
        }
      ],
      "name": "getRoleAdmin",
      "outputs": [
        {
          "internalType": "bytes32",
          "name": "",
          "type": "bytes32"
        }
      ],
      "stateMutability": "view",
      "type": "function"
    },
    {
      "inputs": [
        {
          "internalType": "bytes32",
          "name": "role",
          "type": "bytes32"
        },
        {
          "internalType": "address",
          "name": "account",
          "type": "address"
        }
      ],
      "name": "grantRole",
      "outputs": [],
      "stateMutability": "nonpayable",
      "type": "function"
    },
    {
      "inputs": [
        {
          "internalType": "bytes32",
          "name": "role",
          "type": "bytes32"
        },
        {
          "internalType": "address",
          "name": "account",
          "type": "address"
        }
      ],
      "name": "hasRole",
      "outputs": [
        {
          "internalType": "bool",
          "name": "",
          "type": "bool"
        }
      ],
      "stateMutability": "view",
      "type": "function"
    },
    {
      "inputs": [
        {
          "internalType": "uint256",
          "name": "",
          "type": "uint256"
        }
      ],
      "name": "milestones",
      "outputs": [
        {
          "internalType": "string",
          "name": "description",
          "type": "string"
        },
        {
          "internalType": "uint256",
          "name": "deadline",
          "type": "uint256"
        },
        {
          "internalType": "bool",
          "name": "completed",
          "type": "bool"
        },
        {
          "internalType": "address",
          "name": "submitter",
          "type": "address"
        },
        {
          "internalType": "uint256",
          "name": "approvalVotes",
          "type": "uint256"
        }
      ],
      "stateMutability": "view",
      "type": "function"
    },
    {
      "inputs": [],
      "name": "project",
      "outputs": [
        {
          "internalType": "string",
          "name": "name",
          "type": "string"
        },
        {
          "internalType": "string",
          "name": "description",
          "type": "string"
        },
        {
          "internalType": "uint256",
          "name": "deadline",
          "type": "uint256"
        },
        {
          "internalType": "string",
          "name": "url",
          "type": "string"
        }
      ],
      "stateMutability": "view",
      "type": "function"
    },
    {
      "inputs": [
        {
          "internalType": "address",
          "name": "_member",
          "type": "address"
        }
      ],
      "name": "removeMember",
      "outputs": [],
      "stateMutability": "nonpayable",
      "type": "function"
    },
    {
      "inputs": [
        {
          "internalType": "bytes32",
          "name": "role",
          "type": "bytes32"
        },
        {
          "internalType": "address",
          "name": "callerConfirmation",
          "type": "address"
        }
      ],
      "name": "renounceRole",
      "outputs": [],
      "stateMutability": "nonpayable",
      "type": "function"
    },
    {
      "inputs": [
        {
          "internalType": "bytes32",
          "name": "role",
          "type": "bytes32"
        },
        {
          "internalType": "address",
          "name": "account",
          "type": "address"
        }
      ],
      "name": "revokeRole",
      "outputs": [],
      "stateMutability": "nonpayable",
      "type": "function"
    },
    {
      "inputs": [
        {
          "internalType": "bytes4",
          "name": "interfaceId",
          "type": "bytes4"
        }
      ],
      "name": "supportsInterface",
      "outputs": [
        {
          "internalType": "bool",
          "name": "",
          "type": "bool"
        }
      ],
      "stateMutability": "view",
      "type": "function"
    },
    {
      "inputs": [
        {
          "internalType": "string",
          "name": "_name",
          "type": "string"
        },
        {
          "internalType": "string",
          "name": "_description",
          "type": "string"
        },
        {
          "internalType": "string",
          "name": "_url",
          "type": "string"
        },
        {
          "internalType": "uint256",
          "name": "_deadline",
          "type": "uint256"
        }
      ],
      "name": "updateProject",
      "outputs": [],
      "stateMutability": "nonpayable",
      "type": "function"
    },
    {
      "inputs": [
        {
          "internalType": "uint256",
          "name": "",
          "type": "uint256"
        }
      ],
      "name": "works",
      "outputs": [
        {
          "internalType": "uint256",
          "name": "milestoneIndex",
          "type": "uint256"
        },
        {
          "internalType": "string",
          "name": "description",
          "type": "string"
        },
        {
          "internalType": "address",
          "name": "assignee",
          "type": "address"
        },
        {
          "internalType": "enum ProjectContract.WorkStatus",
          "name": "status",
          "type": "uint8"
        }
      ],
      "stateMutability": "view",
      "type": "function"
    }
  ],
  "bytecode": {
    "object": "0x608060405234801561001057600080fd5b5061003b7fa49807205ce4d355092ef5a8a18f56e8913cf4a201fbe287825b095693c2177532610041565b506100ed565b6000828152602081815260408083206001600160a01b038516845290915281205460ff166100e3576000838152602081815260408083206001600160a01b03861684529091529020805460ff1916600117905561009b3390565b6001600160a01b0316826001600160a01b0316847f2f8788117e7eff1d82e926ec794901d17c78024a50270940304540a733656f0d60405160405180910390a45060016100e7565b5060005b92915050565b6114d2806100fc6000396000f3fe608060405234801561001057600080fd5b50600436106101165760003560e01c806391d14854116100a2578063c66e1dd511610071578063c66e1dd514610240578063ca6d56dc14610263578063d547741f14610276578063e89e4ed614610289578063f60ca60d146102ad57600080fd5b806391d14854146101fd57806392457c3c14610210578063a10f469e14610223578063a217fddf1461023857600080fd5b806336568abe116100e957806336568abe1461019c57806375b238fc146101af578063842b4ebc146101c457806384b62c28146101d7578063852ea203146101ea57600080fd5b806301ffc9a71461011b5780630b1ca49a14610143578063248a9ca3146101585780632f2ff15d14610189575b600080fd5b61012e610129366004610ec4565b6102c5565b60405190151581526020015b60405180910390f35b610156610151366004610f0a565b6102fc565b005b61017b610166366004610f25565b60009081526020819052604090206001015490565b60405190815260200161013a565b610156610197366004610f3e565b610379565b6101566101aa366004610f3e565b6103a4565b61017b60008051602061145d83398151915281565b6101566101d236600461100d565b6103dc565b6101566101e5366004611054565b610541565b6101566101f8366004610f25565b610664565b61012e61020b366004610f3e565b610760565b61015661021e366004611099565b610789565b61017b60008051602061147d83398151915281565b61017b600081565b61025361024e366004610f25565b610812565b60405161013a9493929190611185565b610156610271366004610f0a565b6108e6565b610156610284366004610f3e565b61095c565b61029c610297366004610f25565b610981565b60405161013a9594939291906111dc565b6102b5610a5e565b60405161013a949392919061121c565b60006001600160e01b03198216637965db0b60e01b14806102f657506301ffc9a760e01b6001600160e01b03198316145b92915050565b60008051602061145d83398151915261031481610c12565b61032c60008051602061147d8339815191528361095c565b610337600583610c1f565b506040516001600160a01b03831681527f6e76fb4c77256006d9c38ec7d82b45a8c8f3c27b1d6766fffc42dfb8de684492906020015b60405180910390a15050565b60008281526020819052604090206001015461039481610c12565b61039e8383610c3b565b50505050565b6001600160a01b03811633146103cd5760405163334bd91960e11b815260040160405180910390fd5b6103d78282610ccd565b505050565b60008051602061147d8339815191526103f481610c12565b60006040518060800160405280858152602001848152602001336001600160a01b031681526020016000600281111561042f5761042f61116f565b905260078054600181018255600091909152815160039091027fa66cc928b5edb82af9bd49922954155ab7b0942694bea4ce44661d9a8736c6888101918255602083015192935083927fa66cc928b5edb82af9bd49922954155ab7b0942694bea4ce44661d9a8736c689909101906104a790826112ee565b506040820151600280830180546001600160a01b039093166001600160a01b031984168117825560608601519391926001600160a81b03199092161790600160a01b9084908111156104fb576104fb61116f565b021790555050507f8037885c60020ac2420402f68adf2589fc94dbf2f4f1612ee2d0fc6ee109269584846040516105339291906113ae565b60405180910390a150505050565b60008051602061145d83398151915261055981610c12565b60006040518060a00160405280858152602001844261057891906113e5565b815260006020820181905233604083015260609091018190526008805460018101825591528151919250829160049091027ff3f7a9fe364faab93b216da50a3214154f22a0a2b415b23a84c8169e8b636ee3019081906105d890826112ee565b506020820151600182015560408083015160028301805460608601516001600160a01b031661010002610100600160a81b0319931515939093166001600160a81b031990911617919091179055608090920151600390910155517f04370d686e0d7b125f8ada7a54ada32dc73d76ae39d0cd0e15ce218c5ef790d89061053390869086906000906113f8565b60008051602061147d83398151915261067c81610c12565b6008828154811061068f5761068f61141d565b600091825260209091206002600490920201015460ff16156106f85760405162461bcd60e51b815260206004820152601b60248201527f4d696c6573746f6e6520616c726561647920636f6d706c65746564000000000060448201526064015b60405180910390fd5b60016008838154811061070d5761070d61141d565b600091825260209182902060049190910201600201805460ff1916921515929092179091556040518381527f41f5e423c5ae79dcb8565618891e74a7a6e76232568150b33d79001a62391b1e910161036d565b6000918252602082815260408084206001600160a01b0393909316845291905290205460ff1690565b60008051602061145d8339815191526107a181610c12565b60016107ad86826112ee565b5060026107ba85826112ee565b5060046107c784826112ee565b5060038290556040517f245c596a4d13f2b8b6ec1d79083f99c322a820bea554a7f2b1c0b8ce920179c29061080390879087908690889061121c565b60405180910390a15050505050565b6007818154811061082257600080fd5b6000918252602090912060039091020180546001820180549193509061084790611266565b80601f016020809104026020016040519081016040528092919081815260200182805461087390611266565b80156108c05780601f10610895576101008083540402835291602001916108c0565b820191906000526020600020905b8154815290600101906020018083116108a357829003601f168201915b505050600290930154919250506001600160a01b0381169060ff600160a01b9091041684565b60008051602061145d8339815191526108fe81610c12565b61091660008051602061147d83398151915283610c3b565b50610922600583610d38565b506040516001600160a01b03831681527fb251eb052afc73ffd02ffe85ad79990a8b3fed60d76dbc2fa2fdd7123dffd9149060200161036d565b60008281526020819052604090206001015461097781610c12565b61039e8383610ccd565b6008818154811061099157600080fd5b90600052602060002090600402016000915090508060000180546109b490611266565b80601f01602080910402602001604051908101604052809291908181526020018280546109e090611266565b8015610a2d5780601f10610a0257610100808354040283529160200191610a2d565b820191906000526020600020905b815481529060010190602001808311610a1057829003601f168201915b50505050600183015460028401546003909401549293909260ff821692506101009091046001600160a01b03169085565b600180548190610a6d90611266565b80601f0160208091040260200160405190810160405280929190818152602001828054610a9990611266565b8015610ae65780601f10610abb57610100808354040283529160200191610ae6565b820191906000526020600020905b815481529060010190602001808311610ac957829003601f168201915b505050505090806001018054610afb90611266565b80601f0160208091040260200160405190810160405280929190818152602001828054610b2790611266565b8015610b745780601f10610b4957610100808354040283529160200191610b74565b820191906000526020600020905b815481529060010190602001808311610b5757829003601f168201915b505050505090806002015490806003018054610b8f90611266565b80601f0160208091040260200160405190810160405280929190818152602001828054610bbb90611266565b8015610c085780601f10610bdd57610100808354040283529160200191610c08565b820191906000526020600020905b815481529060010190602001808311610beb57829003601f168201915b5050505050905084565b610c1c8133610d4d565b50565b6000610c34836001600160a01b038416610d8a565b9392505050565b6000610c478383610760565b610cc5576000838152602081815260408083206001600160a01b03861684529091529020805460ff19166001179055610c7d3390565b6001600160a01b0316826001600160a01b0316847f2f8788117e7eff1d82e926ec794901d17c78024a50270940304540a733656f0d60405160405180910390a45060016102f6565b5060006102f6565b6000610cd98383610760565b15610cc5576000838152602081815260408083206001600160a01b0386168085529252808320805460ff1916905551339286917ff6391f5c32d9c69d2a47ea670b442974b53935d1edc7fd64eb21e047a839171b9190a45060016102f6565b6000610c34836001600160a01b038416610e7d565b610d578282610760565b610d865760405163e2517d3f60e01b81526001600160a01b0382166004820152602481018390526044016106ef565b5050565b60008181526001830160205260408120548015610e73576000610dae600183611433565b8554909150600090610dc290600190611433565b9050808214610e27576000866000018281548110610de257610de261141d565b9060005260206000200154905080876000018481548110610e0557610e0561141d565b6000918252602080832090910192909255918252600188019052604090208390555b8554869080610e3857610e38611446565b6001900381819060005260206000200160009055905585600101600086815260200190815260200160002060009055600193505050506102f6565b60009150506102f6565b6000818152600183016020526040812054610cc5575081546001818101845560008481526020808220909301849055845484825282860190935260409020919091556102f6565b600060208284031215610ed657600080fd5b81356001600160e01b031981168114610c3457600080fd5b80356001600160a01b0381168114610f0557600080fd5b919050565b600060208284031215610f1c57600080fd5b610c3482610eee565b600060208284031215610f3757600080fd5b5035919050565b60008060408385031215610f5157600080fd5b82359150610f6160208401610eee565b90509250929050565b634e487b7160e01b600052604160045260246000fd5b600082601f830112610f9157600080fd5b813567ffffffffffffffff80821115610fac57610fac610f6a565b604051601f8301601f19908116603f01168101908282118183101715610fd457610fd4610f6a565b81604052838152866020858801011115610fed57600080fd5b836020870160208301376000602085830101528094505050505092915050565b6000806040838503121561102057600080fd5b82359150602083013567ffffffffffffffff81111561103e57600080fd5b61104a85828601610f80565b9150509250929050565b6000806040838503121561106757600080fd5b823567ffffffffffffffff81111561107e57600080fd5b61108a85828601610f80565b95602094909401359450505050565b600080600080608085870312156110af57600080fd5b843567ffffffffffffffff808211156110c757600080fd5b6110d388838901610f80565b955060208701359150808211156110e957600080fd5b6110f588838901610f80565b9450604087013591508082111561110b57600080fd5b5061111887828801610f80565b949793965093946060013593505050565b6000815180845260005b8181101561114f57602081850181015186830182015201611133565b506000602082860101526020601f19601f83011685010191505092915050565b634e487b7160e01b600052602160045260246000fd5b84815260806020820152600061119e6080830186611129565b6001600160a01b03851660408401529050600383106111cd57634e487b7160e01b600052602160045260246000fd5b82606083015295945050505050565b60a0815260006111ef60a0830188611129565b60208301969096525092151560408401526001600160a01b03919091166060830152608090910152919050565b60808152600061122f6080830187611129565b82810360208401526112418187611129565b9050846040840152828103606084015261125b8185611129565b979650505050505050565b600181811c9082168061127a57607f821691505b60208210810361129a57634e487b7160e01b600052602260045260246000fd5b50919050565b601f8211156103d757600081815260208120601f850160051c810160208610156112c75750805b601f850160051c820191505b818110156112e6578281556001016112d3565b505050505050565b815167ffffffffffffffff81111561130857611308610f6a565b61131c816113168454611266565b846112a0565b602080601f83116001811461135157600084156113395750858301515b600019600386901b1c1916600185901b1785556112e6565b600085815260208120601f198616915b8281101561138057888601518255948401946001909101908401611361565b508582101561139e5787850151600019600388901b60f8161c191681555b5050505050600190811b01905550565b8281526040602082015260006113c76040830184611129565b949350505050565b634e487b7160e01b600052601160045260246000fd5b808201808211156102f6576102f66113cf565b60608152600061140b6060830186611129565b60208301949094525060400152919050565b634e487b7160e01b600052603260045260246000fd5b818103818111156102f6576102f66113cf565b634e487b7160e01b600052603160045260246000fdfea49807205ce4d355092ef5a8a18f56e8913cf4a201fbe287825b095693c21775829b824e2329e205435d941c9f13baf578548505283d29261236d8e6596d4636a26469706673582212206defc6fdb83043cb557030f2a75c4fa8625a24240c335acef0c5b15aa5efee6f64736f6c63430008150033",
    "linkReferences": {}
  },
  "methodIdentifiers": {
    "ADMIN_ROLE()": "75b238fc",
    "DEFAULT_ADMIN_ROLE()": "a217fddf",
    "MEMBER_ROLE()": "a10f469e",
    "addMember(address)": "ca6d56dc",
    "addMilestone(string,uint256)": "84b62c28",
    "addWork(uint256,string)": "842b4ebc",
    "completeMilestone(uint256)": "852ea203",
    "getRoleAdmin(bytes32)": "248a9ca3",
    "grantRole(bytes32,address)": "2f2ff15d",
    "hasRole(bytes32,address)": "91d14854",
    "milestones(uint256)": "e89e4ed6",
    "project()": "f60ca60d",
    "removeMember(address)": "0b1ca49a",
    "renounceRole(bytes32,address)": "36568abe",
    "revokeRole(bytes32,address)": "d547741f",
    "supportsInterface(bytes4)": "01ffc9a7",
    "updateProject(string,string,string,uint256)": "92457c3c",
    "works(uint256)": "c66e1dd5"
  },
  "id": 57
}