{
  "abi": [
    {
      "inputs": [
        {
          "internalType": "address",
          "name": "_accountRegistry",
          "type": "address"
        },
        {
          "internalType": "address",
          "name": "_accountImplementation",
          "type": "address"
        }
      ],
      "stateMutability": "nonpayable",
      "type": "constructor"
    },
    {
      "inputs": [
        {
          "internalType": "address",
          "name": "owner",
          "type": "address"
        }
      ],
      "name": "OwnableInvalidOwner",
      "type": "error"
    },
    {
      "inputs": [
        {
          "internalType": "address",
          "name": "account",
          "type": "address"
        }
      ],
      "name": "OwnableUnauthorizedAccount",
      "type": "error"
    },
    {
      "anonymous": false,
      "inputs": [
        {
          "indexed": false,
          "internalType": "uint256",
          "name": "companyId",
          "type": "uint256"
        },
        {
          "indexed": false,
          "internalType": "string",
          "name": "name",
          "type": "string"
        },
        {
          "indexed": false,
          "internalType": "string",
          "name": "image",
          "type": "string"
        },
        {
          "indexed": false,
          "internalType": "string",
          "name": "details",
          "type": "string"
        },
        {
          "indexed": false,
          "internalType": "address",
          "name": "creator",
          "type": "address"
        },
        {
          "indexed": false,
          "internalType": "address",
          "name": "addr",
          "type": "address"
        }
      ],
      "name": "GroupCreated",
      "type": "event"
    },
    {
      "anonymous": false,
      "inputs": [
        {
          "indexed": true,
          "internalType": "address",
          "name": "previousOwner",
          "type": "address"
        },
        {
          "indexed": true,
          "internalType": "address",
          "name": "newOwner",
          "type": "address"
        }
      ],
      "name": "OwnershipTransferred",
      "type": "event"
    },
    {
      "inputs": [],
      "name": "accountImplementation",
      "outputs": [
        {
          "internalType": "address",
          "name": "",
          "type": "address"
        }
      ],
      "stateMutability": "view",
      "type": "function"
    },
    {
      "inputs": [],
      "name": "accountRegistry",
      "outputs": [
        {
          "internalType": "address",
          "name": "",
          "type": "address"
        }
      ],
      "stateMutability": "view",
      "type": "function"
    },
    {
      "inputs": [],
      "name": "companyCount",
      "outputs": [
        {
          "internalType": "uint256",
          "name": "",
          "type": "uint256"
        }
      ],
      "stateMutability": "view",
      "type": "function"
    },
    {
      "inputs": [
        {
          "internalType": "string",
          "name": "_name",
          "type": "string"
        },
        {
          "internalType": "string",
          "name": "_image",
          "type": "string"
        },
        {
          "internalType": "string",
          "name": "_details",
          "type": "string"
        }
      ],
      "name": "createGroup",
      "outputs": [],
      "stateMutability": "nonpayable",
      "type": "function"
    },
    {
      "inputs": [],
      "name": "getTotalPendingGroups",
      "outputs": [
        {
          "internalType": "uint256",
          "name": "",
          "type": "uint256"
        }
      ],
      "stateMutability": "view",
      "type": "function"
    },
    {
      "inputs": [],
      "name": "owner",
      "outputs": [
        {
          "internalType": "address",
          "name": "",
          "type": "address"
        }
      ],
      "stateMutability": "view",
      "type": "function"
    },
    {
      "inputs": [
        {
          "internalType": "uint256",
          "name": "",
          "type": "uint256"
        }
      ],
      "name": "pendingGroups",
      "outputs": [
        {
          "internalType": "contract GroupToken",
          "name": "",
          "type": "address"
        }
      ],
      "stateMutability": "view",
      "type": "function"
    },
    {
      "inputs": [],
      "name": "renounceOwnership",
      "outputs": [],
      "stateMutability": "nonpayable",
      "type": "function"
    },
    {
      "inputs": [
        {
          "internalType": "address",
          "name": "newOwner",
          "type": "address"
        }
      ],
      "name": "transferOwnership",
      "outputs": [],
      "stateMutability": "nonpayable",
      "type": "function"
    },
    {
      "inputs": [
        {
          "internalType": "address",
          "name": "daoAddress",
          "type": "address"
        }
      ],
      "name": "transferToDAO",
      "outputs": [],
      "stateMutability": "nonpayable",
      "type": "function"
    }
  ],
  "bytecode": {
    "object": "0x608060405234801561001057600080fd5b50604051614ccd380380614ccd83398101604081905261002f916100ff565b338061005557604051631e4fbdf760e01b81526000600482015260240160405180910390fd5b61005e81610093565b50600280546001600160a01b039283166001600160a01b03199182161790915560018054939092169216919091179055610132565b600080546001600160a01b038381166001600160a01b0319831681178455604051919092169283917f8be0079c531659141344cd1fd0a4f28419497f9722a3daafe3b4186f6b6457e09190a35050565b80516001600160a01b03811681146100fa57600080fd5b919050565b6000806040838503121561011257600080fd5b61011b836100e3565b9150610129602084016100e3565b90509250929050565b614b8c806101416000396000f3fe60806040523480156200001157600080fd5b5060043610620000ab5760003560e01c80638da5cb5b116200006e5780638da5cb5b146200012e5780638e75dd471462000140578063d089e11a146200014a578063d18c81b7146200015e578063f2fde38b146200017557600080fd5b806311464fbe14620000b05780632ee509d714620000e15780633073efdd14620000fa57806355e199b11462000111578063715018a61462000124575b600080fd5b600254620000c4906001600160a01b031681565b6040516001600160a01b0390911681526020015b60405180910390f35b620000f8620000f2366004620003a9565b6200018c565b005b620000f86200010b36600462000486565b620001a4565b6004545b604051908152602001620000d8565b620000f862000294565b6000546001600160a01b0316620000c4565b6200011560035481565b600154620000c4906001600160a01b031681565b620000c46200016f36600462000518565b620002ac565b620000f862000186366004620003a9565b620002d7565b620001966200031c565b620001a181620002d7565b50565b6001546002546040516000926001600160a01b0390811692169086908590620001cd906200039b565b620001dc94939291906200057a565b604051809103906000f080158015620001f9573d6000803e3d6000fd5b50600480546001810182556000919091527f8a35acfbc15ff81a39ae7d344fd709f28e8600b4aa8c65c6b64bfe7fe36bd19b0180546001600160a01b0319166001600160a01b0383161790556003546040519192507f46984b07ab5e6c6fa797964119bc4b8e3cfa5e74dd80ec53383d5c30e57d0ba29162000286919087908790879033908890620005c7565b60405180910390a150505050565b6200029e6200031c565b620002aa60006200034b565b565b60048181548110620002bd57600080fd5b6000918252602090912001546001600160a01b0316905081565b620002e16200031c565b6001600160a01b0381166200031157604051631e4fbdf760e01b8152600060048201526024015b60405180910390fd5b620001a1816200034b565b6000546001600160a01b03163314620002aa5760405163118cdaa760e01b815233600482015260240162000308565b600080546001600160a01b038381166001600160a01b0319831681178455604051919092169283917f8be0079c531659141344cd1fd0a4f28419497f9722a3daafe3b4186f6b6457e09190a35050565b614523806200063483390190565b600060208284031215620003bc57600080fd5b81356001600160a01b0381168114620003d457600080fd5b9392505050565b634e487b7160e01b600052604160045260246000fd5b600082601f8301126200040357600080fd5b813567ffffffffffffffff80821115620004215762000421620003db565b604051601f8301601f19908116603f011681019082821181831017156200044c576200044c620003db565b816040528381528660208588010111156200046657600080fd5b836020870160208301376000602085830101528094505050505092915050565b6000806000606084860312156200049c57600080fd5b833567ffffffffffffffff80821115620004b557600080fd5b620004c387838801620003f1565b94506020860135915080821115620004da57600080fd5b620004e887838801620003f1565b93506040860135915080821115620004ff57600080fd5b506200050e86828701620003f1565b9150509250925092565b6000602082840312156200052b57600080fd5b5035919050565b6000815180845260005b818110156200055a576020818501810151868301820152016200053c565b506000602082860101526020601f19601f83011685010191505092915050565b6001600160a01b03858116825284166020820152608060408201819052600090620005a89083018562000532565b8281036060840152620005bc818562000532565b979650505050505050565b86815260c060208201526000620005e260c083018862000532565b8281036040840152620005f6818862000532565b905082810360608401526200060c818762000532565b6001600160a01b0395861660808501529390941660a090920191909152509594505050505056fe60806040523480156200001157600080fd5b506040516200452338038062004523833981016040819052620000349162000331565b60408051808201909152600381526221ad2760e91b6020820152829060006200005e838262000450565b5060016200006d828262000450565b5050600880546001600160a01b038088166001600160a01b031992831617909255600980549287169290911691909117905550620000ad6000326200018e565b50620000da7f9f2df0fed2c77648de5860a4cc508cd0818c85b8b8a1ab4ceeef8d981c8956a6326200018e565b50600a620000e9828262000450565b50600030604051620000fb9062000241565b6001600160a01b039091168152602001604051809103906000f08015801562000128573d6000803e3d6000fd5b50600c80546001600160a01b0319166001600160a01b0383169081179091556000600b55604051428152919250907f9aed94e552291eb576200996bc2834c9433cea751d39310f5ba60ef5285021cb9060200160405180910390a250505050506200051c565b60008281526007602090815260408083206001600160a01b038516845290915281205460ff16620002375760008381526007602090815260408083206001600160a01b03861684529091529020805460ff19166001179055620001ee3390565b6001600160a01b0316826001600160a01b0316847f2f8788117e7eff1d82e926ec794901d17c78024a50270940304540a733656f0d60405160405180910390a45060016200023b565b5060005b92915050565b611f3a80620025e983390190565b80516001600160a01b03811681146200026757600080fd5b919050565b634e487b7160e01b600052604160045260246000fd5b600082601f8301126200029457600080fd5b81516001600160401b0380821115620002b157620002b16200026c565b604051601f8301601f19908116603f01168101908282118183101715620002dc57620002dc6200026c565b81604052838152602092508683858801011115620002f957600080fd5b600091505b838210156200031d5785820183015181830184015290820190620002fe565b600093810190920192909252949350505050565b600080600080608085870312156200034857600080fd5b62000353856200024f565b935062000363602086016200024f565b60408601519093506001600160401b03808211156200038157600080fd5b6200038f8883890162000282565b93506060870151915080821115620003a657600080fd5b50620003b58782880162000282565b91505092959194509250565b600181811c90821680620003d657607f821691505b602082108103620003f757634e487b7160e01b600052602260045260246000fd5b50919050565b601f8211156200044b57600081815260208120601f850160051c81016020861015620004265750805b601f850160051c820191505b81811015620004475782815560010162000432565b5050505b505050565b81516001600160401b038111156200046c576200046c6200026c565b62000484816200047d8454620003c1565b84620003fd565b602080601f831160018114620004bc5760008415620004a35750858301515b600019600386901b1c1916600185901b17855562000447565b600085815260208120601f198616915b82811015620004ed57888601518255948401946001909101908401620004cc565b50858210156200050c5787850151600019600388901b60f8161c191681555b5050505050600190811b01905550565b6120bd806200052c6000396000f3fe608060405234801561001057600080fd5b50600436106101fb5760003560e01c8063565974d31161011a578063adbcef11116100ad578063d2653b311161007c578063d2653b3114610438578063d53913931461044b578063d547741f14610472578063e63ab1e914610485578063e985e9c5146104ac57600080fd5b8063adbcef11146103ec578063b88d4fde146103ff578063c87b56dd14610412578063cb3495411461042557600080fd5b806391d14854116100e957806391d14854146103b657806395d89b41146103c9578063a217fddf146103d1578063a22cb465146103d957600080fd5b8063565974d31461037557806360343f841461037d5780636352211e1461039057806370a08231146103a357600080fd5b8063248a9ca311610192578063399dfe2611610161578063399dfe261461032957806342842e0e1461033c57806342966c681461034f578063504627e81461036257600080fd5b8063248a9ca3146102cd5780632cecaac7146102f05780632f2ff15d1461030357806336568abe1461031657600080fd5b806315d9756e116101ce57806315d9756e1461027d57806318160ddd146102905780632124d529146102a757806323b872dd146102ba57600080fd5b806301ffc9a71461020057806306fdde0314610228578063081812fc1461023d578063095ea7b314610268575b600080fd5b61021361020e3660046117ab565b6104bf565b60405190151581526020015b60405180910390f35b6102306104d0565b60405161021f9190611818565b61025061024b36600461182b565b610562565b6040516001600160a01b03909116815260200161021f565b61027b610276366004611859565b61058b565b005b61025061028b36600461182b565b61059a565b610299600b5481565b60405190815260200161021f565b61027b6102b5366004611885565b610629565b61027b6102c83660046118a2565b61070a565b6102996102db36600461182b565b60009081526007602052604090206001015490565b600954610250906001600160a01b031681565b61027b6103113660046118e3565b610795565b61027b6103243660046118e3565b6107ba565b600c54610250906001600160a01b031681565b61027b61034a3660046118a2565b6107f2565b61027b61035d36600461182b565b61080d565b61027b610370366004611913565b610819565b6102306108dd565b61027b61038b366004611a0e565b61096b565b61025061039e36600461182b565b610a37565b6102996103b1366004611885565b610a42565b6102136103c43660046118e3565b610a8a565b610230610ab5565b610299600081565b61027b6103e7366004611a5c565b610ac4565b600854610250906001600160a01b031681565b61027b61040d366004611a88565b610acf565b61023061042036600461182b565b610ae6565b61027b610433366004611b88565b610af1565b61027b610446366004611c00565b610bc7565b6102997f9f2df0fed2c77648de5860a4cc508cd0818c85b8b8a1ab4ceeef8d981c8956a681565b61027b6104803660046118e3565b610c2d565b6102997f65d7a28e3265b37a6474929f336521b332c1681b933f6cb9f3376673440d862a81565b6102136104ba366004611c35565b610c52565b60006104ca82610c80565b92915050565b6060600080546104df90611c63565b80601f016020809104026020016040519081016040528092919081815260200182805461050b90611c63565b80156105585780601f1061052d57610100808354040283529160200191610558565b820191906000526020600020905b81548152906001019060200180831161053b57829003601f168201915b5050505050905090565b600061056d82610ca5565b506000828152600460205260409020546001600160a01b03166104ca565b610596828233610cde565b5050565b600854600954604051632f4de29b60e11b81526001600160a01b03918216600482015246602482015230604482015260648101849052600060848201819052929190911690635e9bc5369060a401602060405180830381865afa158015610605573d6000803e3d6000fd5b505050506040513d601f19601f820116820180604052508101906104ca9190611c9d565b600061063481610ceb565b6000600b5460016106459190611cba565b90506106518382610cf8565b61065a81610d12565b6106b65760405162461bcd60e51b815260206004820152602260248201527f546f6b656e626f756e64206163636f756e74206372656174696f6e206661696c604482015261195960f21b60648201526084015b60405180910390fd5b60006106c18261059a565b9050806001600160a01b031682856001600160a01b03167f18513301f0eb43899d489e5f49a6703f8656bf2fe9c604f1afd160f8ceb2d7a760405160405180910390a450505050565b6001600160a01b03821661073457604051633250574960e11b8152600060048201526024016106ad565b6000610741838333610dde565b9050836001600160a01b0316816001600160a01b03161461078f576040516364283d7b60e01b81526001600160a01b03808616600483015260248201849052821660448201526064016106ad565b50505050565b6000828152600760205260409020600101546107b081610ceb565b61078f8383610df3565b6001600160a01b03811633146107e35760405163334bd91960e11b815260040160405180910390fd5b6107ed8282610e87565b505050565b6107ed83838360405180602001604052806000815250610acf565b61059660008233610dde565b600061082481610ceb565b600c5460405163731133e960e01b81526001600160a01b038581166004830152602482018790526044820185905260806064830152600060848301529091169063731133e99060a401600060405180830381600087803b15801561088757600080fd5b505af115801561089b573d6000803e3d6000fd5b505050508184846001600160a01b03167f5ee6a92061928c2df779c2aa2aa49d74d87648d87758a8f93a29a4fd635437ca60405160405180910390a450505050565b600a80546108ea90611c63565b80601f016020809104026020016040519081016040528092919081815260200182805461091690611c63565b80156109635780601f1061093857610100808354040283529160200191610963565b820191906000526020600020905b81548152906001019060200180831161094657829003601f168201915b505050505081565b600061097681610ceb565b600c5460405163180d0fe160e21b81526000916001600160a01b0316906360343f84906109a99087908790600401611cdb565b6020604051808303816000875af11580156109c8573d6000803e3d6000fd5b505050506040513d601f19601f820116820180604052508101906109ec9190611cff565b9050821515846040516109ff9190611d18565b6040519081900381209083907fea718e04abbc6d8ed1aa3b419421a7781fe7d509ae440f7a534829061daa1ce490600090a450505050565b60006104ca82610ca5565b60006001600160a01b038216610a6e576040516322718ad960e21b8152600060048201526024016106ad565b506001600160a01b031660009081526003602052604090205490565b60009182526007602090815260408084206001600160a01b0393909316845291905290205460ff1690565b6060600180546104df90611c63565b610596338383610ef4565b610ada84848461070a565b61078f84848484610f93565b60606104ca826110bc565b6000610afc81610ceb565b600c54604051630fbfeffd60e11b81526001600160a01b0390911690631f7fdffa90610b3090869088908790600401611d6f565b600060405180830381600087803b158015610b4a57600080fd5b505af1158015610b5e573d6000803e3d6000fd5b5050505081604051610b709190611dc1565b604051809103902084604051610b869190611dc1565b604051908190038120906001600160a01b038616907f6f1e820998408e122a7863c7e6c2817178dcae431d25aad6eacd6033eca50cc790600090a450505050565b6000610bd281610ceb565b600a610bde8382611e45565b507f6e52865076ef6fbd860465dcae611f4e43af090c8f6cf3c649c3666837b1bf7c610c086104d0565b610c10610ab5565b600a604051610c2193929190611f05565b60405180910390a15050565b600082815260076020526040902060010154610c4881610ceb565b61078f8383610e87565b6001600160a01b03918216600090815260056020908152604080832093909416825291909152205460ff1690565b60006001600160e01b03198216637965db0b60e01b14806104ca57506104ca826111c5565b6000818152600260205260408120546001600160a01b0316806104ca57604051637e27328960e01b8152600481018490526024016106ad565b6107ed83838360016111ea565b610cf581336112f0565b50565b610596828260405180602001604052806000815250611329565b6008546009546040513360248201526000926001600160a01b039081169263da7323b392911690469030908790879060440160408051601f198184030181529181526020820180516001600160e01b031663204a7f0760e21b1790525160e088901b6001600160e01b0319168152610d9296959493929190600401611fb5565b6020604051808303816000875af1158015610db1573d6000803e3d6000fd5b505050506040513d601f19601f82011682018060405250810190610dd59190611c9d565b50600192915050565b6000610deb848484611340565b949350505050565b6000610dff8383610a8a565b610e7f5760008381526007602090815260408083206001600160a01b03861684529091529020805460ff19166001179055610e373390565b6001600160a01b0316826001600160a01b0316847f2f8788117e7eff1d82e926ec794901d17c78024a50270940304540a733656f0d60405160405180910390a45060016104ca565b5060006104ca565b6000610e938383610a8a565b15610e7f5760008381526007602090815260408083206001600160a01b0386168085529252808320805460ff1916905551339286917ff6391f5c32d9c69d2a47ea670b442974b53935d1edc7fd64eb21e047a839171b9190a45060016104ca565b6001600160a01b038216610f2657604051630b61174360e31b81526001600160a01b03831660048201526024016106ad565b6001600160a01b03838116600081815260056020908152604080832094871680845294825291829020805460ff191686151590811790915591519182527f17307eab39ab6107e8899845ad3d59bd9653f200f220920489ca2b5937696c31910160405180910390a3505050565b6001600160a01b0383163b1561078f57604051630a85bd0160e11b81526001600160a01b0384169063150b7a0290610fd5903390889087908790600401611ffe565b6020604051808303816000875af1925050508015611010575060408051601f3d908101601f1916820190925261100d9181019061203b565b60015b611079573d80801561103e576040519150601f19603f3d011682016040523d82523d6000602084013e611043565b606091505b50805160000361107157604051633250574960e11b81526001600160a01b03851660048201526024016106ad565b805181602001fd5b6001600160e01b03198116630a85bd0160e11b146110b557604051633250574960e11b81526001600160a01b03851660048201526024016106ad565b5050505050565b60606110c782610ca5565b50600082815260066020526040812080546110e190611c63565b80601f016020809104026020016040519081016040528092919081815260200182805461110d90611c63565b801561115a5780601f1061112f5761010080835404028352916020019161115a565b820191906000526020600020905b81548152906001019060200180831161113d57829003601f168201915b50505050509050600061117860408051602081019091526000815290565b9050805160000361118a575092915050565b8151156111bc5780826040516020016111a4929190612058565b60405160208183030381529060405292505050919050565b610deb84611439565b60006001600160e01b03198216632483248360e11b14806104ca57506104ca826114ae565b80806111fe57506001600160a01b03821615155b156112c057600061120e84610ca5565b90506001600160a01b0383161580159061123a5750826001600160a01b0316816001600160a01b031614155b801561124d575061124b8184610c52565b155b156112765760405163a9fbf51f60e01b81526001600160a01b03841660048201526024016106ad565b81156112be5783856001600160a01b0316826001600160a01b03167f8c5be1e5ebec7d5bd14f71427d1e84f3dd0314c0f7b2291e5b200ac8c7c3b92560405160405180910390a45b505b5050600090815260046020526040902080546001600160a01b0319166001600160a01b0392909216919091179055565b6112fa8282610a8a565b6105965760405163e2517d3f60e01b81526001600160a01b0382166004820152602481018390526044016106ad565b61133383836114fe565b6107ed6000848484610f93565b6000828152600260205260408120546001600160a01b039081169083161561136d5761136d818486611563565b6001600160a01b038116156113ab5761138a6000856000806111ea565b6001600160a01b038116600090815260036020526040902080546000190190555b6001600160a01b038516156113da576001600160a01b0385166000908152600360205260409020805460010190555b60008481526002602052604080822080546001600160a01b0319166001600160a01b0389811691821790925591518793918516917fddf252ad1be2c89b69c2b068fc378daa952ba7f163c4a11628f55a4df523b3ef91a4949350505050565b606061144482610ca5565b50600061145c60408051602081019091526000815290565b9050600081511161147c57604051806020016040528060008152506114a7565b80611486846115c7565b604051602001611497929190612058565b6040516020818303038152906040525b9392505050565b60006001600160e01b031982166380ac58cd60e01b14806114df57506001600160e01b03198216635b5e139f60e01b145b806104ca57506301ffc9a760e01b6001600160e01b03198316146104ca565b6001600160a01b03821661152857604051633250574960e11b8152600060048201526024016106ad565b600061153683836000610dde565b90506001600160a01b038116156107ed576040516339e3563760e11b8152600060048201526024016106ad565b61156e83838361165a565b6107ed576001600160a01b03831661159c57604051637e27328960e01b8152600481018290526024016106ad565b60405163177e802f60e01b81526001600160a01b0383166004820152602481018290526044016106ad565b606060006115d4836116bd565b600101905060008167ffffffffffffffff8111156115f4576115f461193a565b6040519080825280601f01601f19166020018201604052801561161e576020820181803683370190505b5090508181016020015b600019016f181899199a1a9b1b9c1cb0b131b232b360811b600a86061a8153600a850494508461162857509392505050565b60006001600160a01b03831615801590610deb5750826001600160a01b0316846001600160a01b0316148061169457506116948484610c52565b80610deb5750506000908152600460205260409020546001600160a01b03908116911614919050565b60008072184f03e93ff9f4daa797ed6e38ed64bf6a1f0160401b83106116fc5772184f03e93ff9f4daa797ed6e38ed64bf6a1f0160401b830492506040015b6d04ee2d6d415b85acef81000000008310611728576d04ee2d6d415b85acef8100000000830492506020015b662386f26fc10000831061174657662386f26fc10000830492506010015b6305f5e100831061175e576305f5e100830492506008015b612710831061177257612710830492506004015b60648310611784576064830492506002015b600a83106104ca5760010192915050565b6001600160e01b031981168114610cf557600080fd5b6000602082840312156117bd57600080fd5b81356114a781611795565b60005b838110156117e35781810151838201526020016117cb565b50506000910152565b600081518084526118048160208601602086016117c8565b601f01601f19169290920160200192915050565b6020815260006114a760208301846117ec565b60006020828403121561183d57600080fd5b5035919050565b6001600160a01b0381168114610cf557600080fd5b6000806040838503121561186c57600080fd5b823561187781611844565b946020939093013593505050565b60006020828403121561189757600080fd5b81356114a781611844565b6000806000606084860312156118b757600080fd5b83356118c281611844565b925060208401356118d281611844565b929592945050506040919091013590565b600080604083850312156118f657600080fd5b82359150602083013561190881611844565b809150509250929050565b60008060006060848603121561192857600080fd5b8335925060208401356118d281611844565b634e487b7160e01b600052604160045260246000fd5b604051601f8201601f1916810167ffffffffffffffff811182821017156119795761197961193a565b604052919050565b600067ffffffffffffffff83111561199b5761199b61193a565b6119ae601f8401601f1916602001611950565b90508281528383830111156119c257600080fd5b828260208301376000602084830101529392505050565b600082601f8301126119ea57600080fd5b6114a783833560208501611981565b80358015158114611a0957600080fd5b919050565b60008060408385031215611a2157600080fd5b823567ffffffffffffffff811115611a3857600080fd5b611a44858286016119d9565b925050611a53602084016119f9565b90509250929050565b60008060408385031215611a6f57600080fd5b8235611a7a81611844565b9150611a53602084016119f9565b60008060008060808587031215611a9e57600080fd5b8435611aa981611844565b93506020850135611ab981611844565b925060408501359150606085013567ffffffffffffffff811115611adc57600080fd5b8501601f81018713611aed57600080fd5b611afc87823560208401611981565b91505092959194509250565b600082601f830112611b1957600080fd5b8135602067ffffffffffffffff821115611b3557611b3561193a565b8160051b611b44828201611950565b9283528481018201928281019087851115611b5e57600080fd5b83870192505b84831015611b7d57823582529183019190830190611b64565b979650505050505050565b600080600060608486031215611b9d57600080fd5b833567ffffffffffffffff80821115611bb557600080fd5b611bc187838801611b08565b945060208601359150611bd382611844565b90925060408501359080821115611be957600080fd5b50611bf686828701611b08565b9150509250925092565b600060208284031215611c1257600080fd5b813567ffffffffffffffff811115611c2957600080fd5b610deb848285016119d9565b60008060408385031215611c4857600080fd5b8235611c5381611844565b9150602083013561190881611844565b600181811c90821680611c7757607f821691505b602082108103611c9757634e487b7160e01b600052602260045260246000fd5b50919050565b600060208284031215611caf57600080fd5b81516114a781611844565b808201808211156104ca57634e487b7160e01b600052601160045260246000fd5b604081526000611cee60408301856117ec565b905082151560208301529392505050565b600060208284031215611d1157600080fd5b5051919050565b60008251611d2a8184602087016117c8565b9190910192915050565b600081518084526020808501945080840160005b83811015611d6457815187529582019590820190600101611d48565b509495945050505050565b6001600160a01b0384168152608060208201819052600090611d9390830185611d34565b8281036040840152611da58185611d34565b8381036060909401939093525050600081526020019392505050565b815160009082906020808601845b83811015611deb57815185529382019390820190600101611dcf565b50929695505050505050565b601f8211156107ed57600081815260208120601f850160051c81016020861015611e1e5750805b601f850160051c820191505b81811015611e3d57828155600101611e2a565b505050505050565b815167ffffffffffffffff811115611e5f57611e5f61193a565b611e7381611e6d8454611c63565b84611df7565b602080601f831160018114611ea85760008415611e905750858301515b600019600386901b1c1916600185901b178555611e3d565b600085815260208120601f198616915b82811015611ed757888601518255948401946001909101908401611eb8565b5085821015611ef55787850151600019600388901b60f8161c191681555b5050505050600190811b01905550565b606081526000611f1860608301866117ec565b602083820381850152611f2b82876117ec565b9150838203604085015260008554611f4281611c63565b80855260018281168015611f5d5760018114611f7757611fa5565b60ff1984168787015282151560051b870186019450611fa5565b896000528560002060005b84811015611f9d578154898201890152908301908701611f82565b880187019550505b50929a9950505050505050505050565b600060018060a01b03808916835287602084015280871660408401525084606083015283608083015260c060a0830152611ff260c08301846117ec565b98975050505050505050565b6001600160a01b0385811682528416602082015260408101839052608060608201819052600090612031908301846117ec565b9695505050505050565b60006020828403121561204d57600080fd5b81516114a781611795565b6000835161206a8184602088016117c8565b83519083019061207e8183602088016117c8565b0194935050505056fea2646970667358221220ff2f138ecd23de8718d8008e738359501316a5edab3c7d0832e229c41ead74f664736f6c6343000815003360806040523480156200001157600080fd5b5060405162001f3a38038062001f3a833981016040819052620000349162000175565b6040805160208101909152600081528190620000508162000111565b506001600160a01b0381166200008057604051631e4fbdf760e01b81526000600482015260240160405180910390fd5b6200008b8162000123565b50600060405180606001604052806026815260200162001f146026913960408051606085901b6001600160601b0319166020820152815160148183030181526034820190925291925090600090620000ea9084908490605401620001d9565b60408051601f198184030181529190529050620001078162000111565b5050505062000375565b60026200011f8282620002a9565b5050565b600380546001600160a01b038381166001600160a01b0319831681179093556040519116919082907f8be0079c531659141344cd1fd0a4f28419497f9722a3daafe3b4186f6b6457e090600090a35050565b6000602082840312156200018857600080fd5b81516001600160a01b0381168114620001a057600080fd5b9392505050565b6000815160005b81811015620001ca5760208185018101518683015201620001ae565b50600093019283525090919050565b6000620001f2620001eb8386620001a7565b84620001a7565b602f60f81b8152600101949350505050565b634e487b7160e01b600052604160045260246000fd5b600181811c908216806200022f57607f821691505b6020821081036200025057634e487b7160e01b600052602260045260246000fd5b50919050565b601f821115620002a457600081815260208120601f850160051c810160208610156200027f5750805b601f850160051c820191505b81811015620002a0578281556001016200028b565b5050505b505050565b81516001600160401b03811115620002c557620002c562000204565b620002dd81620002d684546200021a565b8462000256565b602080601f831160018114620003155760008415620002fc5750858301515b600019600386901b1c1916600185901b178555620002a0565b600085815260208120601f198616915b82811015620003465788860151825594840194600190910190840162000325565b5085821015620003655787850151600019600388901b60f8161c191681555b5050505050600190811b01905550565b611b8f80620003856000396000f3fe608060405234801561001057600080fd5b50600436106101415760003560e01c8063664d2c7c116100b8578063a22cb4651161007c578063a22cb465146102c6578063bd85b039146102d9578063e985e9c5146102f9578063f242432a1461030c578063f2fde38b1461031f578063f5298aca1461033257600080fd5b8063664d2c7c1461025a5780636b20c4541461027d578063715018a614610290578063731133e9146102985780638da5cb5b146102ab57600080fd5b80631c1ac6c61161010a5780631c1ac6c6146101cc5780631f7fdffa146101df5780632eb2c2d6146101f25780634e1273f4146102055780634f558e791461022557806360343f841461024757600080fd5b8062fdd58e1461014657806301ffc9a71461016c57806302fe53051461018f5780630e89341c146101a457806318160ddd146101c4575b600080fd5b610159610154366004611170565b610345565b6040519081526020015b60405180910390f35b61017f61017a3660046111b0565b61036d565b6040519015158152602001610163565b6101a261019d366004611289565b6103bd565b005b6101b76101b23660046112c5565b6103d1565b604051610163919061132e565b600554610159565b6101b76101da3660046112c5565b610434565b6101a26101ed3660046113cf565b6104ce565b6101a2610200366004611467565b6104e8565b610218610213366004611510565b610554565b604051610163919061160a565b61017f6102333660046112c5565b600090815260046020526040902054151590565b61015961025536600461162d565b610628565b61017f6102683660046112c5565b60066020526000908152604090205460ff1681565b6101a261028b36600461167a565b61066e565b6101a26106d2565b6101a26102a63660046116ed565b6106e6565b6003546040516001600160a01b039091168152602001610163565b6101a26102d4366004611741565b6106fa565b6101596102e73660046112c5565b60009081526004602052604090205490565b61017f61030736600461176b565b610709565b6101a261031a366004611795565b610737565b6101a261032d3660046117f9565b610753565b6101a2610340366004611814565b61078e565b6000818152602081815260408083206001600160a01b03861684529091529020545b92915050565b60006001600160e01b03198216636cdb3d1360e11b148061039e57506001600160e01b031982166303a24d0760e21b145b8061036757506301ffc9a760e01b6001600160e01b0319831614610367565b6103c56107c4565b6103ce816107f1565b50565b604080518082018252601581527468747470733a2f2f697066732e696f2f697066732f60581b602080830191909152600084815260078252839020925160609361041d92849201611881565b604051602081830303815290604052915050919050565b6007602052600090815260409020805461044d90611847565b80601f016020809104026020016040519081016040528092919081815260200182805461047990611847565b80156104c65780601f1061049b576101008083540402835291602001916104c6565b820191906000526020600020905b8154815290600101906020018083116104a957829003601f168201915b505050505081565b6104d66107c4565b6104e2848484846107fd565b50505050565b336001600160a01b038616811480159061050957506105078682610709565b155b1561053f5760405163711bec9160e11b81526001600160a01b038083166004830152871660248201526044015b60405180910390fd5b61054c8686868686610835565b505050505050565b606081518351146105855781518351604051635b05999160e01b815260048101929092526024820152604401610536565b600083516001600160401b038111156105a0576105a06111d4565b6040519080825280602002602001820160405280156105c9578160200160208202803683370190505b50905060005b8451811015610620576020808202860101516105f390602080840287010151610345565b8282815181106106055761060561190e565b60209081029190910101526106198161193a565b90506105cf565b509392505050565b60006106326107c4565b600061063d60055490565b6000818152600660209081526040808320805460ff1916881515179055600790915290209091506106208582611999565b6001600160a01b038316331480159061068e575061068c8333610709565b155b156106c257335b60405163711bec9160e11b81526001600160a01b0391821660048201529084166024820152604401610536565b6106cd838383610895565b505050565b6106da6107c4565b6106e460006108db565b565b6106ee6107c4565b6104e28484848461092d565b61070533838361098a565b5050565b6001600160a01b03918216600090815260016020908152604080832093909416825291909152205460ff1690565b61073f6107c4565b61074c8585858585610a20565b5050505050565b61075b6107c4565b6001600160a01b03811661078557604051631e4fbdf760e01b815260006004820152602401610536565b6103ce816108db565b6001600160a01b03831633148015906107ae57506107ac8333610709565b155b156107b95733610695565b6106cd838383610a7f565b6003546001600160a01b031633146106e45760405163118cdaa760e01b8152336004820152602401610536565b60026107058282611999565b6001600160a01b03841661082757604051632bfa23e760e11b815260006004820152602401610536565b6104e2600085858585610ae3565b6001600160a01b03841661085f57604051632bfa23e760e11b815260006004820152602401610536565b6001600160a01b03851661088857604051626a0d4560e21b815260006004820152602401610536565b61074c8585858585610ae3565b6001600160a01b0383166108be57604051626a0d4560e21b815260006004820152602401610536565b6106cd836000848460405180602001604052806000815250610ae3565b600380546001600160a01b038381166001600160a01b0319831681179093556040519116919082907f8be0079c531659141344cd1fd0a4f28419497f9722a3daafe3b4186f6b6457e090600090a35050565b6001600160a01b03841661095757604051632bfa23e760e11b815260006004820152602401610536565b6040805160018082526020820186905281830190815260608201859052608082019092529061054c600087848487610ae3565b6001600160a01b0382166109b35760405162ced3e160e81b815260006004820152602401610536565b6001600160a01b03838116600081815260016020908152604080832094871680845294825291829020805460ff191686151590811790915591519182527f17307eab39ab6107e8899845ad3d59bd9653f200f220920489ca2b5937696c31910160405180910390a3505050565b336001600160a01b0386168114801590610a415750610a3f8682610709565b155b15610a725760405163711bec9160e11b81526001600160a01b03808316600483015287166024820152604401610536565b61054c8686868686610b36565b6001600160a01b038316610aa857604051626a0d4560e21b815260006004820152602401610536565b604080516001808252602082018590528183019081526060820184905260a0820190925260006080820181815291929161074c918791859085905b610aef85858585610bc4565b6001600160a01b0384161561074c5782513390600103610b285760208481015190840151610b21838989858589610bd0565b505061054c565b61054c818787878787610cf4565b6001600160a01b038416610b6057604051632bfa23e760e11b815260006004820152602401610536565b6001600160a01b038516610b8957604051626a0d4560e21b815260006004820152602401610536565b60408051600180825260208201869052818301908152606082018590526080820190925290610bbb8787848487610ae3565b50505050505050565b6104e284848484610ddd565b6001600160a01b0384163b1561054c5760405163f23a6e6160e01b81526001600160a01b0385169063f23a6e6190610c149089908990889088908890600401611a58565b6020604051808303816000875af1925050508015610c4f575060408051601f3d908101601f19168201909252610c4c91810190611a9d565b60015b610cb8573d808015610c7d576040519150601f19603f3d011682016040523d82523d6000602084013e610c82565b606091505b508051600003610cb057604051632bfa23e760e11b81526001600160a01b0386166004820152602401610536565b805181602001fd5b6001600160e01b0319811663f23a6e6160e01b14610bbb57604051632bfa23e760e11b81526001600160a01b0386166004820152602401610536565b6001600160a01b0384163b1561054c5760405163bc197c8160e01b81526001600160a01b0385169063bc197c8190610d389089908990889088908890600401611aba565b6020604051808303816000875af1925050508015610d73575060408051601f3d908101601f19168201909252610d7091810190611a9d565b60015b610da1573d808015610c7d576040519150601f19603f3d011682016040523d82523d6000602084013e610c82565b6001600160e01b0319811663bc197c8160e01b14610bbb57604051632bfa23e760e11b81526001600160a01b0386166004820152602401610536565b610de984848484610f37565b6001600160a01b038416610e9c576000805b8351811015610e82576000838281518110610e1857610e1861190e565b602002602001015190508060046000878581518110610e3957610e3961190e565b602002602001015181526020019081526020016000206000828254610e5e9190611b18565b90915550610e6e90508184611b18565b92505080610e7b9061193a565b9050610dfb565b508060056000828254610e959190611b18565b9091555050505b6001600160a01b0383166104e2576000805b8351811015610f26576000838281518110610ecb57610ecb61190e565b602002602001015190508060046000878581518110610eec57610eec61190e565b602002602001015181526020019081526020016000206000828254039250508190555080830192505080610f1f9061193a565b9050610eae565b506005805491909103905550505050565b8051825114610f665781518151604051635b05999160e01b815260048101929092526024820152604401610536565b3360005b8351811015611075576020818102858101820151908501909101516001600160a01b0388161561101d576000828152602081815260408083206001600160a01b038c16845290915290205481811015610ff6576040516303dee4c560e01b81526001600160a01b038a166004820152602481018290526044810183905260648101849052608401610536565b6000838152602081815260408083206001600160a01b038d16845290915290209082900390555b6001600160a01b03871615611062576000828152602081815260408083206001600160a01b038b1684529091528120805483929061105c908490611b18565b90915550505b50508061106e9061193a565b9050610f6a565b5082516001036110f65760208301516000906020840151909150856001600160a01b0316876001600160a01b0316846001600160a01b03167fc3d58168c5ae7397731d063d5bbf3d657854427343f4c083240f7aacaa2d0f6285856040516110e7929190918252602082015260400190565b60405180910390a4505061074c565b836001600160a01b0316856001600160a01b0316826001600160a01b03167f4a39dc06d4c0dbc64b70af90fd698a233a518aa5d07e595d983b8c0526c8f7fb8686604051611145929190611b2b565b60405180910390a45050505050565b80356001600160a01b038116811461116b57600080fd5b919050565b6000806040838503121561118357600080fd5b61118c83611154565b946020939093013593505050565b6001600160e01b0319811681146103ce57600080fd5b6000602082840312156111c257600080fd5b81356111cd8161119a565b9392505050565b634e487b7160e01b600052604160045260246000fd5b604051601f8201601f191681016001600160401b0381118282101715611212576112126111d4565b604052919050565b600082601f83011261122b57600080fd5b81356001600160401b03811115611244576112446111d4565b611257601f8201601f19166020016111ea565b81815284602083860101111561126c57600080fd5b816020850160208301376000918101602001919091529392505050565b60006020828403121561129b57600080fd5b81356001600160401b038111156112b157600080fd5b6112bd8482850161121a565b949350505050565b6000602082840312156112d757600080fd5b5035919050565b60005b838110156112f95781810151838201526020016112e1565b50506000910152565b6000815180845261131a8160208601602086016112de565b601f01601f19169290920160200192915050565b6020815260006111cd6020830184611302565b60006001600160401b0382111561135a5761135a6111d4565b5060051b60200190565b600082601f83011261137557600080fd5b8135602061138a61138583611341565b6111ea565b82815260059290921b840181019181810190868411156113a957600080fd5b8286015b848110156113c457803583529183019183016113ad565b509695505050505050565b600080600080608085870312156113e557600080fd5b6113ee85611154565b935060208501356001600160401b038082111561140a57600080fd5b61141688838901611364565b9450604087013591508082111561142c57600080fd5b61143888838901611364565b9350606087013591508082111561144e57600080fd5b5061145b8782880161121a565b91505092959194509250565b600080600080600060a0868803121561147f57600080fd5b61148886611154565b945061149660208701611154565b935060408601356001600160401b03808211156114b257600080fd5b6114be89838a01611364565b945060608801359150808211156114d457600080fd5b6114e089838a01611364565b935060808801359150808211156114f657600080fd5b506115038882890161121a565b9150509295509295909350565b6000806040838503121561152357600080fd5b82356001600160401b038082111561153a57600080fd5b818501915085601f83011261154e57600080fd5b8135602061155e61138583611341565b82815260059290921b8401810191818101908984111561157d57600080fd5b948201945b838610156115a25761159386611154565b82529482019490820190611582565b965050860135925050808211156115b857600080fd5b506115c585828601611364565b9150509250929050565b600081518084526020808501945080840160005b838110156115ff578151875295820195908201906001016115e3565b509495945050505050565b6020815260006111cd60208301846115cf565b8035801515811461116b57600080fd5b6000806040838503121561164057600080fd5b82356001600160401b0381111561165657600080fd5b6116628582860161121a565b9250506116716020840161161d565b90509250929050565b60008060006060848603121561168f57600080fd5b61169884611154565b925060208401356001600160401b03808211156116b457600080fd5b6116c087838801611364565b935060408601359150808211156116d657600080fd5b506116e386828701611364565b9150509250925092565b6000806000806080858703121561170357600080fd5b61170c85611154565b9350602085013592506040850135915060608501356001600160401b0381111561173557600080fd5b61145b8782880161121a565b6000806040838503121561175457600080fd5b61175d83611154565b91506116716020840161161d565b6000806040838503121561177e57600080fd5b61178783611154565b915061167160208401611154565b600080600080600060a086880312156117ad57600080fd5b6117b686611154565b94506117c460208701611154565b9350604086013592506060860135915060808601356001600160401b038111156117ed57600080fd5b6115038882890161121a565b60006020828403121561180b57600080fd5b6111cd82611154565b60008060006060848603121561182957600080fd5b61183284611154565b95602085013595506040909401359392505050565b600181811c9082168061185b57607f821691505b60208210810361187b57634e487b7160e01b600052602260045260246000fd5b50919050565b60008351602061189482858389016112de565b8184019150600085546118a681611847565b600182811680156118be57600181146118d3576118ff565b60ff19841687528215158302870194506118ff565b896000528560002060005b848110156118f7578154898201529083019087016118de565b505082870194505b50929998505050505050505050565b634e487b7160e01b600052603260045260246000fd5b634e487b7160e01b600052601160045260246000fd5b60006001820161194c5761194c611924565b5060010190565b601f8211156106cd57600081815260208120601f850160051c8101602086101561197a5750805b601f850160051c820191505b8181101561054c57828155600101611986565b81516001600160401b038111156119b2576119b26111d4565b6119c6816119c08454611847565b84611953565b602080601f8311600181146119fb57600084156119e35750858301515b600019600386901b1c1916600185901b17855561054c565b600085815260208120601f198616915b82811015611a2a57888601518255948401946001909101908401611a0b565b5085821015611a485787850151600019600388901b60f8161c191681555b5050505050600190811b01905550565b6001600160a01b03868116825285166020820152604081018490526060810183905260a060808201819052600090611a9290830184611302565b979650505050505050565b600060208284031215611aaf57600080fd5b81516111cd8161119a565b6001600160a01b0386811682528516602082015260a060408201819052600090611ae6908301866115cf565b8281036060840152611af881866115cf565b90508281036080840152611b0c8185611302565b98975050505050505050565b8082018082111561036757610367611924565b604081526000611b3e60408301856115cf565b8281036020840152611b5081856115cf565b9594505050505056fea264697066735822122060ce8f5ddc2e37ca17bc1a2716f24aaaddd7db10fedb9e0348149b8ddef3c5cd64736f6c6343000815003368747470733a2f2f6170692e6361726565727a656e2e6f72672f616368696576656d656e742fa2646970667358221220c0522c40833bae25b6182f4517e93c3771bd0f656e4f24f7b26288ea8f3c937464736f6c63430008150033",
    "linkReferences": {}
  },
  "methodIdentifiers": {
    "accountImplementation()": "11464fbe",
    "accountRegistry()": "d089e11a",
    "companyCount()": "8e75dd47",
    "createGroup(string,string,string)": "3073efdd",
    "getTotalPendingGroups()": "55e199b1",
    "owner()": "8da5cb5b",
    "pendingGroups(uint256)": "d18c81b7",
    "renounceOwnership()": "715018a6",
    "transferOwnership(address)": "f2fde38b",
    "transferToDAO(address)": "2ee509d7"
  },
  "id": 55
}