{
  "abi": [
    {
      "inputs": [
        {
          "internalType": "address",
          "name": "initialOwner",
          "type": "address"
        }
      ],
      "stateMutability": "nonpayable",
      "type": "constructor"
    },
    {
      "inputs": [
        {
          "internalType": "address",
          "name": "sender",
          "type": "address"
        },
        {
          "internalType": "uint256",
          "name": "balance",
          "type": "uint256"
        },
        {
          "internalType": "uint256",
          "name": "needed",
          "type": "uint256"
        },
        {
          "internalType": "uint256",
          "name": "tokenId",
          "type": "uint256"
        }
      ],
      "name": "ERC1155InsufficientBalance",
      "type": "error"
    },
    {
      "inputs": [
        {
          "internalType": "address",
          "name": "approver",
          "type": "address"
        }
      ],
      "name": "ERC1155InvalidApprover",
      "type": "error"
    },
    {
      "inputs": [
        {
          "internalType": "uint256",
          "name": "idsLength",
          "type": "uint256"
        },
        {
          "internalType": "uint256",
          "name": "valuesLength",
          "type": "uint256"
        }
      ],
      "name": "ERC1155InvalidArrayLength",
      "type": "error"
    },
    {
      "inputs": [
        {
          "internalType": "address",
          "name": "operator",
          "type": "address"
        }
      ],
      "name": "ERC1155InvalidOperator",
      "type": "error"
    },
    {
      "inputs": [
        {
          "internalType": "address",
          "name": "receiver",
          "type": "address"
        }
      ],
      "name": "ERC1155InvalidReceiver",
      "type": "error"
    },
    {
      "inputs": [
        {
          "internalType": "address",
          "name": "sender",
          "type": "address"
        }
      ],
      "name": "ERC1155InvalidSender",
      "type": "error"
    },
    {
      "inputs": [
        {
          "internalType": "address",
          "name": "operator",
          "type": "address"
        },
        {
          "internalType": "address",
          "name": "owner",
          "type": "address"
        }
      ],
      "name": "ERC1155MissingApprovalForAll",
      "type": "error"
    },
    {
      "inputs": [
        {
          "internalType": "address",
          "name": "owner",
          "type": "address"
        }
      ],
      "name": "OwnableInvalidOwner",
      "type": "error"
    },
    {
      "inputs": [
        {
          "internalType": "address",
          "name": "account",
          "type": "address"
        }
      ],
      "name": "OwnableUnauthorizedAccount",
      "type": "error"
    },
    {
      "anonymous": false,
      "inputs": [
        {
          "indexed": true,
          "internalType": "address",
          "name": "account",
          "type": "address"
        },
        {
          "indexed": true,
          "internalType": "address",
          "name": "operator",
          "type": "address"
        },
        {
          "indexed": false,
          "internalType": "bool",
          "name": "approved",
          "type": "bool"
        }
      ],
      "name": "ApprovalForAll",
      "type": "event"
    },
    {
      "anonymous": false,
      "inputs": [
        {
          "indexed": true,
          "internalType": "address",
          "name": "previousOwner",
          "type": "address"
        },
        {
          "indexed": true,
          "internalType": "address",
          "name": "newOwner",
          "type": "address"
        }
      ],
      "name": "OwnershipTransferred",
      "type": "event"
    },
    {
      "anonymous": false,
      "inputs": [
        {
          "indexed": true,
          "internalType": "address",
          "name": "operator",
          "type": "address"
        },
        {
          "indexed": true,
          "internalType": "address",
          "name": "from",
          "type": "address"
        },
        {
          "indexed": true,
          "internalType": "address",
          "name": "to",
          "type": "address"
        },
        {
          "indexed": false,
          "internalType": "uint256[]",
          "name": "ids",
          "type": "uint256[]"
        },
        {
          "indexed": false,
          "internalType": "uint256[]",
          "name": "values",
          "type": "uint256[]"
        }
      ],
      "name": "TransferBatch",
      "type": "event"
    },
    {
      "anonymous": false,
      "inputs": [
        {
          "indexed": true,
          "internalType": "address",
          "name": "operator",
          "type": "address"
        },
        {
          "indexed": true,
          "internalType": "address",
          "name": "from",
          "type": "address"
        },
        {
          "indexed": true,
          "internalType": "address",
          "name": "to",
          "type": "address"
        },
        {
          "indexed": false,
          "internalType": "uint256",
          "name": "id",
          "type": "uint256"
        },
        {
          "indexed": false,
          "internalType": "uint256",
          "name": "value",
          "type": "uint256"
        }
      ],
      "name": "TransferSingle",
      "type": "event"
    },
    {
      "anonymous": false,
      "inputs": [
        {
          "indexed": false,
          "internalType": "string",
          "name": "value",
          "type": "string"
        },
        {
          "indexed": true,
          "internalType": "uint256",
          "name": "id",
          "type": "uint256"
        }
      ],
      "name": "URI",
      "type": "event"
    },
    {
      "inputs": [
        {
          "internalType": "uint256",
          "name": "",
          "type": "uint256"
        }
      ],
      "name": "_tokenCIDs",
      "outputs": [
        {
          "internalType": "string",
          "name": "",
          "type": "string"
        }
      ],
      "stateMutability": "view",
      "type": "function"
    },
    {
      "inputs": [
        {
          "internalType": "string",
          "name": "_details",
          "type": "string"
        },
        {
          "internalType": "bool",
          "name": "locked",
          "type": "bool"
        }
      ],
      "name": "addAchievement",
      "outputs": [
        {
          "internalType": "uint256",
          "name": "",
          "type": "uint256"
        }
      ],
      "stateMutability": "nonpayable",
      "type": "function"
    },
    {
      "inputs": [
        {
          "internalType": "address",
          "name": "account",
          "type": "address"
        },
        {
          "internalType": "uint256",
          "name": "id",
          "type": "uint256"
        }
      ],
      "name": "balanceOf",
      "outputs": [
        {
          "internalType": "uint256",
          "name": "",
          "type": "uint256"
        }
      ],
      "stateMutability": "view",
      "type": "function"
    },
    {
      "inputs": [
        {
          "internalType": "address[]",
          "name": "accounts",
          "type": "address[]"
        },
        {
          "internalType": "uint256[]",
          "name": "ids",
          "type": "uint256[]"
        }
      ],
      "name": "balanceOfBatch",
      "outputs": [
        {
          "internalType": "uint256[]",
          "name": "",
          "type": "uint256[]"
        }
      ],
      "stateMutability": "view",
      "type": "function"
    },
    {
      "inputs": [
        {
          "internalType": "address",
          "name": "account",
          "type": "address"
        },
        {
          "internalType": "uint256",
          "name": "id",
          "type": "uint256"
        },
        {
          "internalType": "uint256",
          "name": "value",
          "type": "uint256"
        }
      ],
      "name": "burn",
      "outputs": [],
      "stateMutability": "nonpayable",
      "type": "function"
    },
    {
      "inputs": [
        {
          "internalType": "address",
          "name": "account",
          "type": "address"
        },
        {
          "internalType": "uint256[]",
          "name": "ids",
          "type": "uint256[]"
        },
        {
          "internalType": "uint256[]",
          "name": "values",
          "type": "uint256[]"
        }
      ],
      "name": "burnBatch",
      "outputs": [],
      "stateMutability": "nonpayable",
      "type": "function"
    },
    {
      "inputs": [
        {
          "internalType": "uint256",
          "name": "id",
          "type": "uint256"
        }
      ],
      "name": "exists",
      "outputs": [
        {
          "internalType": "bool",
          "name": "",
          "type": "bool"
        }
      ],
      "stateMutability": "view",
      "type": "function"
    },
    {
      "inputs": [
        {
          "internalType": "address",
          "name": "account",
          "type": "address"
        },
        {
          "internalType": "address",
          "name": "operator",
          "type": "address"
        }
      ],
      "name": "isApprovedForAll",
      "outputs": [
        {
          "internalType": "bool",
          "name": "",
          "type": "bool"
        }
      ],
      "stateMutability": "view",
      "type": "function"
    },
    {
      "inputs": [
        {
          "internalType": "uint256",
          "name": "",
          "type": "uint256"
        }
      ],
      "name": "lockedAchievements",
      "outputs": [
        {
          "internalType": "bool",
          "name": "",
          "type": "bool"
        }
      ],
      "stateMutability": "view",
      "type": "function"
    },
    {
      "inputs": [
        {
          "internalType": "address",
          "name": "account",
          "type": "address"
        },
        {
          "internalType": "uint256",
          "name": "id",
          "type": "uint256"
        },
        {
          "internalType": "uint256",
          "name": "amount",
          "type": "uint256"
        },
        {
          "internalType": "bytes",
          "name": "data",
          "type": "bytes"
        }
      ],
      "name": "mint",
      "outputs": [],
      "stateMutability": "nonpayable",
      "type": "function"
    },
    {
      "inputs": [
        {
          "internalType": "address",
          "name": "to",
          "type": "address"
        },
        {
          "internalType": "uint256[]",
          "name": "ids",
          "type": "uint256[]"
        },
        {
          "internalType": "uint256[]",
          "name": "amounts",
          "type": "uint256[]"
        },
        {
          "internalType": "bytes",
          "name": "data",
          "type": "bytes"
        }
      ],
      "name": "mintBatch",
      "outputs": [],
      "stateMutability": "nonpayable",
      "type": "function"
    },
    {
      "inputs": [],
      "name": "owner",
      "outputs": [
        {
          "internalType": "address",
          "name": "",
          "type": "address"
        }
      ],
      "stateMutability": "view",
      "type": "function"
    },
    {
      "inputs": [],
      "name": "renounceOwnership",
      "outputs": [],
      "stateMutability": "nonpayable",
      "type": "function"
    },
    {
      "inputs": [
        {
          "internalType": "address",
          "name": "from",
          "type": "address"
        },
        {
          "internalType": "address",
          "name": "to",
          "type": "address"
        },
        {
          "internalType": "uint256[]",
          "name": "ids",
          "type": "uint256[]"
        },
        {
          "internalType": "uint256[]",
          "name": "values",
          "type": "uint256[]"
        },
        {
          "internalType": "bytes",
          "name": "data",
          "type": "bytes"
        }
      ],
      "name": "safeBatchTransferFrom",
      "outputs": [],
      "stateMutability": "nonpayable",
      "type": "function"
    },
    {
      "inputs": [
        {
          "internalType": "address",
          "name": "from",
          "type": "address"
        },
        {
          "internalType": "address",
          "name": "to",
          "type": "address"
        },
        {
          "internalType": "uint256",
          "name": "id",
          "type": "uint256"
        },
        {
          "internalType": "uint256",
          "name": "amount",
          "type": "uint256"
        },
        {
          "internalType": "bytes",
          "name": "data",
          "type": "bytes"
        }
      ],
      "name": "safeTransferFrom",
      "outputs": [],
      "stateMutability": "nonpayable",
      "type": "function"
    },
    {
      "inputs": [
        {
          "internalType": "address",
          "name": "operator",
          "type": "address"
        },
        {
          "internalType": "bool",
          "name": "approved",
          "type": "bool"
        }
      ],
      "name": "setApprovalForAll",
      "outputs": [],
      "stateMutability": "nonpayable",
      "type": "function"
    },
    {
      "inputs": [
        {
          "internalType": "string",
          "name": "newuri",
          "type": "string"
        }
      ],
      "name": "setURI",
      "outputs": [],
      "stateMutability": "nonpayable",
      "type": "function"
    },
    {
      "inputs": [
        {
          "internalType": "bytes4",
          "name": "interfaceId",
          "type": "bytes4"
        }
      ],
      "name": "supportsInterface",
      "outputs": [
        {
          "internalType": "bool",
          "name": "",
          "type": "bool"
        }
      ],
      "stateMutability": "view",
      "type": "function"
    },
    {
      "inputs": [],
      "name": "totalSupply",
      "outputs": [
        {
          "internalType": "uint256",
          "name": "",
          "type": "uint256"
        }
      ],
      "stateMutability": "view",
      "type": "function"
    },
    {
      "inputs": [
        {
          "internalType": "uint256",
          "name": "id",
          "type": "uint256"
        }
      ],
      "name": "totalSupply",
      "outputs": [
        {
          "internalType": "uint256",
          "name": "",
          "type": "uint256"
        }
      ],
      "stateMutability": "view",
      "type": "function"
    },
    {
      "inputs": [
        {
          "internalType": "address",
          "name": "newOwner",
          "type": "address"
        }
      ],
      "name": "transferOwnership",
      "outputs": [],
      "stateMutability": "nonpayable",
      "type": "function"
    },
    {
      "inputs": [
        {
          "internalType": "uint256",
          "name": "tokenId",
          "type": "uint256"
        }
      ],
      "name": "uri",
      "outputs": [
        {
          "internalType": "string",
          "name": "",
          "type": "string"
        }
      ],
      "stateMutability": "view",
      "type": "function"
    }
  ],
  "bytecode": {
    "object": "0x60806040523480156200001157600080fd5b5060405162001f3a38038062001f3a833981016040819052620000349162000175565b6040805160208101909152600081528190620000508162000111565b506001600160a01b0381166200008057604051631e4fbdf760e01b81526000600482015260240160405180910390fd5b6200008b8162000123565b50600060405180606001604052806026815260200162001f146026913960408051606085901b6001600160601b0319166020820152815160148183030181526034820190925291925090600090620000ea9084908490605401620001d9565b60408051601f198184030181529190529050620001078162000111565b5050505062000375565b60026200011f8282620002a9565b5050565b600380546001600160a01b038381166001600160a01b0319831681179093556040519116919082907f8be0079c531659141344cd1fd0a4f28419497f9722a3daafe3b4186f6b6457e090600090a35050565b6000602082840312156200018857600080fd5b81516001600160a01b0381168114620001a057600080fd5b9392505050565b6000815160005b81811015620001ca5760208185018101518683015201620001ae565b50600093019283525090919050565b6000620001f2620001eb8386620001a7565b84620001a7565b602f60f81b8152600101949350505050565b634e487b7160e01b600052604160045260246000fd5b600181811c908216806200022f57607f821691505b6020821081036200025057634e487b7160e01b600052602260045260246000fd5b50919050565b601f821115620002a457600081815260208120601f850160051c810160208610156200027f5750805b601f850160051c820191505b81811015620002a0578281556001016200028b565b5050505b505050565b81516001600160401b03811115620002c557620002c562000204565b620002dd81620002d684546200021a565b8462000256565b602080601f831160018114620003155760008415620002fc5750858301515b600019600386901b1c1916600185901b178555620002a0565b600085815260208120601f198616915b82811015620003465788860151825594840194600190910190840162000325565b5085821015620003655787850151600019600388901b60f8161c191681555b5050505050600190811b01905550565b611b8f80620003856000396000f3fe608060405234801561001057600080fd5b50600436106101415760003560e01c8063664d2c7c116100b8578063a22cb4651161007c578063a22cb465146102c6578063bd85b039146102d9578063e985e9c5146102f9578063f242432a1461030c578063f2fde38b1461031f578063f5298aca1461033257600080fd5b8063664d2c7c1461025a5780636b20c4541461027d578063715018a614610290578063731133e9146102985780638da5cb5b146102ab57600080fd5b80631c1ac6c61161010a5780631c1ac6c6146101cc5780631f7fdffa146101df5780632eb2c2d6146101f25780634e1273f4146102055780634f558e791461022557806360343f841461024757600080fd5b8062fdd58e1461014657806301ffc9a71461016c57806302fe53051461018f5780630e89341c146101a457806318160ddd146101c4575b600080fd5b610159610154366004611170565b610345565b6040519081526020015b60405180910390f35b61017f61017a3660046111b0565b61036d565b6040519015158152602001610163565b6101a261019d366004611289565b6103bd565b005b6101b76101b23660046112c5565b6103d1565b604051610163919061132e565b600554610159565b6101b76101da3660046112c5565b610434565b6101a26101ed3660046113cf565b6104ce565b6101a2610200366004611467565b6104e8565b610218610213366004611510565b610554565b604051610163919061160a565b61017f6102333660046112c5565b600090815260046020526040902054151590565b61015961025536600461162d565b610628565b61017f6102683660046112c5565b60066020526000908152604090205460ff1681565b6101a261028b36600461167a565b61066e565b6101a26106d2565b6101a26102a63660046116ed565b6106e6565b6003546040516001600160a01b039091168152602001610163565b6101a26102d4366004611741565b6106fa565b6101596102e73660046112c5565b60009081526004602052604090205490565b61017f61030736600461176b565b610709565b6101a261031a366004611795565b610737565b6101a261032d3660046117f9565b610753565b6101a2610340366004611814565b61078e565b6000818152602081815260408083206001600160a01b03861684529091529020545b92915050565b60006001600160e01b03198216636cdb3d1360e11b148061039e57506001600160e01b031982166303a24d0760e21b145b8061036757506301ffc9a760e01b6001600160e01b0319831614610367565b6103c56107c4565b6103ce816107f1565b50565b604080518082018252601581527468747470733a2f2f697066732e696f2f697066732f60581b602080830191909152600084815260078252839020925160609361041d92849201611881565b604051602081830303815290604052915050919050565b6007602052600090815260409020805461044d90611847565b80601f016020809104026020016040519081016040528092919081815260200182805461047990611847565b80156104c65780601f1061049b576101008083540402835291602001916104c6565b820191906000526020600020905b8154815290600101906020018083116104a957829003601f168201915b505050505081565b6104d66107c4565b6104e2848484846107fd565b50505050565b336001600160a01b038616811480159061050957506105078682610709565b155b1561053f5760405163711bec9160e11b81526001600160a01b038083166004830152871660248201526044015b60405180910390fd5b61054c8686868686610835565b505050505050565b606081518351146105855781518351604051635b05999160e01b815260048101929092526024820152604401610536565b600083516001600160401b038111156105a0576105a06111d4565b6040519080825280602002602001820160405280156105c9578160200160208202803683370190505b50905060005b8451811015610620576020808202860101516105f390602080840287010151610345565b8282815181106106055761060561190e565b60209081029190910101526106198161193a565b90506105cf565b509392505050565b60006106326107c4565b600061063d60055490565b6000818152600660209081526040808320805460ff1916881515179055600790915290209091506106208582611999565b6001600160a01b038316331480159061068e575061068c8333610709565b155b156106c257335b60405163711bec9160e11b81526001600160a01b0391821660048201529084166024820152604401610536565b6106cd838383610895565b505050565b6106da6107c4565b6106e460006108db565b565b6106ee6107c4565b6104e28484848461092d565b61070533838361098a565b5050565b6001600160a01b03918216600090815260016020908152604080832093909416825291909152205460ff1690565b61073f6107c4565b61074c8585858585610a20565b5050505050565b61075b6107c4565b6001600160a01b03811661078557604051631e4fbdf760e01b815260006004820152602401610536565b6103ce816108db565b6001600160a01b03831633148015906107ae57506107ac8333610709565b155b156107b95733610695565b6106cd838383610a7f565b6003546001600160a01b031633146106e45760405163118cdaa760e01b8152336004820152602401610536565b60026107058282611999565b6001600160a01b03841661082757604051632bfa23e760e11b815260006004820152602401610536565b6104e2600085858585610ae3565b6001600160a01b03841661085f57604051632bfa23e760e11b815260006004820152602401610536565b6001600160a01b03851661088857604051626a0d4560e21b815260006004820152602401610536565b61074c8585858585610ae3565b6001600160a01b0383166108be57604051626a0d4560e21b815260006004820152602401610536565b6106cd836000848460405180602001604052806000815250610ae3565b600380546001600160a01b038381166001600160a01b0319831681179093556040519116919082907f8be0079c531659141344cd1fd0a4f28419497f9722a3daafe3b4186f6b6457e090600090a35050565b6001600160a01b03841661095757604051632bfa23e760e11b815260006004820152602401610536565b6040805160018082526020820186905281830190815260608201859052608082019092529061054c600087848487610ae3565b6001600160a01b0382166109b35760405162ced3e160e81b815260006004820152602401610536565b6001600160a01b03838116600081815260016020908152604080832094871680845294825291829020805460ff191686151590811790915591519182527f17307eab39ab6107e8899845ad3d59bd9653f200f220920489ca2b5937696c31910160405180910390a3505050565b336001600160a01b0386168114801590610a415750610a3f8682610709565b155b15610a725760405163711bec9160e11b81526001600160a01b03808316600483015287166024820152604401610536565b61054c8686868686610b36565b6001600160a01b038316610aa857604051626a0d4560e21b815260006004820152602401610536565b604080516001808252602082018590528183019081526060820184905260a0820190925260006080820181815291929161074c918791859085905b610aef85858585610bc4565b6001600160a01b0384161561074c5782513390600103610b285760208481015190840151610b21838989858589610bd0565b505061054c565b61054c818787878787610cf4565b6001600160a01b038416610b6057604051632bfa23e760e11b815260006004820152602401610536565b6001600160a01b038516610b8957604051626a0d4560e21b815260006004820152602401610536565b60408051600180825260208201869052818301908152606082018590526080820190925290610bbb8787848487610ae3565b50505050505050565b6104e284848484610ddd565b6001600160a01b0384163b1561054c5760405163f23a6e6160e01b81526001600160a01b0385169063f23a6e6190610c149089908990889088908890600401611a58565b6020604051808303816000875af1925050508015610c4f575060408051601f3d908101601f19168201909252610c4c91810190611a9d565b60015b610cb8573d808015610c7d576040519150601f19603f3d011682016040523d82523d6000602084013e610c82565b606091505b508051600003610cb057604051632bfa23e760e11b81526001600160a01b0386166004820152602401610536565b805181602001fd5b6001600160e01b0319811663f23a6e6160e01b14610bbb57604051632bfa23e760e11b81526001600160a01b0386166004820152602401610536565b6001600160a01b0384163b1561054c5760405163bc197c8160e01b81526001600160a01b0385169063bc197c8190610d389089908990889088908890600401611aba565b6020604051808303816000875af1925050508015610d73575060408051601f3d908101601f19168201909252610d7091810190611a9d565b60015b610da1573d808015610c7d576040519150601f19603f3d011682016040523d82523d6000602084013e610c82565b6001600160e01b0319811663bc197c8160e01b14610bbb57604051632bfa23e760e11b81526001600160a01b0386166004820152602401610536565b610de984848484610f37565b6001600160a01b038416610e9c576000805b8351811015610e82576000838281518110610e1857610e1861190e565b602002602001015190508060046000878581518110610e3957610e3961190e565b602002602001015181526020019081526020016000206000828254610e5e9190611b18565b90915550610e6e90508184611b18565b92505080610e7b9061193a565b9050610dfb565b508060056000828254610e959190611b18565b9091555050505b6001600160a01b0383166104e2576000805b8351811015610f26576000838281518110610ecb57610ecb61190e565b602002602001015190508060046000878581518110610eec57610eec61190e565b602002602001015181526020019081526020016000206000828254039250508190555080830192505080610f1f9061193a565b9050610eae565b506005805491909103905550505050565b8051825114610f665781518151604051635b05999160e01b815260048101929092526024820152604401610536565b3360005b8351811015611075576020818102858101820151908501909101516001600160a01b0388161561101d576000828152602081815260408083206001600160a01b038c16845290915290205481811015610ff6576040516303dee4c560e01b81526001600160a01b038a166004820152602481018290526044810183905260648101849052608401610536565b6000838152602081815260408083206001600160a01b038d16845290915290209082900390555b6001600160a01b03871615611062576000828152602081815260408083206001600160a01b038b1684529091528120805483929061105c908490611b18565b90915550505b50508061106e9061193a565b9050610f6a565b5082516001036110f65760208301516000906020840151909150856001600160a01b0316876001600160a01b0316846001600160a01b03167fc3d58168c5ae7397731d063d5bbf3d657854427343f4c083240f7aacaa2d0f6285856040516110e7929190918252602082015260400190565b60405180910390a4505061074c565b836001600160a01b0316856001600160a01b0316826001600160a01b03167f4a39dc06d4c0dbc64b70af90fd698a233a518aa5d07e595d983b8c0526c8f7fb8686604051611145929190611b2b565b60405180910390a45050505050565b80356001600160a01b038116811461116b57600080fd5b919050565b6000806040838503121561118357600080fd5b61118c83611154565b946020939093013593505050565b6001600160e01b0319811681146103ce57600080fd5b6000602082840312156111c257600080fd5b81356111cd8161119a565b9392505050565b634e487b7160e01b600052604160045260246000fd5b604051601f8201601f191681016001600160401b0381118282101715611212576112126111d4565b604052919050565b600082601f83011261122b57600080fd5b81356001600160401b03811115611244576112446111d4565b611257601f8201601f19166020016111ea565b81815284602083860101111561126c57600080fd5b816020850160208301376000918101602001919091529392505050565b60006020828403121561129b57600080fd5b81356001600160401b038111156112b157600080fd5b6112bd8482850161121a565b949350505050565b6000602082840312156112d757600080fd5b5035919050565b60005b838110156112f95781810151838201526020016112e1565b50506000910152565b6000815180845261131a8160208601602086016112de565b601f01601f19169290920160200192915050565b6020815260006111cd6020830184611302565b60006001600160401b0382111561135a5761135a6111d4565b5060051b60200190565b600082601f83011261137557600080fd5b8135602061138a61138583611341565b6111ea565b82815260059290921b840181019181810190868411156113a957600080fd5b8286015b848110156113c457803583529183019183016113ad565b509695505050505050565b600080600080608085870312156113e557600080fd5b6113ee85611154565b935060208501356001600160401b038082111561140a57600080fd5b61141688838901611364565b9450604087013591508082111561142c57600080fd5b61143888838901611364565b9350606087013591508082111561144e57600080fd5b5061145b8782880161121a565b91505092959194509250565b600080600080600060a0868803121561147f57600080fd5b61148886611154565b945061149660208701611154565b935060408601356001600160401b03808211156114b257600080fd5b6114be89838a01611364565b945060608801359150808211156114d457600080fd5b6114e089838a01611364565b935060808801359150808211156114f657600080fd5b506115038882890161121a565b9150509295509295909350565b6000806040838503121561152357600080fd5b82356001600160401b038082111561153a57600080fd5b818501915085601f83011261154e57600080fd5b8135602061155e61138583611341565b82815260059290921b8401810191818101908984111561157d57600080fd5b948201945b838610156115a25761159386611154565b82529482019490820190611582565b965050860135925050808211156115b857600080fd5b506115c585828601611364565b9150509250929050565b600081518084526020808501945080840160005b838110156115ff578151875295820195908201906001016115e3565b509495945050505050565b6020815260006111cd60208301846115cf565b8035801515811461116b57600080fd5b6000806040838503121561164057600080fd5b82356001600160401b0381111561165657600080fd5b6116628582860161121a565b9250506116716020840161161d565b90509250929050565b60008060006060848603121561168f57600080fd5b61169884611154565b925060208401356001600160401b03808211156116b457600080fd5b6116c087838801611364565b935060408601359150808211156116d657600080fd5b506116e386828701611364565b9150509250925092565b6000806000806080858703121561170357600080fd5b61170c85611154565b9350602085013592506040850135915060608501356001600160401b0381111561173557600080fd5b61145b8782880161121a565b6000806040838503121561175457600080fd5b61175d83611154565b91506116716020840161161d565b6000806040838503121561177e57600080fd5b61178783611154565b915061167160208401611154565b600080600080600060a086880312156117ad57600080fd5b6117b686611154565b94506117c460208701611154565b9350604086013592506060860135915060808601356001600160401b038111156117ed57600080fd5b6115038882890161121a565b60006020828403121561180b57600080fd5b6111cd82611154565b60008060006060848603121561182957600080fd5b61183284611154565b95602085013595506040909401359392505050565b600181811c9082168061185b57607f821691505b60208210810361187b57634e487b7160e01b600052602260045260246000fd5b50919050565b60008351602061189482858389016112de565b8184019150600085546118a681611847565b600182811680156118be57600181146118d3576118ff565b60ff19841687528215158302870194506118ff565b896000528560002060005b848110156118f7578154898201529083019087016118de565b505082870194505b50929998505050505050505050565b634e487b7160e01b600052603260045260246000fd5b634e487b7160e01b600052601160045260246000fd5b60006001820161194c5761194c611924565b5060010190565b601f8211156106cd57600081815260208120601f850160051c8101602086101561197a5750805b601f850160051c820191505b8181101561054c57828155600101611986565b81516001600160401b038111156119b2576119b26111d4565b6119c6816119c08454611847565b84611953565b602080601f8311600181146119fb57600084156119e35750858301515b600019600386901b1c1916600185901b17855561054c565b600085815260208120601f198616915b82811015611a2a57888601518255948401946001909101908401611a0b565b5085821015611a485787850151600019600388901b60f8161c191681555b5050505050600190811b01905550565b6001600160a01b03868116825285166020820152604081018490526060810183905260a060808201819052600090611a9290830184611302565b979650505050505050565b600060208284031215611aaf57600080fd5b81516111cd8161119a565b6001600160a01b0386811682528516602082015260a060408201819052600090611ae6908301866115cf565b8281036060840152611af881866115cf565b90508281036080840152611b0c8185611302565b98975050505050505050565b8082018082111561036757610367611924565b604081526000611b3e60408301856115cf565b8281036020840152611b5081856115cf565b9594505050505056fea264697066735822122060ce8f5ddc2e37ca17bc1a2716f24aaaddd7db10fedb9e0348149b8ddef3c5cd64736f6c6343000815003368747470733a2f2f6170692e6361726565727a656e2e6f72672f616368696576656d656e742f",
    "linkReferences": {}
  },
  "methodIdentifiers": {
    "_tokenCIDs(uint256)": "1c1ac6c6",
    "addAchievement(string,bool)": "60343f84",
    "balanceOf(address,uint256)": "00fdd58e",
    "balanceOfBatch(address[],uint256[])": "4e1273f4",
    "burn(address,uint256,uint256)": "f5298aca",
    "burnBatch(address,uint256[],uint256[])": "6b20c454",
    "exists(uint256)": "4f558e79",
    "isApprovedForAll(address,address)": "e985e9c5",
    "lockedAchievements(uint256)": "664d2c7c",
    "mint(address,uint256,uint256,bytes)": "731133e9",
    "mintBatch(address,uint256[],uint256[],bytes)": "1f7fdffa",
    "owner()": "8da5cb5b",
    "renounceOwnership()": "715018a6",
    "safeBatchTransferFrom(address,address,uint256[],uint256[],bytes)": "2eb2c2d6",
    "safeTransferFrom(address,address,uint256,uint256,bytes)": "f242432a",
    "setApprovalForAll(address,bool)": "a22cb465",
    "setURI(string)": "02fe5305",
    "supportsInterface(bytes4)": "01ffc9a7",
    "totalSupply()": "18160ddd",
    "totalSupply(uint256)": "bd85b039",
    "transferOwnership(address)": "f2fde38b",
    "uri(uint256)": "0e89341c"
  },
  "id": 54
}