{
  "abi": [
    {
      "inputs": [
        {
          "internalType": "address",
          "name": "initialOwner",
          "type": "address"
        }
      ],
      "stateMutability": "nonpayable",
      "type": "constructor"
    },
    {
      "inputs": [
        {
          "internalType": "address",
          "name": "sender",
          "type": "address"
        },
        {
          "internalType": "uint256",
          "name": "balance",
          "type": "uint256"
        },
        {
          "internalType": "uint256",
          "name": "needed",
          "type": "uint256"
        },
        {
          "internalType": "uint256",
          "name": "tokenId",
          "type": "uint256"
        }
      ],
      "name": "ERC1155InsufficientBalance",
      "type": "error"
    },
    {
      "inputs": [
        {
          "internalType": "address",
          "name": "approver",
          "type": "address"
        }
      ],
      "name": "ERC1155InvalidApprover",
      "type": "error"
    },
    {
      "inputs": [
        {
          "internalType": "uint256",
          "name": "idsLength",
          "type": "uint256"
        },
        {
          "internalType": "uint256",
          "name": "valuesLength",
          "type": "uint256"
        }
      ],
      "name": "ERC1155InvalidArrayLength",
      "type": "error"
    },
    {
      "inputs": [
        {
          "internalType": "address",
          "name": "operator",
          "type": "address"
        }
      ],
      "name": "ERC1155InvalidOperator",
      "type": "error"
    },
    {
      "inputs": [
        {
          "internalType": "address",
          "name": "receiver",
          "type": "address"
        }
      ],
      "name": "ERC1155InvalidReceiver",
      "type": "error"
    },
    {
      "inputs": [
        {
          "internalType": "address",
          "name": "sender",
          "type": "address"
        }
      ],
      "name": "ERC1155InvalidSender",
      "type": "error"
    },
    {
      "inputs": [
        {
          "internalType": "address",
          "name": "operator",
          "type": "address"
        },
        {
          "internalType": "address",
          "name": "owner",
          "type": "address"
        }
      ],
      "name": "ERC1155MissingApprovalForAll",
      "type": "error"
    },
    {
      "inputs": [
        {
          "internalType": "address",
          "name": "owner",
          "type": "address"
        }
      ],
      "name": "OwnableInvalidOwner",
      "type": "error"
    },
    {
      "inputs": [
        {
          "internalType": "address",
          "name": "account",
          "type": "address"
        }
      ],
      "name": "OwnableUnauthorizedAccount",
      "type": "error"
    },
    {
      "anonymous": false,
      "inputs": [
        {
          "indexed": true,
          "internalType": "address",
          "name": "account",
          "type": "address"
        },
        {
          "indexed": true,
          "internalType": "address",
          "name": "operator",
          "type": "address"
        },
        {
          "indexed": false,
          "internalType": "bool",
          "name": "approved",
          "type": "bool"
        }
      ],
      "name": "ApprovalForAll",
      "type": "event"
    },
    {
      "anonymous": false,
      "inputs": [
        {
          "indexed": true,
          "internalType": "address",
          "name": "previousOwner",
          "type": "address"
        },
        {
          "indexed": true,
          "internalType": "address",
          "name": "newOwner",
          "type": "address"
        }
      ],
      "name": "OwnershipTransferred",
      "type": "event"
    },
    {
      "anonymous": false,
      "inputs": [
        {
          "indexed": true,
          "internalType": "address",
          "name": "operator",
          "type": "address"
        },
        {
          "indexed": true,
          "internalType": "address",
          "name": "from",
          "type": "address"
        },
        {
          "indexed": true,
          "internalType": "address",
          "name": "to",
          "type": "address"
        },
        {
          "indexed": false,
          "internalType": "uint256[]",
          "name": "ids",
          "type": "uint256[]"
        },
        {
          "indexed": false,
          "internalType": "uint256[]",
          "name": "values",
          "type": "uint256[]"
        }
      ],
      "name": "TransferBatch",
      "type": "event"
    },
    {
      "anonymous": false,
      "inputs": [
        {
          "indexed": true,
          "internalType": "address",
          "name": "operator",
          "type": "address"
        },
        {
          "indexed": true,
          "internalType": "address",
          "name": "from",
          "type": "address"
        },
        {
          "indexed": true,
          "internalType": "address",
          "name": "to",
          "type": "address"
        },
        {
          "indexed": false,
          "internalType": "uint256",
          "name": "id",
          "type": "uint256"
        },
        {
          "indexed": false,
          "internalType": "uint256",
          "name": "value",
          "type": "uint256"
        }
      ],
      "name": "TransferSingle",
      "type": "event"
    },
    {
      "anonymous": false,
      "inputs": [
        {
          "indexed": false,
          "internalType": "string",
          "name": "value",
          "type": "string"
        },
        {
          "indexed": true,
          "internalType": "uint256",
          "name": "id",
          "type": "uint256"
        }
      ],
      "name": "URI",
      "type": "event"
    },
    {
      "inputs": [
        {
          "internalType": "uint256",
          "name": "",
          "type": "uint256"
        }
      ],
      "name": "_tokenCIDs",
      "outputs": [
        {
          "internalType": "string",
          "name": "",
          "type": "string"
        }
      ],
      "stateMutability": "view",
      "type": "function"
    },
    {
      "inputs": [
        {
          "internalType": "string",
          "name": "_details",
          "type": "string"
        },
        {
          "internalType": "bool",
          "name": "locked",
          "type": "bool"
        }
      ],
      "name": "addAchievement",
      "outputs": [
        {
          "internalType": "uint256",
          "name": "",
          "type": "uint256"
        }
      ],
      "stateMutability": "nonpayable",
      "type": "function"
    },
    {
      "inputs": [
        {
          "internalType": "address",
          "name": "account",
          "type": "address"
        },
        {
          "internalType": "uint256",
          "name": "id",
          "type": "uint256"
        }
      ],
      "name": "balanceOf",
      "outputs": [
        {
          "internalType": "uint256",
          "name": "",
          "type": "uint256"
        }
      ],
      "stateMutability": "view",
      "type": "function"
    },
    {
      "inputs": [
        {
          "internalType": "address[]",
          "name": "accounts",
          "type": "address[]"
        },
        {
          "internalType": "uint256[]",
          "name": "ids",
          "type": "uint256[]"
        }
      ],
      "name": "balanceOfBatch",
      "outputs": [
        {
          "internalType": "uint256[]",
          "name": "",
          "type": "uint256[]"
        }
      ],
      "stateMutability": "view",
      "type": "function"
    },
    {
      "inputs": [
        {
          "internalType": "address",
          "name": "account",
          "type": "address"
        },
        {
          "internalType": "uint256",
          "name": "id",
          "type": "uint256"
        },
        {
          "internalType": "uint256",
          "name": "value",
          "type": "uint256"
        }
      ],
      "name": "burn",
      "outputs": [],
      "stateMutability": "nonpayable",
      "type": "function"
    },
    {
      "inputs": [
        {
          "internalType": "address",
          "name": "account",
          "type": "address"
        },
        {
          "internalType": "uint256[]",
          "name": "ids",
          "type": "uint256[]"
        },
        {
          "internalType": "uint256[]",
          "name": "values",
          "type": "uint256[]"
        }
      ],
      "name": "burnBatch",
      "outputs": [],
      "stateMutability": "nonpayable",
      "type": "function"
    },
    {
      "inputs": [
        {
          "internalType": "uint256",
          "name": "id",
          "type": "uint256"
        }
      ],
      "name": "exists",
      "outputs": [
        {
          "internalType": "bool",
          "name": "",
          "type": "bool"
        }
      ],
      "stateMutability": "view",
      "type": "function"
    },
    {
      "inputs": [
        {
          "internalType": "address",
          "name": "account",
          "type": "address"
        },
        {
          "internalType": "address",
          "name": "operator",
          "type": "address"
        }
      ],
      "name": "isApprovedForAll",
      "outputs": [
        {
          "internalType": "bool",
          "name": "",
          "type": "bool"
        }
      ],
      "stateMutability": "view",
      "type": "function"
    },
    {
      "inputs": [
        {
          "internalType": "uint256",
          "name": "",
          "type": "uint256"
        }
      ],
      "name": "lockedAchievements",
      "outputs": [
        {
          "internalType": "bool",
          "name": "",
          "type": "bool"
        }
      ],
      "stateMutability": "view",
      "type": "function"
    },
    {
      "inputs": [
        {
          "internalType": "address",
          "name": "account",
          "type": "address"
        },
        {
          "internalType": "uint256",
          "name": "id",
          "type": "uint256"
        },
        {
          "internalType": "uint256",
          "name": "amount",
          "type": "uint256"
        },
        {
          "internalType": "bytes",
          "name": "data",
          "type": "bytes"
        }
      ],
      "name": "mint",
      "outputs": [],
      "stateMutability": "nonpayable",
      "type": "function"
    },
    {
      "inputs": [
        {
          "internalType": "address",
          "name": "to",
          "type": "address"
        },
        {
          "internalType": "uint256[]",
          "name": "ids",
          "type": "uint256[]"
        },
        {
          "internalType": "uint256[]",
          "name": "amounts",
          "type": "uint256[]"
        },
        {
          "internalType": "bytes",
          "name": "data",
          "type": "bytes"
        }
      ],
      "name": "mintBatch",
      "outputs": [],
      "stateMutability": "nonpayable",
      "type": "function"
    },
    {
      "inputs": [],
      "name": "owner",
      "outputs": [
        {
          "internalType": "address",
          "name": "",
          "type": "address"
        }
      ],
      "stateMutability": "view",
      "type": "function"
    },
    {
      "inputs": [],
      "name": "renounceOwnership",
      "outputs": [],
      "stateMutability": "nonpayable",
      "type": "function"
    },
    {
      "inputs": [
        {
          "internalType": "address",
          "name": "from",
          "type": "address"
        },
        {
          "internalType": "address",
          "name": "to",
          "type": "address"
        },
        {
          "internalType": "uint256[]",
          "name": "ids",
          "type": "uint256[]"
        },
        {
          "internalType": "uint256[]",
          "name": "values",
          "type": "uint256[]"
        },
        {
          "internalType": "bytes",
          "name": "data",
          "type": "bytes"
        }
      ],
      "name": "safeBatchTransferFrom",
      "outputs": [],
      "stateMutability": "nonpayable",
      "type": "function"
    },
    {
      "inputs": [
        {
          "internalType": "address",
          "name": "from",
          "type": "address"
        },
        {
          "internalType": "address",
          "name": "to",
          "type": "address"
        },
        {
          "internalType": "uint256",
          "name": "id",
          "type": "uint256"
        },
        {
          "internalType": "uint256",
          "name": "amount",
          "type": "uint256"
        },
        {
          "internalType": "bytes",
          "name": "data",
          "type": "bytes"
        }
      ],
      "name": "safeTransferFrom",
      "outputs": [],
      "stateMutability": "nonpayable",
      "type": "function"
    },
    {
      "inputs": [
        {
          "internalType": "address",
          "name": "operator",
          "type": "address"
        },
        {
          "internalType": "bool",
          "name": "approved",
          "type": "bool"
        }
      ],
      "name": "setApprovalForAll",
      "outputs": [],
      "stateMutability": "nonpayable",
      "type": "function"
    },
    {
      "inputs": [
        {
          "internalType": "string",
          "name": "newuri",
          "type": "string"
        }
      ],
      "name": "setURI",
      "outputs": [],
      "stateMutability": "nonpayable",
      "type": "function"
    },
    {
      "inputs": [
        {
          "internalType": "bytes4",
          "name": "interfaceId",
          "type": "bytes4"
        }
      ],
      "name": "supportsInterface",
      "outputs": [
        {
          "internalType": "bool",
          "name": "",
          "type": "bool"
        }
      ],
      "stateMutability": "view",
      "type": "function"
    },
    {
      "inputs": [],
      "name": "totalAchievements",
      "outputs": [
        {
          "internalType": "uint256",
          "name": "",
          "type": "uint256"
        }
      ],
      "stateMutability": "view",
      "type": "function"
    },
    {
      "inputs": [],
      "name": "totalSupply",
      "outputs": [
        {
          "internalType": "uint256",
          "name": "",
          "type": "uint256"
        }
      ],
      "stateMutability": "view",
      "type": "function"
    },
    {
      "inputs": [
        {
          "internalType": "uint256",
          "name": "id",
          "type": "uint256"
        }
      ],
      "name": "totalSupply",
      "outputs": [
        {
          "internalType": "uint256",
          "name": "",
          "type": "uint256"
        }
      ],
      "stateMutability": "view",
      "type": "function"
    },
    {
      "inputs": [
        {
          "internalType": "address",
          "name": "newOwner",
          "type": "address"
        }
      ],
      "name": "transferOwnership",
      "outputs": [],
      "stateMutability": "nonpayable",
      "type": "function"
    },
    {
      "inputs": [
        {
          "internalType": "uint256",
          "name": "tokenId",
          "type": "uint256"
        }
      ],
      "name": "uri",
      "outputs": [
        {
          "internalType": "string",
          "name": "",
          "type": "string"
        }
      ],
      "stateMutability": "view",
      "type": "function"
    }
  ],
  "bytecode": {
    "object": "0x60806040523480156200001157600080fd5b5060405162001f6c38038062001f6c8339810160408190526200003491620001a6565b6040805160208101909152600081528190620000508162000142565b506001600160a01b0381166200008057604051631e4fbdf760e01b81526000600482015260240160405180910390fd5b6200008b8162000154565b5060006040518060400160405280601581526020017f68747470733a2f2f697066732e696f2f697066732f00000000000000000000008152509050600082604051602001620000ed919060609190911b6001600160601b031916815260140190565b604051602081830303815290604052905060008282604051602001620001159291906200020a565b60408051601f198184030181529190529050620001328162000142565b5050600060085550620003a69050565b6002620001508282620002da565b5050565b600380546001600160a01b038381166001600160a01b0319831681179093556040519116919082907f8be0079c531659141344cd1fd0a4f28419497f9722a3daafe3b4186f6b6457e090600090a35050565b600060208284031215620001b957600080fd5b81516001600160a01b0381168114620001d157600080fd5b9392505050565b6000815160005b81811015620001fb5760208185018101518683015201620001df565b50600093019283525090919050565b6000620002236200021c8386620001d8565b84620001d8565b602f60f81b8152600101949350505050565b634e487b7160e01b600052604160045260246000fd5b600181811c908216806200026057607f821691505b6020821081036200028157634e487b7160e01b600052602260045260246000fd5b50919050565b601f821115620002d557600081815260208120601f850160051c81016020861015620002b05750805b601f850160051c820191505b81811015620002d157828155600101620002bc565b5050505b505050565b81516001600160401b03811115620002f657620002f662000235565b6200030e816200030784546200024b565b8462000287565b602080601f8311600181146200034657600084156200032d5750858301515b600019600386901b1c1916600185901b178555620002d1565b600085815260208120601f198616915b82811015620003775788860151825594840194600190910190840162000356565b5085821015620003965787850151600019600388901b60f8161c191681555b5050505050600190811b01905550565b611bb680620003b66000396000f3fe608060405234801561001057600080fd5b506004361061014c5760003560e01c8063664d2c7c116100c3578063a61f98371161007c578063a61f9837146102e4578063bd85b039146102ed578063e985e9c51461030d578063f242432a14610320578063f2fde38b14610333578063f5298aca1461034657600080fd5b8063664d2c7c146102655780636b20c45414610288578063715018a61461029b578063731133e9146102a35780638da5cb5b146102b6578063a22cb465146102d157600080fd5b80631c1ac6c6116101155780631c1ac6c6146101d75780631f7fdffa146101ea5780632eb2c2d6146101fd5780634e1273f4146102105780634f558e791461023057806360343f841461025257600080fd5b8062fdd58e1461015157806301ffc9a71461017757806302fe53051461019a5780630e89341c146101af57806318160ddd146101cf575b600080fd5b61016461015f366004611197565b610359565b6040519081526020015b60405180910390f35b61018a6101853660046111d7565b610381565b604051901515815260200161016e565b6101ad6101a83660046112b0565b6103d1565b005b6101c26101bd3660046112ec565b6103e5565b60405161016e9190611355565b600554610164565b6101c26101e53660046112ec565b610448565b6101ad6101f83660046113f6565b6104e2565b6101ad61020b36600461148e565b6104fc565b61022361021e366004611537565b610568565b60405161016e9190611631565b61018a61023e3660046112ec565b600090815260046020526040902054151590565b610164610260366004611654565b61063c565b61018a6102733660046112ec565b60066020526000908152604090205460ff1681565b6101ad6102963660046116a1565b610695565b6101ad6106f9565b6101ad6102b1366004611714565b61070d565b6003546040516001600160a01b03909116815260200161016e565b6101ad6102df366004611768565b610721565b61016460085481565b6101646102fb3660046112ec565b60009081526004602052604090205490565b61018a61031b366004611792565b610730565b6101ad61032e3660046117bc565b61075e565b6101ad610341366004611820565b61077a565b6101ad61035436600461183b565b6107b5565b6000818152602081815260408083206001600160a01b03861684529091529020545b92915050565b60006001600160e01b03198216636cdb3d1360e11b14806103b257506001600160e01b031982166303a24d0760e21b145b8061037b57506301ffc9a760e01b6001600160e01b031983161461037b565b6103d96107eb565b6103e281610818565b50565b604080518082018252601581527468747470733a2f2f697066732e696f2f697066732f60581b6020808301919091526000848152600782528390209251606093610431928492016118a8565b604051602081830303815290604052915050919050565b600760205260009081526040902080546104619061186e565b80601f016020809104026020016040519081016040528092919081815260200182805461048d9061186e565b80156104da5780601f106104af576101008083540402835291602001916104da565b820191906000526020600020905b8154815290600101906020018083116104bd57829003601f168201915b505050505081565b6104ea6107eb565b6104f684848484610824565b50505050565b336001600160a01b038616811480159061051d575061051b8682610730565b155b156105535760405163711bec9160e11b81526001600160a01b038083166004830152871660248201526044015b60405180910390fd5b610560868686868661085c565b505050505050565b606081518351146105995781518351604051635b05999160e01b81526004810192909252602482015260440161054a565b600083516001600160401b038111156105b4576105b46111fb565b6040519080825280602002602001820160405280156105dd578160200160208202803683370190505b50905060005b84518110156106345760208082028601015161060790602080840287010151610359565b82828151811061061957610619611935565b602090810291909101015261062d81611961565b90506105e3565b509392505050565b60006106466107eb565b60006008546001610657919061197a565b6000818152600660209081526040808320805460ff19168815151790556007909152902090915061068885826119d3565b5060088190559392505050565b6001600160a01b03831633148015906106b557506106b38333610730565b155b156106e957335b60405163711bec9160e11b81526001600160a01b039182166004820152908416602482015260440161054a565b6106f48383836108bc565b505050565b6107016107eb565b61070b6000610902565b565b6107156107eb565b6104f684848484610954565b61072c3383836109b1565b5050565b6001600160a01b03918216600090815260016020908152604080832093909416825291909152205460ff1690565b6107666107eb565b6107738585858585610a47565b5050505050565b6107826107eb565b6001600160a01b0381166107ac57604051631e4fbdf760e01b81526000600482015260240161054a565b6103e281610902565b6001600160a01b03831633148015906107d557506107d38333610730565b155b156107e057336106bc565b6106f4838383610aa6565b6003546001600160a01b0316331461070b5760405163118cdaa760e01b815233600482015260240161054a565b600261072c82826119d3565b6001600160a01b03841661084e57604051632bfa23e760e11b81526000600482015260240161054a565b6104f6600085858585610b0a565b6001600160a01b03841661088657604051632bfa23e760e11b81526000600482015260240161054a565b6001600160a01b0385166108af57604051626a0d4560e21b81526000600482015260240161054a565b6107738585858585610b0a565b6001600160a01b0383166108e557604051626a0d4560e21b81526000600482015260240161054a565b6106f4836000848460405180602001604052806000815250610b0a565b600380546001600160a01b038381166001600160a01b0319831681179093556040519116919082907f8be0079c531659141344cd1fd0a4f28419497f9722a3daafe3b4186f6b6457e090600090a35050565b6001600160a01b03841661097e57604051632bfa23e760e11b81526000600482015260240161054a565b60408051600180825260208201869052818301908152606082018590526080820190925290610560600087848487610b0a565b6001600160a01b0382166109da5760405162ced3e160e81b81526000600482015260240161054a565b6001600160a01b03838116600081815260016020908152604080832094871680845294825291829020805460ff191686151590811790915591519182527f17307eab39ab6107e8899845ad3d59bd9653f200f220920489ca2b5937696c31910160405180910390a3505050565b336001600160a01b0386168114801590610a685750610a668682610730565b155b15610a995760405163711bec9160e11b81526001600160a01b0380831660048301528716602482015260440161054a565b6105608686868686610b5d565b6001600160a01b038316610acf57604051626a0d4560e21b81526000600482015260240161054a565b604080516001808252602082018590528183019081526060820184905260a08201909252600060808201818152919291610773918791859085905b610b1685858585610beb565b6001600160a01b038416156107735782513390600103610b4f5760208481015190840151610b48838989858589610bf7565b5050610560565b610560818787878787610d1b565b6001600160a01b038416610b8757604051632bfa23e760e11b81526000600482015260240161054a565b6001600160a01b038516610bb057604051626a0d4560e21b81526000600482015260240161054a565b60408051600180825260208201869052818301908152606082018590526080820190925290610be28787848487610b0a565b50505050505050565b6104f684848484610e04565b6001600160a01b0384163b156105605760405163f23a6e6160e01b81526001600160a01b0385169063f23a6e6190610c3b9089908990889088908890600401611a92565b6020604051808303816000875af1925050508015610c76575060408051601f3d908101601f19168201909252610c7391810190611ad7565b60015b610cdf573d808015610ca4576040519150601f19603f3d011682016040523d82523d6000602084013e610ca9565b606091505b508051600003610cd757604051632bfa23e760e11b81526001600160a01b038616600482015260240161054a565b805181602001fd5b6001600160e01b0319811663f23a6e6160e01b14610be257604051632bfa23e760e11b81526001600160a01b038616600482015260240161054a565b6001600160a01b0384163b156105605760405163bc197c8160e01b81526001600160a01b0385169063bc197c8190610d5f9089908990889088908890600401611af4565b6020604051808303816000875af1925050508015610d9a575060408051601f3d908101601f19168201909252610d9791810190611ad7565b60015b610dc8573d808015610ca4576040519150601f19603f3d011682016040523d82523d6000602084013e610ca9565b6001600160e01b0319811663bc197c8160e01b14610be257604051632bfa23e760e11b81526001600160a01b038616600482015260240161054a565b610e1084848484610f5e565b6001600160a01b038416610ec3576000805b8351811015610ea9576000838281518110610e3f57610e3f611935565b602002602001015190508060046000878581518110610e6057610e60611935565b602002602001015181526020019081526020016000206000828254610e85919061197a565b90915550610e959050818461197a565b92505080610ea290611961565b9050610e22565b508060056000828254610ebc919061197a565b9091555050505b6001600160a01b0383166104f6576000805b8351811015610f4d576000838281518110610ef257610ef2611935565b602002602001015190508060046000878581518110610f1357610f13611935565b602002602001015181526020019081526020016000206000828254039250508190555080830192505080610f4690611961565b9050610ed5565b506005805491909103905550505050565b8051825114610f8d5781518151604051635b05999160e01b81526004810192909252602482015260440161054a565b3360005b835181101561109c576020818102858101820151908501909101516001600160a01b03881615611044576000828152602081815260408083206001600160a01b038c1684529091529020548181101561101d576040516303dee4c560e01b81526001600160a01b038a16600482015260248101829052604481018390526064810184905260840161054a565b6000838152602081815260408083206001600160a01b038d16845290915290209082900390555b6001600160a01b03871615611089576000828152602081815260408083206001600160a01b038b1684529091528120805483929061108390849061197a565b90915550505b50508061109590611961565b9050610f91565b50825160010361111d5760208301516000906020840151909150856001600160a01b0316876001600160a01b0316846001600160a01b03167fc3d58168c5ae7397731d063d5bbf3d657854427343f4c083240f7aacaa2d0f62858560405161110e929190918252602082015260400190565b60405180910390a45050610773565b836001600160a01b0316856001600160a01b0316826001600160a01b03167f4a39dc06d4c0dbc64b70af90fd698a233a518aa5d07e595d983b8c0526c8f7fb868660405161116c929190611b52565b60405180910390a45050505050565b80356001600160a01b038116811461119257600080fd5b919050565b600080604083850312156111aa57600080fd5b6111b38361117b565b946020939093013593505050565b6001600160e01b0319811681146103e257600080fd5b6000602082840312156111e957600080fd5b81356111f4816111c1565b9392505050565b634e487b7160e01b600052604160045260246000fd5b604051601f8201601f191681016001600160401b0381118282101715611239576112396111fb565b604052919050565b600082601f83011261125257600080fd5b81356001600160401b0381111561126b5761126b6111fb565b61127e601f8201601f1916602001611211565b81815284602083860101111561129357600080fd5b816020850160208301376000918101602001919091529392505050565b6000602082840312156112c257600080fd5b81356001600160401b038111156112d857600080fd5b6112e484828501611241565b949350505050565b6000602082840312156112fe57600080fd5b5035919050565b60005b83811015611320578181015183820152602001611308565b50506000910152565b60008151808452611341816020860160208601611305565b601f01601f19169290920160200192915050565b6020815260006111f46020830184611329565b60006001600160401b03821115611381576113816111fb565b5060051b60200190565b600082601f83011261139c57600080fd5b813560206113b16113ac83611368565b611211565b82815260059290921b840181019181810190868411156113d057600080fd5b8286015b848110156113eb57803583529183019183016113d4565b509695505050505050565b6000806000806080858703121561140c57600080fd5b6114158561117b565b935060208501356001600160401b038082111561143157600080fd5b61143d8883890161138b565b9450604087013591508082111561145357600080fd5b61145f8883890161138b565b9350606087013591508082111561147557600080fd5b5061148287828801611241565b91505092959194509250565b600080600080600060a086880312156114a657600080fd5b6114af8661117b565b94506114bd6020870161117b565b935060408601356001600160401b03808211156114d957600080fd5b6114e589838a0161138b565b945060608801359150808211156114fb57600080fd5b61150789838a0161138b565b9350608088013591508082111561151d57600080fd5b5061152a88828901611241565b9150509295509295909350565b6000806040838503121561154a57600080fd5b82356001600160401b038082111561156157600080fd5b818501915085601f83011261157557600080fd5b813560206115856113ac83611368565b82815260059290921b840181019181810190898411156115a457600080fd5b948201945b838610156115c9576115ba8661117b565b825294820194908201906115a9565b965050860135925050808211156115df57600080fd5b506115ec8582860161138b565b9150509250929050565b600081518084526020808501945080840160005b838110156116265781518752958201959082019060010161160a565b509495945050505050565b6020815260006111f460208301846115f6565b8035801515811461119257600080fd5b6000806040838503121561166757600080fd5b82356001600160401b0381111561167d57600080fd5b61168985828601611241565b92505061169860208401611644565b90509250929050565b6000806000606084860312156116b657600080fd5b6116bf8461117b565b925060208401356001600160401b03808211156116db57600080fd5b6116e78783880161138b565b935060408601359150808211156116fd57600080fd5b5061170a8682870161138b565b9150509250925092565b6000806000806080858703121561172a57600080fd5b6117338561117b565b9350602085013592506040850135915060608501356001600160401b0381111561175c57600080fd5b61148287828801611241565b6000806040838503121561177b57600080fd5b6117848361117b565b915061169860208401611644565b600080604083850312156117a557600080fd5b6117ae8361117b565b91506116986020840161117b565b600080600080600060a086880312156117d457600080fd5b6117dd8661117b565b94506117eb6020870161117b565b9350604086013592506060860135915060808601356001600160401b0381111561181457600080fd5b61152a88828901611241565b60006020828403121561183257600080fd5b6111f48261117b565b60008060006060848603121561185057600080fd5b6118598461117b565b95602085013595506040909401359392505050565b600181811c9082168061188257607f821691505b6020821081036118a257634e487b7160e01b600052602260045260246000fd5b50919050565b6000835160206118bb8285838901611305565b8184019150600085546118cd8161186e565b600182811680156118e557600181146118fa57611926565b60ff1984168752821515830287019450611926565b896000528560002060005b8481101561191e57815489820152908301908701611905565b505082870194505b50929998505050505050505050565b634e487b7160e01b600052603260045260246000fd5b634e487b7160e01b600052601160045260246000fd5b6000600182016119735761197361194b565b5060010190565b8082018082111561037b5761037b61194b565b601f8211156106f457600081815260208120601f850160051c810160208610156119b45750805b601f850160051c820191505b81811015610560578281556001016119c0565b81516001600160401b038111156119ec576119ec6111fb565b611a00816119fa845461186e565b8461198d565b602080601f831160018114611a355760008415611a1d5750858301515b600019600386901b1c1916600185901b178555610560565b600085815260208120601f198616915b82811015611a6457888601518255948401946001909101908401611a45565b5085821015611a825787850151600019600388901b60f8161c191681555b5050505050600190811b01905550565b6001600160a01b03868116825285166020820152604081018490526060810183905260a060808201819052600090611acc90830184611329565b979650505050505050565b600060208284031215611ae957600080fd5b81516111f4816111c1565b6001600160a01b0386811682528516602082015260a060408201819052600090611b20908301866115f6565b8281036060840152611b3281866115f6565b90508281036080840152611b468185611329565b98975050505050505050565b604081526000611b6560408301856115f6565b8281036020840152611b7781856115f6565b9594505050505056fea2646970667358221220d50bb1176c04ee23440487b5c630b589f2bc210ae09fa0d7fe56634ea3dd59cc64736f6c63430008150033",
    "linkReferences": {}
  },
  "methodIdentifiers": {
    "_tokenCIDs(uint256)": "1c1ac6c6",
    "addAchievement(string,bool)": "60343f84",
    "balanceOf(address,uint256)": "00fdd58e",
    "balanceOfBatch(address[],uint256[])": "4e1273f4",
    "burn(address,uint256,uint256)": "f5298aca",
    "burnBatch(address,uint256[],uint256[])": "6b20c454",
    "exists(uint256)": "4f558e79",
    "isApprovedForAll(address,address)": "e985e9c5",
    "lockedAchievements(uint256)": "664d2c7c",
    "mint(address,uint256,uint256,bytes)": "731133e9",
    "mintBatch(address,uint256[],uint256[],bytes)": "1f7fdffa",
    "owner()": "8da5cb5b",
    "renounceOwnership()": "715018a6",
    "safeBatchTransferFrom(address,address,uint256[],uint256[],bytes)": "2eb2c2d6",
    "safeTransferFrom(address,address,uint256,uint256,bytes)": "f242432a",
    "setApprovalForAll(address,bool)": "a22cb465",
    "setURI(string)": "02fe5305",
    "supportsInterface(bytes4)": "01ffc9a7",
    "totalAchievements()": "a61f9837",
    "totalSupply()": "18160ddd",
    "totalSupply(uint256)": "bd85b039",
    "transferOwnership(address)": "f2fde38b",
    "uri(uint256)": "0e89341c"
  },
  "id": 53
}