{
  "abi": [
    {
      "inputs": [
        {
          "internalType": "address",
          "name": "_ERC6551Registry",
          "type": "address"
        },
        {
          "internalType": "address",
          "name": "_ERC6551AccountImplementation",
          "type": "address"
        },
        {
          "internalType": "string",
          "name": "name",
          "type": "string"
        },
        {
          "internalType": "string",
          "name": "_details",
          "type": "string"
        }
      ],
      "stateMutability": "nonpayable",
      "type": "constructor"
    },
    {
      "inputs": [],
      "name": "AccessControlBadConfirmation",
      "type": "error"
    },
    {
      "inputs": [
        {
          "internalType": "address",
          "name": "account",
          "type": "address"
        },
        {
          "internalType": "bytes32",
          "name": "neededRole",
          "type": "bytes32"
        }
      ],
      "name": "AccessControlUnauthorizedAccount",
      "type": "error"
    },
    {
      "inputs": [
        {
          "internalType": "address",
          "name": "sender",
          "type": "address"
        },
        {
          "internalType": "uint256",
          "name": "tokenId",
          "type": "uint256"
        },
        {
          "internalType": "address",
          "name": "owner",
          "type": "address"
        }
      ],
      "name": "ERC721IncorrectOwner",
      "type": "error"
    },
    {
      "inputs": [
        {
          "internalType": "address",
          "name": "operator",
          "type": "address"
        },
        {
          "internalType": "uint256",
          "name": "tokenId",
          "type": "uint256"
        }
      ],
      "name": "ERC721InsufficientApproval",
      "type": "error"
    },
    {
      "inputs": [
        {
          "internalType": "address",
          "name": "approver",
          "type": "address"
        }
      ],
      "name": "ERC721InvalidApprover",
      "type": "error"
    },
    {
      "inputs": [
        {
          "internalType": "address",
          "name": "operator",
          "type": "address"
        }
      ],
      "name": "ERC721InvalidOperator",
      "type": "error"
    },
    {
      "inputs": [
        {
          "internalType": "address",
          "name": "owner",
          "type": "address"
        }
      ],
      "name": "ERC721InvalidOwner",
      "type": "error"
    },
    {
      "inputs": [
        {
          "internalType": "address",
          "name": "receiver",
          "type": "address"
        }
      ],
      "name": "ERC721InvalidReceiver",
      "type": "error"
    },
    {
      "inputs": [
        {
          "internalType": "address",
          "name": "sender",
          "type": "address"
        }
      ],
      "name": "ERC721InvalidSender",
      "type": "error"
    },
    {
      "inputs": [
        {
          "internalType": "uint256",
          "name": "tokenId",
          "type": "uint256"
        }
      ],
      "name": "ERC721NonexistentToken",
      "type": "error"
    },
    {
      "anonymous": false,
      "inputs": [
        {
          "indexed": true,
          "internalType": "uint256",
          "name": "achievementId",
          "type": "uint256"
        },
        {
          "indexed": false,
          "internalType": "string",
          "name": "description",
          "type": "string"
        },
        {
          "indexed": false,
          "internalType": "bool",
          "name": "locked",
          "type": "bool"
        }
      ],
      "name": "AchievementAdded",
      "type": "event"
    },
    {
      "anonymous": false,
      "inputs": [
        {
          "indexed": false,
          "internalType": "address",
          "name": "member",
          "type": "address"
        },
        {
          "indexed": false,
          "internalType": "uint256[]",
          "name": "achievementIds",
          "type": "uint256[]"
        },
        {
          "indexed": false,
          "internalType": "uint256[]",
          "name": "amounts",
          "type": "uint256[]"
        }
      ],
      "name": "AchievementBatchRewarded",
      "type": "event"
    },
    {
      "anonymous": false,
      "inputs": [
        {
          "indexed": false,
          "internalType": "address",
          "name": "achievementContract",
          "type": "address"
        },
        {
          "indexed": false,
          "internalType": "uint256",
          "name": "creationTime",
          "type": "uint256"
        }
      ],
      "name": "AchievementContractCreated",
      "type": "event"
    },
    {
      "anonymous": false,
      "inputs": [
        {
          "indexed": false,
          "internalType": "address",
          "name": "member",
          "type": "address"
        },
        {
          "indexed": false,
          "internalType": "uint256",
          "name": "achievementId",
          "type": "uint256"
        },
        {
          "indexed": false,
          "internalType": "uint256",
          "name": "amount",
          "type": "uint256"
        }
      ],
      "name": "AchievementRewarded",
      "type": "event"
    },
    {
      "anonymous": false,
      "inputs": [
        {
          "indexed": true,
          "internalType": "address",
          "name": "owner",
          "type": "address"
        },
        {
          "indexed": true,
          "internalType": "address",
          "name": "approved",
          "type": "address"
        },
        {
          "indexed": true,
          "internalType": "uint256",
          "name": "tokenId",
          "type": "uint256"
        }
      ],
      "name": "Approval",
      "type": "event"
    },
    {
      "anonymous": false,
      "inputs": [
        {
          "indexed": true,
          "internalType": "address",
          "name": "owner",
          "type": "address"
        },
        {
          "indexed": true,
          "internalType": "address",
          "name": "operator",
          "type": "address"
        },
        {
          "indexed": false,
          "internalType": "bool",
          "name": "approved",
          "type": "bool"
        }
      ],
      "name": "ApprovalForAll",
      "type": "event"
    },
    {
      "anonymous": false,
      "inputs": [
        {
          "indexed": false,
          "internalType": "uint256",
          "name": "_fromTokenId",
          "type": "uint256"
        },
        {
          "indexed": false,
          "internalType": "uint256",
          "name": "_toTokenId",
          "type": "uint256"
        }
      ],
      "name": "BatchMetadataUpdate",
      "type": "event"
    },
    {
      "anonymous": false,
      "inputs": [
        {
          "indexed": false,
          "internalType": "string",
          "name": "name",
          "type": "string"
        },
        {
          "indexed": false,
          "internalType": "string",
          "name": "image",
          "type": "string"
        },
        {
          "indexed": false,
          "internalType": "string",
          "name": "details",
          "type": "string"
        }
      ],
      "name": "GroupUpdated",
      "type": "event"
    },
    {
      "anonymous": false,
      "inputs": [
        {
          "indexed": false,
          "internalType": "address",
          "name": "member",
          "type": "address"
        },
        {
          "indexed": false,
          "internalType": "uint256",
          "name": "tokenId",
          "type": "uint256"
        },
        {
          "indexed": false,
          "internalType": "address",
          "name": "tokenboundAccount",
          "type": "address"
        }
      ],
      "name": "MemberCreated",
      "type": "event"
    },
    {
      "anonymous": false,
      "inputs": [
        {
          "indexed": true,
          "internalType": "address",
          "name": "member",
          "type": "address"
        },
        {
          "indexed": false,
          "internalType": "uint256",
          "name": "tokenId",
          "type": "uint256"
        }
      ],
      "name": "MemberDeleted",
      "type": "event"
    },
    {
      "anonymous": false,
      "inputs": [
        {
          "indexed": false,
          "internalType": "uint256",
          "name": "_tokenId",
          "type": "uint256"
        }
      ],
      "name": "MetadataUpdate",
      "type": "event"
    },
    {
      "anonymous": false,
      "inputs": [
        {
          "indexed": false,
          "internalType": "string",
          "name": "roleName",
          "type": "string"
        },
        {
          "indexed": true,
          "internalType": "bytes32",
          "name": "newRole",
          "type": "bytes32"
        },
        {
          "indexed": true,
          "internalType": "address",
          "name": "admin",
          "type": "address"
        }
      ],
      "name": "NewRoleAdded",
      "type": "event"
    },
    {
      "anonymous": false,
      "inputs": [
        {
          "indexed": true,
          "internalType": "bytes32",
          "name": "role",
          "type": "bytes32"
        },
        {
          "indexed": true,
          "internalType": "bytes32",
          "name": "previousAdminRole",
          "type": "bytes32"
        },
        {
          "indexed": true,
          "internalType": "bytes32",
          "name": "newAdminRole",
          "type": "bytes32"
        }
      ],
      "name": "RoleAdminChanged",
      "type": "event"
    },
    {
      "anonymous": false,
      "inputs": [
        {
          "indexed": true,
          "internalType": "bytes32",
          "name": "role",
          "type": "bytes32"
        },
        {
          "indexed": true,
          "internalType": "address",
          "name": "account",
          "type": "address"
        },
        {
          "indexed": true,
          "internalType": "address",
          "name": "sender",
          "type": "address"
        }
      ],
      "name": "RoleGranted",
      "type": "event"
    },
    {
      "anonymous": false,
      "inputs": [
        {
          "indexed": true,
          "internalType": "bytes32",
          "name": "role",
          "type": "bytes32"
        },
        {
          "indexed": true,
          "internalType": "address",
          "name": "account",
          "type": "address"
        },
        {
          "indexed": true,
          "internalType": "address",
          "name": "sender",
          "type": "address"
        }
      ],
      "name": "RoleRevoked",
      "type": "event"
    },
    {
      "anonymous": false,
      "inputs": [
        {
          "indexed": true,
          "internalType": "address",
          "name": "from",
          "type": "address"
        },
        {
          "indexed": true,
          "internalType": "address",
          "name": "to",
          "type": "address"
        },
        {
          "indexed": true,
          "internalType": "uint256",
          "name": "tokenId",
          "type": "uint256"
        }
      ],
      "name": "Transfer",
      "type": "event"
    },
    {
      "inputs": [],
      "name": "DEFAULT_ADMIN_ROLE",
      "outputs": [
        {
          "internalType": "bytes32",
          "name": "",
          "type": "bytes32"
        }
      ],
      "stateMutability": "view",
      "type": "function"
    },
    {
      "inputs": [],
      "name": "ERC6551AccountImplementation",
      "outputs": [
        {
          "internalType": "address",
          "name": "",
          "type": "address"
        }
      ],
      "stateMutability": "view",
      "type": "function"
    },
    {
      "inputs": [],
      "name": "ERC6551Registry",
      "outputs": [
        {
          "internalType": "contract IERC6551Registry",
          "name": "",
          "type": "address"
        }
      ],
      "stateMutability": "view",
      "type": "function"
    },
    {
      "inputs": [],
      "name": "MINTER_ROLE",
      "outputs": [
        {
          "internalType": "bytes32",
          "name": "",
          "type": "bytes32"
        }
      ],
      "stateMutability": "view",
      "type": "function"
    },
    {
      "inputs": [],
      "name": "PAUSER_ROLE",
      "outputs": [
        {
          "internalType": "bytes32",
          "name": "",
          "type": "bytes32"
        }
      ],
      "stateMutability": "view",
      "type": "function"
    },
    {
      "inputs": [],
      "name": "achievementContract",
      "outputs": [
        {
          "internalType": "contract AchievementContract",
          "name": "",
          "type": "address"
        }
      ],
      "stateMutability": "view",
      "type": "function"
    },
    {
      "inputs": [
        {
          "internalType": "string",
          "name": "_description",
          "type": "string"
        },
        {
          "internalType": "bool",
          "name": "_locked",
          "type": "bool"
        }
      ],
      "name": "addAchievement",
      "outputs": [],
      "stateMutability": "nonpayable",
      "type": "function"
    },
    {
      "inputs": [
        {
          "internalType": "string",
          "name": "newRole",
          "type": "string"
        }
      ],
      "name": "addNewRole",
      "outputs": [],
      "stateMutability": "nonpayable",
      "type": "function"
    },
    {
      "inputs": [
        {
          "internalType": "address",
          "name": "to",
          "type": "address"
        },
        {
          "internalType": "uint256",
          "name": "tokenId",
          "type": "uint256"
        }
      ],
      "name": "approve",
      "outputs": [],
      "stateMutability": "nonpayable",
      "type": "function"
    },
    {
      "inputs": [
        {
          "internalType": "address",
          "name": "owner",
          "type": "address"
        }
      ],
      "name": "balanceOf",
      "outputs": [
        {
          "internalType": "uint256",
          "name": "",
          "type": "uint256"
        }
      ],
      "stateMutability": "view",
      "type": "function"
    },
    {
      "inputs": [
        {
          "internalType": "uint256[]",
          "name": "_achievementIds",
          "type": "uint256[]"
        },
        {
          "internalType": "address",
          "name": "_to",
          "type": "address"
        },
        {
          "internalType": "uint256[]",
          "name": "_amounts",
          "type": "uint256[]"
        }
      ],
      "name": "batchDistibuteAchievements",
      "outputs": [],
      "stateMutability": "nonpayable",
      "type": "function"
    },
    {
      "inputs": [
        {
          "internalType": "uint256",
          "name": "tokenId",
          "type": "uint256"
        }
      ],
      "name": "burn",
      "outputs": [],
      "stateMutability": "nonpayable",
      "type": "function"
    },
    {
      "inputs": [
        {
          "internalType": "address",
          "name": "to",
          "type": "address"
        }
      ],
      "name": "createMember",
      "outputs": [],
      "stateMutability": "nonpayable",
      "type": "function"
    },
    {
      "inputs": [
        {
          "internalType": "uint256",
          "name": "tokenId",
          "type": "uint256"
        }
      ],
      "name": "deleteMember",
      "outputs": [],
      "stateMutability": "nonpayable",
      "type": "function"
    },
    {
      "inputs": [],
      "name": "details",
      "outputs": [
        {
          "internalType": "string",
          "name": "",
          "type": "string"
        }
      ],
      "stateMutability": "view",
      "type": "function"
    },
    {
      "inputs": [
        {
          "internalType": "uint256",
          "name": "_achievementId",
          "type": "uint256"
        },
        {
          "internalType": "address",
          "name": "_to",
          "type": "address"
        },
        {
          "internalType": "uint256",
          "name": "_amount",
          "type": "uint256"
        }
      ],
      "name": "distributeAchievement",
      "outputs": [],
      "stateMutability": "nonpayable",
      "type": "function"
    },
    {
      "inputs": [
        {
          "internalType": "uint256",
          "name": "tokenId",
          "type": "uint256"
        }
      ],
      "name": "getApproved",
      "outputs": [
        {
          "internalType": "address",
          "name": "",
          "type": "address"
        }
      ],
      "stateMutability": "view",
      "type": "function"
    },
    {
      "inputs": [
        {
          "internalType": "bytes32",
          "name": "role",
          "type": "bytes32"
        }
      ],
      "name": "getRoleAdmin",
      "outputs": [
        {
          "internalType": "bytes32",
          "name": "",
          "type": "bytes32"
        }
      ],
      "stateMutability": "view",
      "type": "function"
    },
    {
      "inputs": [
        {
          "internalType": "uint256",
          "name": "_tokenId",
          "type": "uint256"
        }
      ],
      "name": "getTBA",
      "outputs": [
        {
          "internalType": "address",
          "name": "",
          "type": "address"
        }
      ],
      "stateMutability": "view",
      "type": "function"
    },
    {
      "inputs": [
        {
          "internalType": "address",
          "name": "member",
          "type": "address"
        },
        {
          "internalType": "bytes32",
          "name": "role",
          "type": "bytes32"
        }
      ],
      "name": "grantMemberRole",
      "outputs": [],
      "stateMutability": "nonpayable",
      "type": "function"
    },
    {
      "inputs": [
        {
          "internalType": "bytes32",
          "name": "role",
          "type": "bytes32"
        },
        {
          "internalType": "address",
          "name": "account",
          "type": "address"
        }
      ],
      "name": "grantRole",
      "outputs": [],
      "stateMutability": "nonpayable",
      "type": "function"
    },
    {
      "inputs": [
        {
          "internalType": "bytes32",
          "name": "role",
          "type": "bytes32"
        },
        {
          "internalType": "address",
          "name": "account",
          "type": "address"
        }
      ],
      "name": "hasRole",
      "outputs": [
        {
          "internalType": "bool",
          "name": "",
          "type": "bool"
        }
      ],
      "stateMutability": "view",
      "type": "function"
    },
    {
      "inputs": [
        {
          "internalType": "address",
          "name": "owner",
          "type": "address"
        },
        {
          "internalType": "address",
          "name": "operator",
          "type": "address"
        }
      ],
      "name": "isApprovedForAll",
      "outputs": [
        {
          "internalType": "bool",
          "name": "",
          "type": "bool"
        }
      ],
      "stateMutability": "view",
      "type": "function"
    },
    {
      "inputs": [],
      "name": "name",
      "outputs": [
        {
          "internalType": "string",
          "name": "",
          "type": "string"
        }
      ],
      "stateMutability": "view",
      "type": "function"
    },
    {
      "inputs": [
        {
          "internalType": "uint256",
          "name": "tokenId",
          "type": "uint256"
        }
      ],
      "name": "ownerOf",
      "outputs": [
        {
          "internalType": "address",
          "name": "",
          "type": "address"
        }
      ],
      "stateMutability": "view",
      "type": "function"
    },
    {
      "inputs": [
        {
          "internalType": "bytes32",
          "name": "role",
          "type": "bytes32"
        },
        {
          "internalType": "address",
          "name": "callerConfirmation",
          "type": "address"
        }
      ],
      "name": "renounceRole",
      "outputs": [],
      "stateMutability": "nonpayable",
      "type": "function"
    },
    {
      "inputs": [
        {
          "internalType": "address",
          "name": "member",
          "type": "address"
        },
        {
          "internalType": "bytes32",
          "name": "role",
          "type": "bytes32"
        }
      ],
      "name": "revokeMemberRole",
      "outputs": [],
      "stateMutability": "nonpayable",
      "type": "function"
    },
    {
      "inputs": [
        {
          "internalType": "bytes32",
          "name": "role",
          "type": "bytes32"
        },
        {
          "internalType": "address",
          "name": "account",
          "type": "address"
        }
      ],
      "name": "revokeRole",
      "outputs": [],
      "stateMutability": "nonpayable",
      "type": "function"
    },
    {
      "inputs": [
        {
          "internalType": "uint256",
          "name": "_achievementId",
          "type": "uint256"
        },
        {
          "internalType": "address[]",
          "name": "_to",
          "type": "address[]"
        }
      ],
      "name": "rewardProject",
      "outputs": [],
      "stateMutability": "nonpayable",
      "type": "function"
    },
    {
      "inputs": [
        {
          "internalType": "address",
          "name": "from",
          "type": "address"
        },
        {
          "internalType": "address",
          "name": "to",
          "type": "address"
        },
        {
          "internalType": "uint256",
          "name": "tokenId",
          "type": "uint256"
        }
      ],
      "name": "safeTransferFrom",
      "outputs": [],
      "stateMutability": "nonpayable",
      "type": "function"
    },
    {
      "inputs": [
        {
          "internalType": "address",
          "name": "from",
          "type": "address"
        },
        {
          "internalType": "address",
          "name": "to",
          "type": "address"
        },
        {
          "internalType": "uint256",
          "name": "tokenId",
          "type": "uint256"
        },
        {
          "internalType": "bytes",
          "name": "data",
          "type": "bytes"
        }
      ],
      "name": "safeTransferFrom",
      "outputs": [],
      "stateMutability": "nonpayable",
      "type": "function"
    },
    {
      "inputs": [
        {
          "internalType": "address",
          "name": "operator",
          "type": "address"
        },
        {
          "internalType": "bool",
          "name": "approved",
          "type": "bool"
        }
      ],
      "name": "setApprovalForAll",
      "outputs": [],
      "stateMutability": "nonpayable",
      "type": "function"
    },
    {
      "inputs": [
        {
          "internalType": "bytes4",
          "name": "interfaceId",
          "type": "bytes4"
        }
      ],
      "name": "supportsInterface",
      "outputs": [
        {
          "internalType": "bool",
          "name": "",
          "type": "bool"
        }
      ],
      "stateMutability": "view",
      "type": "function"
    },
    {
      "inputs": [],
      "name": "symbol",
      "outputs": [
        {
          "internalType": "string",
          "name": "",
          "type": "string"
        }
      ],
      "stateMutability": "view",
      "type": "function"
    },
    {
      "inputs": [
        {
          "internalType": "uint256",
          "name": "tokenId",
          "type": "uint256"
        }
      ],
      "name": "tokenURI",
      "outputs": [
        {
          "internalType": "string",
          "name": "",
          "type": "string"
        }
      ],
      "stateMutability": "view",
      "type": "function"
    },
    {
      "inputs": [],
      "name": "totalSupply",
      "outputs": [
        {
          "internalType": "uint256",
          "name": "",
          "type": "uint256"
        }
      ],
      "stateMutability": "view",
      "type": "function"
    },
    {
      "inputs": [
        {
          "internalType": "address",
          "name": "from",
          "type": "address"
        },
        {
          "internalType": "address",
          "name": "to",
          "type": "address"
        },
        {
          "internalType": "uint256",
          "name": "tokenId",
          "type": "uint256"
        }
      ],
      "name": "transferFrom",
      "outputs": [],
      "stateMutability": "nonpayable",
      "type": "function"
    },
    {
      "inputs": [
        {
          "internalType": "string",
          "name": "_details",
          "type": "string"
        }
      ],
      "name": "updateDetails",
      "outputs": [],
      "stateMutability": "nonpayable",
      "type": "function"
    }
  ],
  "bytecode": {
    "object": "0x60806040523480156200001157600080fd5b5060405162004a4938038062004a49833981016040819052620000349162000335565b60408051808201909152600381526221ad2760e91b6020820152829060006200005e838262000454565b5060016200006d828262000454565b5050600880546001600160a01b038088166001600160a01b031992831617909255600980549287169290911691909117905550620000ad60003262000192565b50620000da7f9f2df0fed2c77648de5860a4cc508cd0818c85b8b8a1ab4ceeef8d981c8956a63262000192565b50600a620000e9828262000454565b50600030604051620000fb9062000245565b6001600160a01b039091168152602001604051809103906000f08015801562000128573d6000803e3d6000fd5b50600c80546001600160a01b0319166001600160a01b0383169081179091556000600b55604080519182524260208301529192507f9aed94e552291eb576200996bc2834c9433cea751d39310f5ba60ef5285021cb910160405180910390a1505050505062000520565b60008281526007602090815260408083206001600160a01b038516845290915281205460ff166200023b5760008381526007602090815260408083206001600160a01b03861684529091529020805460ff19166001179055620001f23390565b6001600160a01b0316826001600160a01b0316847f2f8788117e7eff1d82e926ec794901d17c78024a50270940304540a733656f0d60405160405180910390a45060016200023f565b5060005b92915050565b611f6c8062002add83390190565b80516001600160a01b03811681146200026b57600080fd5b919050565b634e487b7160e01b600052604160045260246000fd5b600082601f8301126200029857600080fd5b81516001600160401b0380821115620002b557620002b562000270565b604051601f8301601f19908116603f01168101908282118183101715620002e057620002e062000270565b81604052838152602092508683858801011115620002fd57600080fd5b600091505b8382101562000321578582018301518183018401529082019062000302565b600093810190920192909252949350505050565b600080600080608085870312156200034c57600080fd5b620003578562000253565b9350620003676020860162000253565b60408601519093506001600160401b03808211156200038557600080fd5b620003938883890162000286565b93506060870151915080821115620003aa57600080fd5b50620003b98782880162000286565b91505092959194509250565b600181811c90821680620003da57607f821691505b602082108103620003fb57634e487b7160e01b600052602260045260246000fd5b50919050565b601f8211156200044f57600081815260208120601f850160051c810160208610156200042a5750805b601f850160051c820191505b818110156200044b5782815560010162000436565b5050505b505050565b81516001600160401b0381111562000470576200047062000270565b6200048881620004818454620003c5565b8462000401565b602080601f831160018114620004c05760008415620004a75750858301515b600019600386901b1c1916600185901b1785556200044b565b600085815260208120601f198616915b82811015620004f157888601518255948401946001909101908401620004d0565b5085821015620005105787850151600019600388901b60f8161c191681555b5050505050600190811b01905550565b6125ad80620005306000396000f3fe608060405234801561001057600080fd5b50600436106102325760003560e01c80636352211e11610130578063adbcef11116100b8578063d53913931161007c578063d5391393146104ce578063d547741f146104f5578063e63ab1e914610508578063e8f9c5691461052f578063e985e9c51461054257600080fd5b8063adbcef111461046f578063b88d4fde14610482578063c87b56dd14610495578063cb349541146104a8578063d2653b31146104bb57600080fd5b806388bec9da116100ff57806388bec9da1461042657806391d148541461043957806395d89b411461044c578063a217fddf14610454578063a22cb4651461045c57600080fd5b80636352211e146103da57806370a08231146103ed57806376a041f61461040057806388b14b4b1461041357600080fd5b80632cecaac7116101be57806342842e0e1161018257806342842e0e1461038657806342966c6814610399578063504627e8146103ac578063565974d3146103bf57806360343f84146103c757600080fd5b80632cecaac7146103275780632f2ff15d1461033a5780633201ef151461034d57806336568abe14610360578063399dfe261461037357600080fd5b806315d9756e1161020557806315d9756e146102b457806318160ddd146102c75780632124d529146102de57806323b872dd146102f1578063248a9ca31461030457600080fd5b806301ffc9a71461023757806306fdde031461025f578063081812fc14610274578063095ea7b31461029f575b600080fd5b61024a610245366004611baf565b610555565b60405190151581526020015b60405180910390f35b610267610566565b6040516102569190611c1c565b610287610282366004611c2f565b6105f8565b6040516001600160a01b039091168152602001610256565b6102b26102ad366004611c5d565b610621565b005b6102876102c2366004611c2f565b610630565b6102d0600b5481565b604051908152602001610256565b6102b26102ec366004611c89565b6106bf565b6102b26102ff366004611ca6565b6107c0565b6102d0610312366004611c2f565b60009081526007602052604090206001015490565b600954610287906001600160a01b031681565b6102b2610348366004611ce7565b61084b565b6102b261035b366004611c5d565b610870565b6102b261036e366004611ce7565b610885565b600c54610287906001600160a01b031681565b6102b2610394366004611ca6565b6108bd565b6102b26103a7366004611c2f565b6108d8565b6102b26103ba366004611d17565b6108e4565b6102676109b2565b6102b26103d5366004611e12565b610a40565b6102876103e8366004611c2f565b610b03565b6102d06103fb366004611c89565b610b0e565b6102b261040e366004611e84565b610b56565b6102b2610421366004611f2f565b610c99565b6102b2610434366004611c2f565b610d39565b61024a610447366004611ce7565b610e32565b610267610e5d565b6102d0600081565b6102b261046a366004611f64565b610e6c565b600854610287906001600160a01b031681565b6102b2610490366004611f90565b610e77565b6102676104a3366004611c2f565b610e8e565b6102b26104b6366004612076565b610e99565b6102b26104c9366004611f2f565b610f3d565b6102d07f9f2df0fed2c77648de5860a4cc508cd0818c85b8b8a1ab4ceeef8d981c8956a681565b6102b2610503366004611ce7565b610fa3565b6102d07f65d7a28e3265b37a6474929f336521b332c1681b933f6cb9f3376673440d862a81565b6102b261053d366004611c5d565b610fc8565b61024a6105503660046120ee565b61101b565b600061056082611049565b92915050565b6060600080546105759061211c565b80601f01602080910402602001604051908101604052809291908181526020018280546105a19061211c565b80156105ee5780601f106105c3576101008083540402835291602001916105ee565b820191906000526020600020905b8154815290600101906020018083116105d157829003601f168201915b5050505050905090565b60006106038261106e565b506000828152600460205260409020546001600160a01b0316610560565b61062c8282336110a7565b5050565b600854600954604051632f4de29b60e11b81526001600160a01b03918216600482015246602482015230604482015260648101849052600060848201819052929190911690635e9bc5369060a401602060405180830381865afa15801561069b573d6000803e3d6000fd5b505050506040513d601f19601f820116820180604052508101906105609190612156565b60006106ca816110b4565b6000600b5460016106db9190612189565b90506106e783826110c1565b6106f0816110db565b61074c5760405162461bcd60e51b815260206004820152602260248201527f546f6b656e626f756e64206163636f756e74206372656174696f6e206661696c604482015261195960f21b60648201526084015b60405180910390fd5b600061075782610630565b9050600b5460016107689190612189565b600b55604080516001600160a01b038087168252602082018590528316918101919091527f18513301f0eb43899d489e5f49a6703f8656bf2fe9c604f1afd160f8ceb2d7a7906060015b60405180910390a150505050565b6001600160a01b0382166107ea57604051633250574960e11b815260006004820152602401610743565b60006107f78383336111a7565b9050836001600160a01b0316816001600160a01b031614610845576040516364283d7b60e01b81526001600160a01b0380861660048301526024820184905282166044820152606401610743565b50505050565b600082815260076020526040902060010154610866816110b4565b61084583836111bc565b600061087b816110b4565b6108458284611250565b6001600160a01b03811633146108ae5760405163334bd91960e11b815260040160405180910390fd5b6108b88282611250565b505050565b6108b883838360405180602001604052806000815250610e77565b61062c600082336111a7565b60006108ef816110b4565b600c5460405163731133e960e01b81526001600160a01b038581166004830152602482018790526044820185905260806064830152600060848301529091169063731133e99060a401600060405180830381600087803b15801561095257600080fd5b505af1158015610966573d6000803e3d6000fd5b5050604080516001600160a01b0387168152602081018890529081018590527f5ee6a92061928c2df779c2aa2aa49d74d87648d87758a8f93a29a4fd635437ca925060600190506107b2565b600a80546109bf9061211c565b80601f01602080910402602001604051908101604052809291908181526020018280546109eb9061211c565b8015610a385780601f10610a0d57610100808354040283529160200191610a38565b820191906000526020600020905b815481529060010190602001808311610a1b57829003601f168201915b505050505081565b6000610a4b816110b4565b600c5460405163180d0fe160e21b81526000916001600160a01b0316906360343f8490610a7e908790879060040161219c565b6020604051808303816000875af1158015610a9d573d6000803e3d6000fd5b505050506040513d601f19601f82011682018060405250810190610ac191906121c0565b9050807fea718e04abbc6d8ed1aa3b419421a7781fe7d509ae440f7a534829061daa1ce48585604051610af592919061219c565b60405180910390a250505050565b60006105608261106e565b60006001600160a01b038216610b3a576040516322718ad960e21b815260006004820152602401610743565b506001600160a01b031660009081526003602052604090205490565b6000610b61816110b4565b60005b825181101561084557600c5483516001600160a01b039091169063731133e990859084908110610b9657610b966121d9565b60209081029190910101516040516001600160e01b031960e084901b1681526001600160a01b0390911660048201526024810187905260016044820152608060648201526000608482015260a401600060405180830381600087803b158015610bfe57600080fd5b505af1158015610c12573d6000803e3d6000fd5b505050507f5ee6a92061928c2df779c2aa2aa49d74d87648d87758a8f93a29a4fd635437ca838281518110610c4957610c496121d9565b6020026020010151856001604051610c7f939291906001600160a01b039390931683526020830191909152604082015260600190565b60405180910390a180610c91816121ef565b915050610b64565b6000610ca4816110b4565b610cd482604051602001610cb89190612208565b60405160208183030381529060405280519060200120336111bc565b506040513390610ce8908490602001612208565b604051602081830303815290604052805190602001207f682296805e3c2f72a40e97242546df4934ee6310d636a3d1ddad71bbfa57c0b084604051610d2d9190611c1c565b60405180910390a35050565b6000610d44816110b4565b81600003610d8b5760405162461bcd60e51b8152602060048201526014602482015273151bdad95b88191bd95cc81b9bdd08195e1a5cdd60621b6044820152606401610743565b600b54821115610dd45760405162461bcd60e51b8152602060048201526014602482015273151bdad95b88191bd95cc81b9bdd08195e1a5cdd60621b6044820152606401610743565b6000610ddf83610b03565b9050610dea836112bd565b806001600160a01b03167f94601b735a18963e49c7a578a11fd5ac07c80e6dee535c7b5d559d2f6700720d84604051610e2591815260200190565b60405180910390a2505050565b60009182526007602090815260408084206001600160a01b0393909316845291905290205460ff1690565b6060600180546105759061211c565b61062c3383836112f8565b610e828484846107c0565b61084584848484611397565b6060610560826114c0565b6000610ea4816110b4565b600c54604051630fbfeffd60e11b81526001600160a01b0390911690631f7fdffa90610ed89086908890879060040161225f565b600060405180830381600087803b158015610ef257600080fd5b505af1158015610f06573d6000803e3d6000fd5b505050507f6f1e820998408e122a7863c7e6c2817178dcae431d25aad6eacd6033eca50cc78385846040516107b2939291906122b1565b6000610f48816110b4565b600a610f54838261233f565b507f6e52865076ef6fbd860465dcae611f4e43af090c8f6cf3c649c3666837b1bf7c610f7e610566565b610f86610e5d565b600a604051610f97939291906123ff565b60405180910390a15050565b600082815260076020526040902060010154610fbe816110b4565b6108458383611250565b6000610fd3816110b4565b610fdd82846111bc565b5060405133906001600160a01b0385169084907f2f8788117e7eff1d82e926ec794901d17c78024a50270940304540a733656f0d90600090a4505050565b6001600160a01b03918216600090815260056020908152604080832093909416825291909152205460ff1690565b60006001600160e01b03198216637965db0b60e01b14806105605750610560826115c9565b6000818152600260205260408120546001600160a01b03168061056057604051637e27328960e01b815260048101849052602401610743565b6108b883838360016115ee565b6110be81336116f4565b50565b61062c82826040518060200160405280600081525061172d565b6008546009546040513360248201526000926001600160a01b039081169263da7323b392911690469030908790879060440160408051601f198184030181529181526020820180516001600160e01b031663204a7f0760e21b1790525160e088901b6001600160e01b031916815261115b969594939291906004016124af565b6020604051808303816000875af115801561117a573d6000803e3d6000fd5b505050506040513d601f19601f8201168201806040525081019061119e9190612156565b50600192915050565b60006111b4848484611744565b949350505050565b60006111c88383610e32565b6112485760008381526007602090815260408083206001600160a01b03861684529091529020805460ff191660011790556112003390565b6001600160a01b0316826001600160a01b0316847f2f8788117e7eff1d82e926ec794901d17c78024a50270940304540a733656f0d60405160405180910390a4506001610560565b506000610560565b600061125c8383610e32565b156112485760008381526007602090815260408083206001600160a01b0386168085529252808320805460ff1916905551339286917ff6391f5c32d9c69d2a47ea670b442974b53935d1edc7fd64eb21e047a839171b9190a4506001610560565b60006112cc60008360006111a7565b90506001600160a01b03811661062c57604051637e27328960e01b815260048101839052602401610743565b6001600160a01b03821661132a57604051630b61174360e31b81526001600160a01b0383166004820152602401610743565b6001600160a01b03838116600081815260056020908152604080832094871680845294825291829020805460ff191686151590811790915591519182527f17307eab39ab6107e8899845ad3d59bd9653f200f220920489ca2b5937696c31910160405180910390a3505050565b6001600160a01b0383163b1561084557604051630a85bd0160e11b81526001600160a01b0384169063150b7a02906113d99033908890879087906004016124f8565b6020604051808303816000875af1925050508015611414575060408051601f3d908101601f191682019092526114119181019061252b565b60015b61147d573d808015611442576040519150601f19603f3d011682016040523d82523d6000602084013e611447565b606091505b50805160000361147557604051633250574960e11b81526001600160a01b0385166004820152602401610743565b805181602001fd5b6001600160e01b03198116630a85bd0160e11b146114b957604051633250574960e11b81526001600160a01b0385166004820152602401610743565b5050505050565b60606114cb8261106e565b50600082815260066020526040812080546114e59061211c565b80601f01602080910402602001604051908101604052809291908181526020018280546115119061211c565b801561155e5780601f106115335761010080835404028352916020019161155e565b820191906000526020600020905b81548152906001019060200180831161154157829003601f168201915b50505050509050600061157c60408051602081019091526000815290565b9050805160000361158e575092915050565b8151156115c05780826040516020016115a8929190612548565b60405160208183030381529060405292505050919050565b6111b48461183d565b60006001600160e01b03198216632483248360e11b14806105605750610560826118b2565b808061160257506001600160a01b03821615155b156116c45760006116128461106e565b90506001600160a01b0383161580159061163e5750826001600160a01b0316816001600160a01b031614155b8015611651575061164f818461101b565b155b1561167a5760405163a9fbf51f60e01b81526001600160a01b0384166004820152602401610743565b81156116c25783856001600160a01b0316826001600160a01b03167f8c5be1e5ebec7d5bd14f71427d1e84f3dd0314c0f7b2291e5b200ac8c7c3b92560405160405180910390a45b505b5050600090815260046020526040902080546001600160a01b0319166001600160a01b0392909216919091179055565b6116fe8282610e32565b61062c5760405163e2517d3f60e01b81526001600160a01b038216600482015260248101839052604401610743565b6117378383611902565b6108b86000848484611397565b6000828152600260205260408120546001600160a01b039081169083161561177157611771818486611967565b6001600160a01b038116156117af5761178e6000856000806115ee565b6001600160a01b038116600090815260036020526040902080546000190190555b6001600160a01b038516156117de576001600160a01b0385166000908152600360205260409020805460010190555b60008481526002602052604080822080546001600160a01b0319166001600160a01b0389811691821790925591518793918516917fddf252ad1be2c89b69c2b068fc378daa952ba7f163c4a11628f55a4df523b3ef91a4949350505050565b60606118488261106e565b50600061186060408051602081019091526000815290565b9050600081511161188057604051806020016040528060008152506118ab565b8061188a846119cb565b60405160200161189b929190612548565b6040516020818303038152906040525b9392505050565b60006001600160e01b031982166380ac58cd60e01b14806118e357506001600160e01b03198216635b5e139f60e01b145b8061056057506301ffc9a760e01b6001600160e01b0319831614610560565b6001600160a01b03821661192c57604051633250574960e11b815260006004820152602401610743565b600061193a838360006111a7565b90506001600160a01b038116156108b8576040516339e3563760e11b815260006004820152602401610743565b611972838383611a5e565b6108b8576001600160a01b0383166119a057604051637e27328960e01b815260048101829052602401610743565b60405163177e802f60e01b81526001600160a01b038316600482015260248101829052604401610743565b606060006119d883611ac1565b600101905060008167ffffffffffffffff8111156119f8576119f8611d3e565b6040519080825280601f01601f191660200182016040528015611a22576020820181803683370190505b5090508181016020015b600019016f181899199a1a9b1b9c1cb0b131b232b360811b600a86061a8153600a8504945084611a2c57509392505050565b60006001600160a01b038316158015906111b45750826001600160a01b0316846001600160a01b03161480611a985750611a98848461101b565b806111b45750506000908152600460205260409020546001600160a01b03908116911614919050565b60008072184f03e93ff9f4daa797ed6e38ed64bf6a1f0160401b8310611b005772184f03e93ff9f4daa797ed6e38ed64bf6a1f0160401b830492506040015b6d04ee2d6d415b85acef81000000008310611b2c576d04ee2d6d415b85acef8100000000830492506020015b662386f26fc100008310611b4a57662386f26fc10000830492506010015b6305f5e1008310611b62576305f5e100830492506008015b6127108310611b7657612710830492506004015b60648310611b88576064830492506002015b600a83106105605760010192915050565b6001600160e01b0319811681146110be57600080fd5b600060208284031215611bc157600080fd5b81356118ab81611b99565b60005b83811015611be7578181015183820152602001611bcf565b50506000910152565b60008151808452611c08816020860160208601611bcc565b601f01601f19169290920160200192915050565b6020815260006118ab6020830184611bf0565b600060208284031215611c4157600080fd5b5035919050565b6001600160a01b03811681146110be57600080fd5b60008060408385031215611c7057600080fd5b8235611c7b81611c48565b946020939093013593505050565b600060208284031215611c9b57600080fd5b81356118ab81611c48565b600080600060608486031215611cbb57600080fd5b8335611cc681611c48565b92506020840135611cd681611c48565b929592945050506040919091013590565b60008060408385031215611cfa57600080fd5b823591506020830135611d0c81611c48565b809150509250929050565b600080600060608486031215611d2c57600080fd5b833592506020840135611cd681611c48565b634e487b7160e01b600052604160045260246000fd5b604051601f8201601f1916810167ffffffffffffffff81118282101715611d7d57611d7d611d3e565b604052919050565b600067ffffffffffffffff831115611d9f57611d9f611d3e565b611db2601f8401601f1916602001611d54565b9050828152838383011115611dc657600080fd5b828260208301376000602084830101529392505050565b600082601f830112611dee57600080fd5b6118ab83833560208501611d85565b80358015158114611e0d57600080fd5b919050565b60008060408385031215611e2557600080fd5b823567ffffffffffffffff811115611e3c57600080fd5b611e4885828601611ddd565b925050611e5760208401611dfd565b90509250929050565b600067ffffffffffffffff821115611e7a57611e7a611d3e565b5060051b60200190565b60008060408385031215611e9757600080fd5b8235915060208084013567ffffffffffffffff811115611eb657600080fd5b8401601f81018613611ec757600080fd5b8035611eda611ed582611e60565b611d54565b81815260059190911b82018301908381019088831115611ef957600080fd5b928401925b82841015611f20578335611f1181611c48565b82529284019290840190611efe565b80955050505050509250929050565b600060208284031215611f4157600080fd5b813567ffffffffffffffff811115611f5857600080fd5b6111b484828501611ddd565b60008060408385031215611f7757600080fd5b8235611f8281611c48565b9150611e5760208401611dfd565b60008060008060808587031215611fa657600080fd5b8435611fb181611c48565b93506020850135611fc181611c48565b925060408501359150606085013567ffffffffffffffff811115611fe457600080fd5b8501601f81018713611ff557600080fd5b61200487823560208401611d85565b91505092959194509250565b600082601f83011261202157600080fd5b81356020612031611ed583611e60565b82815260059290921b8401810191818101908684111561205057600080fd5b8286015b8481101561206b5780358352918301918301612054565b509695505050505050565b60008060006060848603121561208b57600080fd5b833567ffffffffffffffff808211156120a357600080fd5b6120af87838801612010565b9450602086013591506120c182611c48565b909250604085013590808211156120d757600080fd5b506120e486828701612010565b9150509250925092565b6000806040838503121561210157600080fd5b823561210c81611c48565b91506020830135611d0c81611c48565b600181811c9082168061213057607f821691505b60208210810361215057634e487b7160e01b600052602260045260246000fd5b50919050565b60006020828403121561216857600080fd5b81516118ab81611c48565b634e487b7160e01b600052601160045260246000fd5b8082018082111561056057610560612173565b6040815260006121af6040830185611bf0565b905082151560208301529392505050565b6000602082840312156121d257600080fd5b5051919050565b634e487b7160e01b600052603260045260246000fd5b60006001820161220157612201612173565b5060010190565b6000825161221a818460208701611bcc565b9190910192915050565b600081518084526020808501945080840160005b8381101561225457815187529582019590820190600101612238565b509495945050505050565b6001600160a01b038416815260806020820181905260009061228390830185612224565b82810360408401526122958185612224565b8381036060909401939093525050600081526020019392505050565b6001600160a01b03841681526060602082018190526000906122d590830185612224565b82810360408401526122e78185612224565b9695505050505050565b601f8211156108b857600081815260208120601f850160051c810160208610156123185750805b601f850160051c820191505b8181101561233757828155600101612324565b505050505050565b815167ffffffffffffffff81111561235957612359611d3e565b61236d81612367845461211c565b846122f1565b602080601f8311600181146123a2576000841561238a5750858301515b600019600386901b1c1916600185901b178555612337565b600085815260208120601f198616915b828110156123d1578886015182559484019460019091019084016123b2565b50858210156123ef5787850151600019600388901b60f8161c191681555b5050505050600190811b01905550565b6060815260006124126060830186611bf0565b6020838203818501526124258287611bf0565b915083820360408501526000855461243c8161211c565b8085526001828116801561245757600181146124715761249f565b60ff1984168787015282151560051b87018601945061249f565b896000528560002060005b8481101561249757815489820189015290830190870161247c565b880187019550505b50929a9950505050505050505050565b600060018060a01b03808916835287602084015280871660408401525084606083015283608083015260c060a08301526124ec60c0830184611bf0565b98975050505050505050565b6001600160a01b03858116825284166020820152604081018390526080606082018190526000906122e790830184611bf0565b60006020828403121561253d57600080fd5b81516118ab81611b99565b6000835161255a818460208801611bcc565b83519083019061256e818360208801611bcc565b0194935050505056fea26469706673582212201ce70cb81e984e7bced02b2c6f0a19b45ac08aef58953d0db414def5dafe85d964736f6c6343000815003360806040523480156200001157600080fd5b5060405162001f6c38038062001f6c8339810160408190526200003491620001a6565b6040805160208101909152600081528190620000508162000142565b506001600160a01b0381166200008057604051631e4fbdf760e01b81526000600482015260240160405180910390fd5b6200008b8162000154565b5060006040518060400160405280601581526020017f68747470733a2f2f697066732e696f2f697066732f00000000000000000000008152509050600082604051602001620000ed919060609190911b6001600160601b031916815260140190565b604051602081830303815290604052905060008282604051602001620001159291906200020a565b60408051601f198184030181529190529050620001328162000142565b5050600060085550620003a69050565b6002620001508282620002da565b5050565b600380546001600160a01b038381166001600160a01b0319831681179093556040519116919082907f8be0079c531659141344cd1fd0a4f28419497f9722a3daafe3b4186f6b6457e090600090a35050565b600060208284031215620001b957600080fd5b81516001600160a01b0381168114620001d157600080fd5b9392505050565b6000815160005b81811015620001fb5760208185018101518683015201620001df565b50600093019283525090919050565b6000620002236200021c8386620001d8565b84620001d8565b602f60f81b8152600101949350505050565b634e487b7160e01b600052604160045260246000fd5b600181811c908216806200026057607f821691505b6020821081036200028157634e487b7160e01b600052602260045260246000fd5b50919050565b601f821115620002d557600081815260208120601f850160051c81016020861015620002b05750805b601f850160051c820191505b81811015620002d157828155600101620002bc565b5050505b505050565b81516001600160401b03811115620002f657620002f662000235565b6200030e816200030784546200024b565b8462000287565b602080601f8311600181146200034657600084156200032d5750858301515b600019600386901b1c1916600185901b178555620002d1565b600085815260208120601f198616915b82811015620003775788860151825594840194600190910190840162000356565b5085821015620003965787850151600019600388901b60f8161c191681555b5050505050600190811b01905550565b611bb680620003b66000396000f3fe608060405234801561001057600080fd5b506004361061014c5760003560e01c8063664d2c7c116100c3578063a61f98371161007c578063a61f9837146102e4578063bd85b039146102ed578063e985e9c51461030d578063f242432a14610320578063f2fde38b14610333578063f5298aca1461034657600080fd5b8063664d2c7c146102655780636b20c45414610288578063715018a61461029b578063731133e9146102a35780638da5cb5b146102b6578063a22cb465146102d157600080fd5b80631c1ac6c6116101155780631c1ac6c6146101d75780631f7fdffa146101ea5780632eb2c2d6146101fd5780634e1273f4146102105780634f558e791461023057806360343f841461025257600080fd5b8062fdd58e1461015157806301ffc9a71461017757806302fe53051461019a5780630e89341c146101af57806318160ddd146101cf575b600080fd5b61016461015f366004611197565b610359565b6040519081526020015b60405180910390f35b61018a6101853660046111d7565b610381565b604051901515815260200161016e565b6101ad6101a83660046112b0565b6103d1565b005b6101c26101bd3660046112ec565b6103e5565b60405161016e9190611355565b600554610164565b6101c26101e53660046112ec565b610448565b6101ad6101f83660046113f6565b6104e2565b6101ad61020b36600461148e565b6104fc565b61022361021e366004611537565b610568565b60405161016e9190611631565b61018a61023e3660046112ec565b600090815260046020526040902054151590565b610164610260366004611654565b61063c565b61018a6102733660046112ec565b60066020526000908152604090205460ff1681565b6101ad6102963660046116a1565b610695565b6101ad6106f9565b6101ad6102b1366004611714565b61070d565b6003546040516001600160a01b03909116815260200161016e565b6101ad6102df366004611768565b610721565b61016460085481565b6101646102fb3660046112ec565b60009081526004602052604090205490565b61018a61031b366004611792565b610730565b6101ad61032e3660046117bc565b61075e565b6101ad610341366004611820565b61077a565b6101ad61035436600461183b565b6107b5565b6000818152602081815260408083206001600160a01b03861684529091529020545b92915050565b60006001600160e01b03198216636cdb3d1360e11b14806103b257506001600160e01b031982166303a24d0760e21b145b8061037b57506301ffc9a760e01b6001600160e01b031983161461037b565b6103d96107eb565b6103e281610818565b50565b604080518082018252601581527468747470733a2f2f697066732e696f2f697066732f60581b6020808301919091526000848152600782528390209251606093610431928492016118a8565b604051602081830303815290604052915050919050565b600760205260009081526040902080546104619061186e565b80601f016020809104026020016040519081016040528092919081815260200182805461048d9061186e565b80156104da5780601f106104af576101008083540402835291602001916104da565b820191906000526020600020905b8154815290600101906020018083116104bd57829003601f168201915b505050505081565b6104ea6107eb565b6104f684848484610824565b50505050565b336001600160a01b038616811480159061051d575061051b8682610730565b155b156105535760405163711bec9160e11b81526001600160a01b038083166004830152871660248201526044015b60405180910390fd5b610560868686868661085c565b505050505050565b606081518351146105995781518351604051635b05999160e01b81526004810192909252602482015260440161054a565b600083516001600160401b038111156105b4576105b46111fb565b6040519080825280602002602001820160405280156105dd578160200160208202803683370190505b50905060005b84518110156106345760208082028601015161060790602080840287010151610359565b82828151811061061957610619611935565b602090810291909101015261062d81611961565b90506105e3565b509392505050565b60006106466107eb565b60006008546001610657919061197a565b6000818152600660209081526040808320805460ff19168815151790556007909152902090915061068885826119d3565b5060088190559392505050565b6001600160a01b03831633148015906106b557506106b38333610730565b155b156106e957335b60405163711bec9160e11b81526001600160a01b039182166004820152908416602482015260440161054a565b6106f48383836108bc565b505050565b6107016107eb565b61070b6000610902565b565b6107156107eb565b6104f684848484610954565b61072c3383836109b1565b5050565b6001600160a01b03918216600090815260016020908152604080832093909416825291909152205460ff1690565b6107666107eb565b6107738585858585610a47565b5050505050565b6107826107eb565b6001600160a01b0381166107ac57604051631e4fbdf760e01b81526000600482015260240161054a565b6103e281610902565b6001600160a01b03831633148015906107d557506107d38333610730565b155b156107e057336106bc565b6106f4838383610aa6565b6003546001600160a01b0316331461070b5760405163118cdaa760e01b815233600482015260240161054a565b600261072c82826119d3565b6001600160a01b03841661084e57604051632bfa23e760e11b81526000600482015260240161054a565b6104f6600085858585610b0a565b6001600160a01b03841661088657604051632bfa23e760e11b81526000600482015260240161054a565b6001600160a01b0385166108af57604051626a0d4560e21b81526000600482015260240161054a565b6107738585858585610b0a565b6001600160a01b0383166108e557604051626a0d4560e21b81526000600482015260240161054a565b6106f4836000848460405180602001604052806000815250610b0a565b600380546001600160a01b038381166001600160a01b0319831681179093556040519116919082907f8be0079c531659141344cd1fd0a4f28419497f9722a3daafe3b4186f6b6457e090600090a35050565b6001600160a01b03841661097e57604051632bfa23e760e11b81526000600482015260240161054a565b60408051600180825260208201869052818301908152606082018590526080820190925290610560600087848487610b0a565b6001600160a01b0382166109da5760405162ced3e160e81b81526000600482015260240161054a565b6001600160a01b03838116600081815260016020908152604080832094871680845294825291829020805460ff191686151590811790915591519182527f17307eab39ab6107e8899845ad3d59bd9653f200f220920489ca2b5937696c31910160405180910390a3505050565b336001600160a01b0386168114801590610a685750610a668682610730565b155b15610a995760405163711bec9160e11b81526001600160a01b0380831660048301528716602482015260440161054a565b6105608686868686610b5d565b6001600160a01b038316610acf57604051626a0d4560e21b81526000600482015260240161054a565b604080516001808252602082018590528183019081526060820184905260a08201909252600060808201818152919291610773918791859085905b610b1685858585610beb565b6001600160a01b038416156107735782513390600103610b4f5760208481015190840151610b48838989858589610bf7565b5050610560565b610560818787878787610d1b565b6001600160a01b038416610b8757604051632bfa23e760e11b81526000600482015260240161054a565b6001600160a01b038516610bb057604051626a0d4560e21b81526000600482015260240161054a565b60408051600180825260208201869052818301908152606082018590526080820190925290610be28787848487610b0a565b50505050505050565b6104f684848484610e04565b6001600160a01b0384163b156105605760405163f23a6e6160e01b81526001600160a01b0385169063f23a6e6190610c3b9089908990889088908890600401611a92565b6020604051808303816000875af1925050508015610c76575060408051601f3d908101601f19168201909252610c7391810190611ad7565b60015b610cdf573d808015610ca4576040519150601f19603f3d011682016040523d82523d6000602084013e610ca9565b606091505b508051600003610cd757604051632bfa23e760e11b81526001600160a01b038616600482015260240161054a565b805181602001fd5b6001600160e01b0319811663f23a6e6160e01b14610be257604051632bfa23e760e11b81526001600160a01b038616600482015260240161054a565b6001600160a01b0384163b156105605760405163bc197c8160e01b81526001600160a01b0385169063bc197c8190610d5f9089908990889088908890600401611af4565b6020604051808303816000875af1925050508015610d9a575060408051601f3d908101601f19168201909252610d9791810190611ad7565b60015b610dc8573d808015610ca4576040519150601f19603f3d011682016040523d82523d6000602084013e610ca9565b6001600160e01b0319811663bc197c8160e01b14610be257604051632bfa23e760e11b81526001600160a01b038616600482015260240161054a565b610e1084848484610f5e565b6001600160a01b038416610ec3576000805b8351811015610ea9576000838281518110610e3f57610e3f611935565b602002602001015190508060046000878581518110610e6057610e60611935565b602002602001015181526020019081526020016000206000828254610e85919061197a565b90915550610e959050818461197a565b92505080610ea290611961565b9050610e22565b508060056000828254610ebc919061197a565b9091555050505b6001600160a01b0383166104f6576000805b8351811015610f4d576000838281518110610ef257610ef2611935565b602002602001015190508060046000878581518110610f1357610f13611935565b602002602001015181526020019081526020016000206000828254039250508190555080830192505080610f4690611961565b9050610ed5565b506005805491909103905550505050565b8051825114610f8d5781518151604051635b05999160e01b81526004810192909252602482015260440161054a565b3360005b835181101561109c576020818102858101820151908501909101516001600160a01b03881615611044576000828152602081815260408083206001600160a01b038c1684529091529020548181101561101d576040516303dee4c560e01b81526001600160a01b038a16600482015260248101829052604481018390526064810184905260840161054a565b6000838152602081815260408083206001600160a01b038d16845290915290209082900390555b6001600160a01b03871615611089576000828152602081815260408083206001600160a01b038b1684529091528120805483929061108390849061197a565b90915550505b50508061109590611961565b9050610f91565b50825160010361111d5760208301516000906020840151909150856001600160a01b0316876001600160a01b0316846001600160a01b03167fc3d58168c5ae7397731d063d5bbf3d657854427343f4c083240f7aacaa2d0f62858560405161110e929190918252602082015260400190565b60405180910390a45050610773565b836001600160a01b0316856001600160a01b0316826001600160a01b03167f4a39dc06d4c0dbc64b70af90fd698a233a518aa5d07e595d983b8c0526c8f7fb868660405161116c929190611b52565b60405180910390a45050505050565b80356001600160a01b038116811461119257600080fd5b919050565b600080604083850312156111aa57600080fd5b6111b38361117b565b946020939093013593505050565b6001600160e01b0319811681146103e257600080fd5b6000602082840312156111e957600080fd5b81356111f4816111c1565b9392505050565b634e487b7160e01b600052604160045260246000fd5b604051601f8201601f191681016001600160401b0381118282101715611239576112396111fb565b604052919050565b600082601f83011261125257600080fd5b81356001600160401b0381111561126b5761126b6111fb565b61127e601f8201601f1916602001611211565b81815284602083860101111561129357600080fd5b816020850160208301376000918101602001919091529392505050565b6000602082840312156112c257600080fd5b81356001600160401b038111156112d857600080fd5b6112e484828501611241565b949350505050565b6000602082840312156112fe57600080fd5b5035919050565b60005b83811015611320578181015183820152602001611308565b50506000910152565b60008151808452611341816020860160208601611305565b601f01601f19169290920160200192915050565b6020815260006111f46020830184611329565b60006001600160401b03821115611381576113816111fb565b5060051b60200190565b600082601f83011261139c57600080fd5b813560206113b16113ac83611368565b611211565b82815260059290921b840181019181810190868411156113d057600080fd5b8286015b848110156113eb57803583529183019183016113d4565b509695505050505050565b6000806000806080858703121561140c57600080fd5b6114158561117b565b935060208501356001600160401b038082111561143157600080fd5b61143d8883890161138b565b9450604087013591508082111561145357600080fd5b61145f8883890161138b565b9350606087013591508082111561147557600080fd5b5061148287828801611241565b91505092959194509250565b600080600080600060a086880312156114a657600080fd5b6114af8661117b565b94506114bd6020870161117b565b935060408601356001600160401b03808211156114d957600080fd5b6114e589838a0161138b565b945060608801359150808211156114fb57600080fd5b61150789838a0161138b565b9350608088013591508082111561151d57600080fd5b5061152a88828901611241565b9150509295509295909350565b6000806040838503121561154a57600080fd5b82356001600160401b038082111561156157600080fd5b818501915085601f83011261157557600080fd5b813560206115856113ac83611368565b82815260059290921b840181019181810190898411156115a457600080fd5b948201945b838610156115c9576115ba8661117b565b825294820194908201906115a9565b965050860135925050808211156115df57600080fd5b506115ec8582860161138b565b9150509250929050565b600081518084526020808501945080840160005b838110156116265781518752958201959082019060010161160a565b509495945050505050565b6020815260006111f460208301846115f6565b8035801515811461119257600080fd5b6000806040838503121561166757600080fd5b82356001600160401b0381111561167d57600080fd5b61168985828601611241565b92505061169860208401611644565b90509250929050565b6000806000606084860312156116b657600080fd5b6116bf8461117b565b925060208401356001600160401b03808211156116db57600080fd5b6116e78783880161138b565b935060408601359150808211156116fd57600080fd5b5061170a8682870161138b565b9150509250925092565b6000806000806080858703121561172a57600080fd5b6117338561117b565b9350602085013592506040850135915060608501356001600160401b0381111561175c57600080fd5b61148287828801611241565b6000806040838503121561177b57600080fd5b6117848361117b565b915061169860208401611644565b600080604083850312156117a557600080fd5b6117ae8361117b565b91506116986020840161117b565b600080600080600060a086880312156117d457600080fd5b6117dd8661117b565b94506117eb6020870161117b565b9350604086013592506060860135915060808601356001600160401b0381111561181457600080fd5b61152a88828901611241565b60006020828403121561183257600080fd5b6111f48261117b565b60008060006060848603121561185057600080fd5b6118598461117b565b95602085013595506040909401359392505050565b600181811c9082168061188257607f821691505b6020821081036118a257634e487b7160e01b600052602260045260246000fd5b50919050565b6000835160206118bb8285838901611305565b8184019150600085546118cd8161186e565b600182811680156118e557600181146118fa57611926565b60ff1984168752821515830287019450611926565b896000528560002060005b8481101561191e57815489820152908301908701611905565b505082870194505b50929998505050505050505050565b634e487b7160e01b600052603260045260246000fd5b634e487b7160e01b600052601160045260246000fd5b6000600182016119735761197361194b565b5060010190565b8082018082111561037b5761037b61194b565b601f8211156106f457600081815260208120601f850160051c810160208610156119b45750805b601f850160051c820191505b81811015610560578281556001016119c0565b81516001600160401b038111156119ec576119ec6111fb565b611a00816119fa845461186e565b8461198d565b602080601f831160018114611a355760008415611a1d5750858301515b600019600386901b1c1916600185901b178555610560565b600085815260208120601f198616915b82811015611a6457888601518255948401946001909101908401611a45565b5085821015611a825787850151600019600388901b60f8161c191681555b5050505050600190811b01905550565b6001600160a01b03868116825285166020820152604081018490526060810183905260a060808201819052600090611acc90830184611329565b979650505050505050565b600060208284031215611ae957600080fd5b81516111f4816111c1565b6001600160a01b0386811682528516602082015260a060408201819052600090611b20908301866115f6565b8281036060840152611b3281866115f6565b90508281036080840152611b468185611329565b98975050505050505050565b604081526000611b6560408301856115f6565b8281036020840152611b7781856115f6565b9594505050505056fea2646970667358221220d50bb1176c04ee23440487b5c630b589f2bc210ae09fa0d7fe56634ea3dd59cc64736f6c63430008150033",
    "linkReferences": {}
  },
  "methodIdentifiers": {
    "DEFAULT_ADMIN_ROLE()": "a217fddf",
    "ERC6551AccountImplementation()": "2cecaac7",
    "ERC6551Registry()": "adbcef11",
    "MINTER_ROLE()": "d5391393",
    "PAUSER_ROLE()": "e63ab1e9",
    "achievementContract()": "399dfe26",
    "addAchievement(string,bool)": "60343f84",
    "addNewRole(string)": "88b14b4b",
    "approve(address,uint256)": "095ea7b3",
    "balanceOf(address)": "70a08231",
    "batchDistibuteAchievements(uint256[],address,uint256[])": "cb349541",
    "burn(uint256)": "42966c68",
    "createMember(address)": "2124d529",
    "deleteMember(uint256)": "88bec9da",
    "details()": "565974d3",
    "distributeAchievement(uint256,address,uint256)": "504627e8",
    "getApproved(uint256)": "081812fc",
    "getRoleAdmin(bytes32)": "248a9ca3",
    "getTBA(uint256)": "15d9756e",
    "grantMemberRole(address,bytes32)": "e8f9c569",
    "grantRole(bytes32,address)": "2f2ff15d",
    "hasRole(bytes32,address)": "91d14854",
    "isApprovedForAll(address,address)": "e985e9c5",
    "name()": "06fdde03",
    "ownerOf(uint256)": "6352211e",
    "renounceRole(bytes32,address)": "36568abe",
    "revokeMemberRole(address,bytes32)": "3201ef15",
    "revokeRole(bytes32,address)": "d547741f",
    "rewardProject(uint256,address[])": "76a041f6",
    "safeTransferFrom(address,address,uint256)": "42842e0e",
    "safeTransferFrom(address,address,uint256,bytes)": "b88d4fde",
    "setApprovalForAll(address,bool)": "a22cb465",
    "supportsInterface(bytes4)": "01ffc9a7",
    "symbol()": "95d89b41",
    "tokenURI(uint256)": "c87b56dd",
    "totalSupply()": "18160ddd",
    "transferFrom(address,address,uint256)": "23b872dd",
    "updateDetails(string)": "d2653b31"
  },
  "id": 52
}